{
  "_format": "hh-sol-artifact-1",
  "contractName": "SimpleAccountFactory",
  "sourceName": "@account-abstraction/contracts/samples/SimpleAccountFactory.sol",
  "abi": [
    {
      "inputs": [
        {
          "internalType": "contract IEntryPoint",
          "name": "_entryPoint",
          "type": "address"
        }
      ],
      "stateMutability": "nonpayable",
      "type": "constructor"
    },
    {
      "inputs": [],
      "name": "accountImplementation",
      "outputs": [
        {
          "internalType": "contract SimpleAccount",
          "name": "",
          "type": "address"
        }
      ],
      "stateMutability": "view",
      "type": "function"
    },
    {
      "inputs": [
        {
          "internalType": "address",
          "name": "owner",
          "type": "address"
        },
        {
          "internalType": "uint256",
          "name": "salt",
          "type": "uint256"
        }
      ],
      "name": "createAccount",
      "outputs": [
        {
          "internalType": "contract SimpleAccount",
          "name": "ret",
          "type": "address"
        }
      ],
      "stateMutability": "nonpayable",
      "type": "function"
    },
    {
      "inputs": [
        {
          "internalType": "address",
          "name": "owner",
          "type": "address"
        },
        {
          "internalType": "uint256",
          "name": "salt",
          "type": "uint256"
        }
      ],
      "name": "getAddress",
      "outputs": [
        {
          "internalType": "address",
          "name": "",
          "type": "address"
        }
      ],
      "stateMutability": "view",
      "type": "function"
    }
  ],
  "bytecode": "0x60a060405234801561001057600080fd5b5060405161215a38038061215a83398101604081905261002f91610088565b8060405161003c9061007b565b6001600160a01b039091168152602001604051809103906000f080158015610068573d6000803e3d6000fd5b506001600160a01b0316608052506100b8565b6118c28061089883390190565b60006020828403121561009a57600080fd5b81516001600160a01b03811681146100b157600080fd5b9392505050565b6080516107b96100df60003960008181604b0152818160d701526101a101526107b96000f3fe608060405234801561001057600080fd5b50600436106100415760003560e01c806311464fbe146100465780635fbfb9cf146100835780638cb84e1814610096575b600080fd5b61006d7f000000000000000000000000000000000000000000000000000000000000000081565b60405161007a9190610292565b60405180910390f35b61006d6100913660046102a6565b6100a9565b61006d6100a43660046102a6565b610172565b6000806100b68484610172565b90506001600160a01b0381163b80156100d15750905061016c565b8360001b7f0000000000000000000000000000000000000000000000000000000000000000866040516024016101079190610292565b60408051601f198184030181529181526020820180516001600160e01b031663189acdbd60e31b1790525161013b90610285565b610146929190610302565b8190604051809103906000f5905080158015610166573d6000803e3d6000fd5b50925050505b92915050565b60006102438260001b6040518060200161018b90610285565b6020820181038252601f19601f820116604052507f0000000000000000000000000000000000000000000000000000000000000000866040516024016101d19190610292565b60408051601f19818403018152918152602080830180516001600160e01b031663189acdbd60e31b179052905161020a93929101610302565b60408051601f19818403018152908290526102289291602001610344565b6040516020818303038152906040528051906020012061024a565b9392505050565b60006102438383306000604051836040820152846020820152828152600b8101905060ff8153605590206001600160a01b0316949350505050565b6104108061037483390190565b6001600160a01b0391909116815260200190565b600080604083850312156102b957600080fd5b82356001600160a01b03811681146102d057600080fd5b946020939093013593505050565b60005b838110156102f95781810151838201526020016102e1565b50506000910152565b60018060a01b0383168152604060208201526000825180604084015261032f8160608501602087016102de565b601f01601f1916919091016060019392505050565b600083516103568184602088016102de565b83519083019061036a8183602088016102de565b0194935050505056fe608060405260405161041038038061041083398101604081905261002291610268565b61002c8282610033565b5050610358565b61003c82610092565b6040516001600160a01b038316907fbc7cd75a20ee27fd9adebab32041f755214dbc6bffa90cc0225b39da2e5c2d3b90600090a280511561008657610081828261010e565b505050565b61008e610185565b5050565b806001600160a01b03163b6000036100cd57604051634c9c8ce360e01b81526001600160a01b03821660048201526024015b60405180910390fd5b7f360894a13ba1a3210667c828492db98dca3e2076cc3735a920a3ca505d382bbc80546001600160a01b0319166001600160a01b0392909216919091179055565b6060600080846001600160a01b03168460405161012b919061033c565b600060405180830381855af49150503d8060008114610166576040519150601f19603f3d011682016040523d82523d6000602084013e61016b565b606091505b50909250905061017c8583836101a6565b95945050505050565b34156101a45760405163b398979f60e01b815260040160405180910390fd5b565b6060826101bb576101b682610205565b6101fe565b81511580156101d257506001600160a01b0384163b155b156101fb57604051639996b31560e01b81526001600160a01b03851660048201526024016100c4565b50805b9392505050565b8051156102155780518082602001fd5b60405163d6bda27560e01b815260040160405180910390fd5b634e487b7160e01b600052604160045260246000fd5b60005b8381101561025f578181015183820152602001610247565b50506000910152565b6000806040838503121561027b57600080fd5b82516001600160a01b038116811461029257600080fd5b60208401519092506001600160401b038111156102ae57600080fd5b8301601f810185136102bf57600080fd5b80516001600160401b038111156102d8576102d861022e565b604051601f8201601f19908116603f011681016001600160401b03811182821017156103065761030661022e565b60405281815282820160200187101561031e57600080fd5b61032f826020830160208601610244565b8093505050509250929050565b6000825161034e818460208701610244565b9190910192915050565b60aa806103666000396000f3fe6080604052600a600c565b005b60186014601a565b6051565b565b6000604c7f360894a13ba1a3210667c828492db98dca3e2076cc3735a920a3ca505d382bbc546001600160a01b031690565b905090565b3660008037600080366000845af43d6000803e808015606f573d6000f35b3d6000fdfea26469706673582212208d253ceed828b8cdf23e2f12274693fec76d25589beddd6ddf7e1bdf40258caa64736f6c634300081d0033a26469706673582212204e10aef6ec925e691e6289adac0af236be7979584e12ddbc6732c553bebe81aa64736f6c634300081d003360c06040523060805234801561001457600080fd5b506040516118c23803806118c283398101604081905261003391610100565b6001600160a01b03811660a05261004861004e565b50610130565b7ff0c57e16840df040f15088dc2f81fe391c3923bec73e23a9662efc9c229c6a00805468010000000000000000900460ff161561009e5760405163f92ee8a960e01b815260040160405180910390fd5b80546001600160401b03908116146100fd5780546001600160401b0319166001600160401b0390811782556040519081527fc7f505b2f371ae2175ee4913f4499e1f2633a7b5936321eed1cdaeb6115181d29060200160405180910390a15b50565b60006020828403121561011257600080fd5b81516001600160a01b038116811461012957600080fd5b9392505050565b60805160a05161175861016a6000396000818161065f0152610d07015260008181610b3e01528181610b670152610ca401526117586000f3fe6080604052600436106100e25760003560e01c80638da5cb5b116100855780638da5cb5b14610208578063ad3cb1cc14610235578063b0d691fe14610273578063b61d27f614610288578063bc197c81146102a8578063c399ec88146102d7578063c4d66de8146102ec578063d087d2881461030c578063f23a6e611461032157600080fd5b806301ffc9a7146100ee578063150b7a021461012357806319822f7c1461016857806347e1da2a146101965780634a58db19146101b85780634d44560d146101c05780634f1ef286146101e057806352d1902d146101f357600080fd5b366100e957005b600080fd5b3480156100fa57600080fd5b5061010e610109366004611109565b61034e565b60405190151581526020015b60405180910390f35b34801561012f57600080fd5b5061014f61013e366004611190565b630a85bd0160e11b95945050505050565b6040516001600160e01b0319909116815260200161011a565b34801561017457600080fd5b50610188610183366004611202565b6103a0565b60405190815260200161011a565b3480156101a257600080fd5b506101b66101b1366004611299565b6103c6565b005b6101b6610549565b3480156101cc57600080fd5b506101b66101db36600461133c565b6105b1565b6101b66101ee36600461137e565b610621565b3480156101ff57600080fd5b50610188610640565b34801561021457600080fd5b50600054610228906001600160a01b031681565b60405161011a9190611447565b34801561024157600080fd5b50610266604051806040016040528060058152602001640352e302e360dc1b81525081565b60405161011a919061147f565b34801561027f57600080fd5b5061022861065d565b34801561029457600080fd5b506101b66102a33660046114b2565b610681565b3480156102b457600080fd5b5061014f6102c336600461150d565b63bc197c8160e01b98975050505050505050565b3480156102e357600080fd5b506101886106d0565b3480156102f857600080fd5b506101b66103073660046115d5565b61074b565b34801561031857600080fd5b50610188610858565b34801561032d57600080fd5b5061014f61033c3660046115f2565b63f23a6e6160e01b9695505050505050565b60006001600160e01b03198216630a85bd0160e11b148061037f57506001600160e01b03198216630271189760e51b145b8061039a57506001600160e01b031982166301ffc9a760e01b145b92915050565b60006103aa610897565b6103b48484610901565b90506103bf826109a8565b9392505050565b6103ce6109f5565b84811480156103e457508215806103e457508281145b61042b5760405162461bcd60e51b815260206004820152601360248201527277726f6e67206172726179206c656e6774687360681b60448201526064015b60405180910390fd5b60008390036104d75760005b858110156104d1576104c98787838181106104545761045461165b565b905060200201602081019061046991906115d5565b600085858581811061047d5761047d61165b565b905060200281019061048f9190611671565b8080601f016020809104026020016040519081016040528093929190818152602001838380828437600092019190915250610a7292505050565b600101610437565b50610541565b60005b8581101561053f576105378787838181106104f7576104f761165b565b905060200201602081019061050c91906115d5565b86868481811061051e5761051e61165b565b9050602002013585858581811061047d5761047d61165b565b6001016104da565b505b505050505050565b61055161065d565b6001600160a01b031663b760faf934306040518363ffffffff1660e01b815260040161057d9190611447565b6000604051808303818588803b15801561059657600080fd5b505af11580156105aa573d6000803e3d6000fd5b5050505050565b6105b9610ae2565b6105c161065d565b60405163040b850f60e31b81526001600160a01b03848116600483015260248201849052919091169063205c287890604401600060405180830381600087803b15801561060d57600080fd5b505af1158015610541573d6000803e3d6000fd5b610629610b33565b61063282610bd8565b61063c8282610be0565b5050565b600061064a610c99565b5060008051602061170383398151915290565b7f000000000000000000000000000000000000000000000000000000000000000090565b6106896109f5565b6106ca848484848080601f016020809104026020016040519081016040528093929190818152602001838380828437600092019190915250610a7292505050565b50505050565b60006106da61065d565b6001600160a01b03166370a08231306040518263ffffffff1660e01b81526004016107059190611447565b602060405180830381865afa158015610722573d6000803e3d6000fd5b505050506040513d601f19601f8201168201806040525081019061074691906116b7565b905090565b7ff0c57e16840df040f15088dc2f81fe391c3923bec73e23a9662efc9c229c6a008054600160401b810460ff1615906001600160401b03166000811580156107905750825b90506000826001600160401b031660011480156107ac5750303b155b9050811580156107ba575080155b156107d85760405163f92ee8a960e01b815260040160405180910390fd5b845467ffffffffffffffff19166001178555831561080257845460ff60401b1916600160401b1785555b61080b86610ce2565b831561054157845460ff60401b19168555604051600181527fc7f505b2f371ae2175ee4913f4499e1f2633a7b5936321eed1cdaeb6115181d29060200160405180910390a1505050505050565b600061086261065d565b604051631aab3f0d60e11b8152306004820152600060248201526001600160a01b0391909116906335567e1a90604401610705565b61089f61065d565b6001600160a01b0316336001600160a01b0316146108ff5760405162461bcd60e51b815260206004820152601c60248201527f6163636f756e743a206e6f742066726f6d20456e747279506f696e74000000006044820152606401610422565b565b7f19457468657265756d205369676e6564204d6573736167653a0a3332000000006000908152601c829052603c812061097c81610942610100870187611671565b8080601f016020809104026020016040519081016040528093929190818152602001838380828437600092019190915250610d5192505050565b6000546001600160a01b0390811691161461099b57600191505061039a565b5060009392505050565b50565b80156109a557604051600090339060001990849084818181858888f193505050503d80600081146105aa576040519150601f19603f3d011682016040523d82523d6000602084013e6105aa565b6109fd61065d565b6001600160a01b0316336001600160a01b03161480610a2657506000546001600160a01b031633145b6108ff5760405162461bcd60e51b815260206004820181905260248201527f6163636f756e743a206e6f74204f776e6572206f7220456e747279506f696e746044820152606401610422565b600080846001600160a01b03168484604051610a8e91906116d0565b60006040518083038185875af1925050503d8060008114610acb576040519150601f19603f3d011682016040523d82523d6000602084013e610ad0565b606091505b5091509150816105aa57805160208201fd5b6000546001600160a01b0316331480610afa57503330145b6108ff5760405162461bcd60e51b815260206004820152600a60248201526937b7363c9037bbb732b960b11b6044820152606401610422565b306001600160a01b037f0000000000000000000000000000000000000000000000000000000000000000161480610bba57507f00000000000000000000000000000000000000000000000000000000000000006001600160a01b0316610bae600080516020611703833981519152546001600160a01b031690565b6001600160a01b031614155b156108ff5760405163703e46dd60e11b815260040160405180910390fd5b6109a5610ae2565b816001600160a01b03166352d1902d6040518163ffffffff1660e01b8152600401602060405180830381865afa925050508015610c3a575060408051601f3d908101601f19168201909252610c37918101906116b7565b60015b610c595781604051634c9c8ce360e01b81526004016104229190611447565b6000805160206117038339815191528114610c8a57604051632a87526960e21b815260048101829052602401610422565b610c948383610d7b565b505050565b306001600160a01b037f000000000000000000000000000000000000000000000000000000000000000016146108ff5760405163703e46dd60e11b815260040160405180910390fd5b600080546001600160a01b0319166001600160a01b03838116918217835560405191927f0000000000000000000000000000000000000000000000000000000000000000909116917f47e55c76e7a6f1fd8996a1da8008c1ea29699cca35e7bcd057f2dec313b6e5de9190a350565b600080600080610d618686610dd1565b925092509250610d718282610e1e565b5090949350505050565b610d8482610ed7565b6040516001600160a01b038316907fbc7cd75a20ee27fd9adebab32041f755214dbc6bffa90cc0225b39da2e5c2d3b90600090a2805115610dc957610c948282610f33565b61063c610fa9565b60008060008351604103610e0b5760208401516040850151606086015160001a610dfd88828585610fc8565b955095509550505050610e17565b50508151600091506002905b9250925092565b6000826003811115610e3257610e326116ec565b03610e3b575050565b6001826003811115610e4f57610e4f6116ec565b03610e6d5760405163f645eedf60e01b815260040160405180910390fd5b6002826003811115610e8157610e816116ec565b03610ea25760405163fce698f760e01b815260048101829052602401610422565b6003826003811115610eb657610eb66116ec565b0361063c576040516335e2f38360e21b815260048101829052602401610422565b806001600160a01b03163b600003610f045780604051634c9c8ce360e01b81526004016104229190611447565b60008051602061170383398151915280546001600160a01b0319166001600160a01b0392909216919091179055565b6060600080846001600160a01b031684604051610f5091906116d0565b600060405180830381855af49150503d8060008114610f8b576040519150601f19603f3d011682016040523d82523d6000602084013e610f90565b606091505b5091509150610fa085838361108d565b95945050505050565b34156108ff5760405163b398979f60e01b815260040160405180910390fd5b600080806fa2a8918ca85bafe22016d0b997e4df60600160ff1b03841115610ff95750600091506003905082611083565b604080516000808252602082018084528a905260ff891692820192909252606081018790526080810186905260019060a0016020604051602081039080840390855afa15801561104d573d6000803e3d6000fd5b5050604051601f1901519150506001600160a01b03811661107957506000925060019150829050611083565b9250600091508190505b9450945094915050565b6060826110a25761109d826110e0565b6103bf565b81511580156110b957506001600160a01b0384163b155b156110d95783604051639996b31560e01b81526004016104229190611447565b50806103bf565b8051156110f05780518082602001fd5b60405163d6bda27560e01b815260040160405180910390fd5b60006020828403121561111b57600080fd5b81356001600160e01b0319811681146103bf57600080fd5b6001600160a01b03811681146109a557600080fd5b60008083601f84011261115a57600080fd5b5081356001600160401b0381111561117157600080fd5b60208301915083602082850101111561118957600080fd5b9250929050565b6000806000806000608086880312156111a857600080fd5b85356111b381611133565b945060208601356111c381611133565b93506040860135925060608601356001600160401b038111156111e557600080fd5b6111f188828901611148565b969995985093965092949392505050565b60008060006060848603121561121757600080fd5b83356001600160401b0381111561122d57600080fd5b8401610120818703121561124057600080fd5b95602085013595506040909401359392505050565b60008083601f84011261126757600080fd5b5081356001600160401b0381111561127e57600080fd5b6020830191508360208260051b850101111561118957600080fd5b600080600080600080606087890312156112b257600080fd5b86356001600160401b038111156112c857600080fd5b6112d489828a01611255565b90975095505060208701356001600160401b038111156112f357600080fd5b6112ff89828a01611255565b90955093505060408701356001600160401b0381111561131e57600080fd5b61132a89828a01611255565b979a9699509497509295939492505050565b6000806040838503121561134f57600080fd5b823561135a81611133565b946020939093013593505050565b634e487b7160e01b600052604160045260246000fd5b6000806040838503121561139157600080fd5b823561139c81611133565b915060208301356001600160401b038111156113b757600080fd5b8301601f810185136113c857600080fd5b80356001600160401b038111156113e1576113e1611368565b604051601f8201601f19908116603f011681016001600160401b038111828210171561140f5761140f611368565b60405281815282820160200187101561142757600080fd5b816020840160208301376000602083830101528093505050509250929050565b6001600160a01b0391909116815260200190565b60005b8381101561147657818101518382015260200161145e565b50506000910152565b602081526000825180602084015261149e81604085016020870161145b565b601f01601f19169190910160400192915050565b600080600080606085870312156114c857600080fd5b84356114d381611133565b93506020850135925060408501356001600160401b038111156114f557600080fd5b61150187828801611148565b95989497509550505050565b60008060008060008060008060a0898b03121561152957600080fd5b883561153481611133565b9750602089013561154481611133565b965060408901356001600160401b0381111561155f57600080fd5b61156b8b828c01611255565b90975095505060608901356001600160401b0381111561158a57600080fd5b6115968b828c01611255565b90955093505060808901356001600160401b038111156115b557600080fd5b6115c18b828c01611148565b999c989b5096995094979396929594505050565b6000602082840312156115e757600080fd5b81356103bf81611133565b60008060008060008060a0878903121561160b57600080fd5b863561161681611133565b9550602087013561162681611133565b9450604087013593506060870135925060808701356001600160401b0381111561164f57600080fd5b61132a89828a01611148565b634e487b7160e01b600052603260045260246000fd5b6000808335601e1984360301811261168857600080fd5b8301803591506001600160401b038211156116a257600080fd5b60200191503681900382131561118957600080fd5b6000602082840312156116c957600080fd5b5051919050565b600082516116e281846020870161145b565b9190910192915050565b634e487b7160e01b600052602160045260246000fdfe360894a13ba1a3210667c828492db98dca3e2076cc3735a920a3ca505d382bbca26469706673582212203d4496a731a10a62bb9bb96ab66d098dda4dfe8299bf3f15f3579858ae6ed17364736f6c634300081d0033",
  "linkReferences": {},
  "deployedLinkReferences": {}
}