{
  "_format": "hh-sol-artifact-1",
  "contractName": "SuperchainPoints",
  "sourceName": "contracts/SuperchainPoints.sol",
  "abi": [
    {
      "inputs": [
        {
          "internalType": "address",
          "name": "owner",
          "type": "address"
        },
        {
          "internalType": "string",
          "name": "name",
          "type": "string"
        },
        {
          "internalType": "string",
          "name": "symbol",
          "type": "string"
        }
      ],
      "stateMutability": "nonpayable",
      "type": "constructor"
    },
    {
      "inputs": [
        {
          "internalType": "address",
          "name": "spender",
          "type": "address"
        },
        {
          "internalType": "uint256",
          "name": "allowance",
          "type": "uint256"
        },
        {
          "internalType": "uint256",
          "name": "needed",
          "type": "uint256"
        }
      ],
      "name": "ERC20InsufficientAllowance",
      "type": "error"
    },
    {
      "inputs": [
        {
          "internalType": "address",
          "name": "sender",
          "type": "address"
        },
        {
          "internalType": "uint256",
          "name": "balance",
          "type": "uint256"
        },
        {
          "internalType": "uint256",
          "name": "needed",
          "type": "uint256"
        }
      ],
      "name": "ERC20InsufficientBalance",
      "type": "error"
    },
    {
      "inputs": [
        {
          "internalType": "address",
          "name": "approver",
          "type": "address"
        }
      ],
      "name": "ERC20InvalidApprover",
      "type": "error"
    },
    {
      "inputs": [
        {
          "internalType": "address",
          "name": "receiver",
          "type": "address"
        }
      ],
      "name": "ERC20InvalidReceiver",
      "type": "error"
    },
    {
      "inputs": [
        {
          "internalType": "address",
          "name": "sender",
          "type": "address"
        }
      ],
      "name": "ERC20InvalidSender",
      "type": "error"
    },
    {
      "inputs": [
        {
          "internalType": "address",
          "name": "spender",
          "type": "address"
        }
      ],
      "name": "ERC20InvalidSpender",
      "type": "error"
    },
    {
      "inputs": [],
      "name": "LengthMismatch",
      "type": "error"
    },
    {
      "inputs": [],
      "name": "NothingToClaim",
      "type": "error"
    },
    {
      "inputs": [
        {
          "internalType": "address",
          "name": "owner",
          "type": "address"
        }
      ],
      "name": "OwnableInvalidOwner",
      "type": "error"
    },
    {
      "inputs": [
        {
          "internalType": "address",
          "name": "account",
          "type": "address"
        }
      ],
      "name": "OwnableUnauthorizedAccount",
      "type": "error"
    },
    {
      "inputs": [],
      "name": "Unauthorized",
      "type": "error"
    },
    {
      "anonymous": false,
      "inputs": [
        {
          "indexed": true,
          "internalType": "address",
          "name": "owner",
          "type": "address"
        },
        {
          "indexed": true,
          "internalType": "address",
          "name": "spender",
          "type": "address"
        },
        {
          "indexed": false,
          "internalType": "uint256",
          "name": "value",
          "type": "uint256"
        }
      ],
      "name": "Approval",
      "type": "event"
    },
    {
      "anonymous": false,
      "inputs": [
        {
          "indexed": true,
          "internalType": "address",
          "name": "from",
          "type": "address"
        },
        {
          "indexed": false,
          "internalType": "uint256",
          "name": "amount",
          "type": "uint256"
        },
        {
          "indexed": true,
          "internalType": "address",
          "name": "sender",
          "type": "address"
        }
      ],
      "name": "CrosschainBurn",
      "type": "event"
    },
    {
      "anonymous": false,
      "inputs": [
        {
          "indexed": true,
          "internalType": "address",
          "name": "to",
          "type": "address"
        },
        {
          "indexed": false,
          "internalType": "uint256",
          "name": "amount",
          "type": "uint256"
        },
        {
          "indexed": true,
          "internalType": "address",
          "name": "sender",
          "type": "address"
        }
      ],
      "name": "CrosschainMint",
      "type": "event"
    },
    {
      "anonymous": false,
      "inputs": [
        {
          "indexed": true,
          "internalType": "address",
          "name": "previousOwner",
          "type": "address"
        },
        {
          "indexed": true,
          "internalType": "address",
          "name": "newOwner",
          "type": "address"
        }
      ],
      "name": "OwnershipTransferred",
      "type": "event"
    },
    {
      "anonymous": false,
      "inputs": [
        {
          "indexed": false,
          "internalType": "address",
          "name": "account",
          "type": "address"
        },
        {
          "indexed": false,
          "internalType": "uint256",
          "name": "amount",
          "type": "uint256"
        }
      ],
      "name": "TokensAdded",
      "type": "event"
    },
    {
      "anonymous": false,
      "inputs": [
        {
          "indexed": false,
          "internalType": "address",
          "name": "account",
          "type": "address"
        },
        {
          "indexed": false,
          "internalType": "uint256",
          "name": "amount",
          "type": "uint256"
        }
      ],
      "name": "TokensClaimed",
      "type": "event"
    },
    {
      "anonymous": false,
      "inputs": [
        {
          "indexed": true,
          "internalType": "address",
          "name": "from",
          "type": "address"
        },
        {
          "indexed": true,
          "internalType": "address",
          "name": "to",
          "type": "address"
        },
        {
          "indexed": false,
          "internalType": "uint256",
          "name": "value",
          "type": "uint256"
        }
      ],
      "name": "Transfer",
      "type": "event"
    },
    {
      "inputs": [
        {
          "internalType": "address[]",
          "name": "users",
          "type": "address[]"
        },
        {
          "internalType": "uint256[]",
          "name": "amounts",
          "type": "uint256[]"
        }
      ],
      "name": "addClaimable",
      "outputs": [],
      "stateMutability": "nonpayable",
      "type": "function"
    },
    {
      "inputs": [
        {
          "internalType": "address",
          "name": "owner",
          "type": "address"
        },
        {
          "internalType": "address",
          "name": "spender",
          "type": "address"
        }
      ],
      "name": "allowance",
      "outputs": [
        {
          "internalType": "uint256",
          "name": "",
          "type": "uint256"
        }
      ],
      "stateMutability": "view",
      "type": "function"
    },
    {
      "inputs": [
        {
          "internalType": "address",
          "name": "spender",
          "type": "address"
        },
        {
          "internalType": "uint256",
          "name": "value",
          "type": "uint256"
        }
      ],
      "name": "approve",
      "outputs": [
        {
          "internalType": "bool",
          "name": "",
          "type": "bool"
        }
      ],
      "stateMutability": "nonpayable",
      "type": "function"
    },
    {
      "inputs": [
        {
          "internalType": "address",
          "name": "account",
          "type": "address"
        }
      ],
      "name": "balanceOf",
      "outputs": [
        {
          "internalType": "uint256",
          "name": "",
          "type": "uint256"
        }
      ],
      "stateMutability": "view",
      "type": "function"
    },
    {
      "inputs": [],
      "name": "claim",
      "outputs": [],
      "stateMutability": "nonpayable",
      "type": "function"
    },
    {
      "inputs": [
        {
          "internalType": "address",
          "name": "",
          "type": "address"
        }
      ],
      "name": "claimable",
      "outputs": [
        {
          "internalType": "uint256",
          "name": "",
          "type": "uint256"
        }
      ],
      "stateMutability": "view",
      "type": "function"
    },
    {
      "inputs": [
        {
          "internalType": "address",
          "name": "",
          "type": "address"
        }
      ],
      "name": "claimed",
      "outputs": [
        {
          "internalType": "uint256",
          "name": "",
          "type": "uint256"
        }
      ],
      "stateMutability": "view",
      "type": "function"
    },
    {
      "inputs": [
        {
          "internalType": "address",
          "name": "_from",
          "type": "address"
        },
        {
          "internalType": "uint256",
          "name": "_amount",
          "type": "uint256"
        }
      ],
      "name": "crosschainBurn",
      "outputs": [],
      "stateMutability": "nonpayable",
      "type": "function"
    },
    {
      "inputs": [
        {
          "internalType": "address",
          "name": "_to",
          "type": "address"
        },
        {
          "internalType": "uint256",
          "name": "_amount",
          "type": "uint256"
        }
      ],
      "name": "crosschainMint",
      "outputs": [],
      "stateMutability": "nonpayable",
      "type": "function"
    },
    {
      "inputs": [],
      "name": "decimals",
      "outputs": [
        {
          "internalType": "uint8",
          "name": "",
          "type": "uint8"
        }
      ],
      "stateMutability": "view",
      "type": "function"
    },
    {
      "inputs": [
        {
          "internalType": "address",
          "name": "user",
          "type": "address"
        }
      ],
      "name": "getClaimable",
      "outputs": [
        {
          "internalType": "uint256",
          "name": "",
          "type": "uint256"
        }
      ],
      "stateMutability": "view",
      "type": "function"
    },
    {
      "inputs": [
        {
          "internalType": "address",
          "name": "to",
          "type": "address"
        },
        {
          "internalType": "uint256",
          "name": "amount",
          "type": "uint256"
        }
      ],
      "name": "mint",
      "outputs": [],
      "stateMutability": "nonpayable",
      "type": "function"
    },
    {
      "inputs": [],
      "name": "name",
      "outputs": [
        {
          "internalType": "string",
          "name": "",
          "type": "string"
        }
      ],
      "stateMutability": "view",
      "type": "function"
    },
    {
      "inputs": [],
      "name": "owner",
      "outputs": [
        {
          "internalType": "address",
          "name": "",
          "type": "address"
        }
      ],
      "stateMutability": "view",
      "type": "function"
    },
    {
      "inputs": [],
      "name": "renounceOwnership",
      "outputs": [],
      "stateMutability": "nonpayable",
      "type": "function"
    },
    {
      "inputs": [
        {
          "internalType": "bytes4",
          "name": "_interfaceId",
          "type": "bytes4"
        }
      ],
      "name": "supportsInterface",
      "outputs": [
        {
          "internalType": "bool",
          "name": "",
          "type": "bool"
        }
      ],
      "stateMutability": "view",
      "type": "function"
    },
    {
      "inputs": [],
      "name": "symbol",
      "outputs": [
        {
          "internalType": "string",
          "name": "",
          "type": "string"
        }
      ],
      "stateMutability": "view",
      "type": "function"
    },
    {
      "inputs": [],
      "name": "totalSupply",
      "outputs": [
        {
          "internalType": "uint256",
          "name": "",
          "type": "uint256"
        }
      ],
      "stateMutability": "view",
      "type": "function"
    },
    {
      "inputs": [
        {
          "internalType": "address",
          "name": "to",
          "type": "address"
        },
        {
          "internalType": "uint256",
          "name": "value",
          "type": "uint256"
        }
      ],
      "name": "transfer",
      "outputs": [
        {
          "internalType": "bool",
          "name": "",
          "type": "bool"
        }
      ],
      "stateMutability": "nonpayable",
      "type": "function"
    },
    {
      "inputs": [
        {
          "internalType": "address",
          "name": "from",
          "type": "address"
        },
        {
          "internalType": "address",
          "name": "to",
          "type": "address"
        },
        {
          "internalType": "uint256",
          "name": "value",
          "type": "uint256"
        }
      ],
      "name": "transferFrom",
      "outputs": [
        {
          "internalType": "bool",
          "name": "",
          "type": "bool"
        }
      ],
      "stateMutability": "nonpayable",
      "type": "function"
    },
    {
      "inputs": [
        {
          "internalType": "address",
          "name": "newOwner",
          "type": "address"
        }
      ],
      "name": "transferOwnership",
      "outputs": [],
      "stateMutability": "nonpayable",
      "type": "function"
    }
  ],
  "bytecode": "0x608060405234801561001057600080fd5b506040516111da3803806111da83398101604081905261002f91610199565b828282600361003e83826102aa565b50600461004b82826102aa565b5050506001600160a01b03811661007c57604051631e4fbdf760e01b81526000600482015260240160405180910390fd5b6100858161008e565b50505050610368565b600580546001600160a01b038381166001600160a01b0319831681179093556040519116919082907f8be0079c531659141344cd1fd0a4f28419497f9722a3daafe3b4186f6b6457e090600090a35050565b634e487b7160e01b600052604160045260246000fd5b600082601f83011261010757600080fd5b81516001600160401b03811115610120576101206100e0565b604051601f8201601f19908116603f011681016001600160401b038111828210171561014e5761014e6100e0565b60405281815283820160200185101561016657600080fd5b60005b8281101561018557602081860181015183830182015201610169565b506000918101602001919091529392505050565b6000806000606084860312156101ae57600080fd5b83516001600160a01b03811681146101c557600080fd5b60208501519093506001600160401b038111156101e157600080fd5b6101ed868287016100f6565b604086015190935090506001600160401b0381111561020b57600080fd5b610217868287016100f6565b9150509250925092565b600181811c9082168061023557607f821691505b60208210810361025557634e487b7160e01b600052602260045260246000fd5b50919050565b601f8211156102a557806000526020600020601f840160051c810160208510156102825750805b601f840160051c820191505b818110156102a2576000815560010161028e565b50505b505050565b81516001600160401b038111156102c3576102c36100e0565b6102d7816102d18454610221565b8461025b565b6020601f82116001811461030b57600083156102f35750848201515b600019600385901b1c1916600184901b1784556102a2565b600084815260208120601f198516915b8281101561033b578785015182556020948501946001909201910161031b565b50848210156103595786840151600019600387901b60f8161c191681555b50505050600190811b01905550565b610e63806103776000396000f3fe608060405234801561001057600080fd5b50600436106101375760003560e01c80634e71d92d116100b85780639bdd80131161007c5780639bdd801314610275578063a583024b14610288578063a9059cbb1461029b578063c884ef83146102ae578063dd62ed3e146102ce578063f2fde38b146102e157600080fd5b80634e71d92d1461021b57806370a0823114610223578063715018a61461024c5780638da5cb5b1461025457806395d89b411461026d57600080fd5b806323b872dd116100ff57806323b872dd146101b35780632b8c49e3146101c6578063313ce567146101d9578063402914f5146101e857806340c10f191461020857600080fd5b806301ffc9a71461013c57806306fdde0314610164578063095ea7b31461017957806318160ddd1461018c57806318bf50771461019e575b600080fd5b61014f61014a366004610b5f565b6102f4565b60405190151581526020015b60405180910390f35b61016c610346565b60405161015b9190610b90565b61014f610187366004610bfa565b6103d8565b6002545b60405190815260200161015b565b6101b16101ac366004610bfa565b6103f0565b005b61014f6101c1366004610c24565b610465565b6101b16101d4366004610bfa565b610489565b6040516012815260200161015b565b6101906101f6366004610c61565b60066020526000908152604090205481565b6101b1610216366004610bfa565b6104f6565b6101b161050c565b610190610231366004610c61565b6001600160a01b031660009081526020819052604090205490565b6101b16105b1565b6005546001600160a01b031660405161015b9190610c7c565b61016c6105c5565b6101b1610283366004610cdc565b6105d4565b610190610296366004610c61565b610715565b61014f6102a9366004610bfa565b610743565b6101906102bc366004610c61565b60076020526000908152604090205481565b6101906102dc366004610d4d565b610751565b6101b16102ef366004610c61565b61077c565b60006001600160e01b03198216630cccc66560e21b148061032557506001600160e01b031982166336372b0760e01b145b8061034057506001600160e01b031982166301ffc9a760e01b145b92915050565b60606003805461035590610d80565b80601f016020809104026020016040519081016040528092919081815260200182805461038190610d80565b80156103ce5780601f106103a3576101008083540402835291602001916103ce565b820191906000526020600020905b8154815290600101906020018083116103b157829003601f168201915b5050505050905090565b6000336103e68185856107c3565b5060019392505050565b336028602160991b0114610416576040516282b42960e81b815260040160405180910390fd5b61042082826107d5565b60405181815233906001600160a01b038416907fde22baff038e3a3e08407cbdf617deed74e869a7ba517df611e33131c6e6ea04906020015b60405180910390a35050565b60003361047385828561080b565b61047e85858561085f565b506001949350505050565b336028602160991b01146104af576040516282b42960e81b815260040160405180910390fd5b6104b982826108be565b60405181815233906001600160a01b038416907fb90795a66650155983e242cac3e1ac1a4dc26f8ed2987f3ce416a34e00111fd490602001610459565b6104fe6108f4565b61050882826107d5565b5050565b33600090815260066020908152604080832054600790925290912054808211610548576040516312d37ee560e31b815260040160405180910390fd5b60006105548284610dd0565b33600081815260076020526040902085905590915061057390826107d5565b60408051338152602081018390527f896e034966eaaf1adc54acc0f257056febbd300c9e47182cf761982cf1f5e430910160405180910390a1505050565b6105b96108f4565b6105c36000610921565b565b60606004805461035590610d80565b6105dc6108f4565b8281146105ff576040516001621398b960e31b0319815260040160405180910390fd5b60005b8381101561070e5782828281811061061c5761061c610de3565b905060200201356006600087878581811061063957610639610de3565b905060200201602081019061064e9190610c61565b6001600160a01b03166001600160a01b03168152602001908152602001600020600082825461067d9190610df9565b909155507f0eaac1064ee8d13f83091f388597ffb5ff2d2e59f6a16aae2a74ba7f2d13c8d990508585838181106106b6576106b6610de3565b90506020020160208101906106cb9190610c61565b8484848181106106dd576106dd610de3565b604080516001600160a01b0390951685526020918202939093013590840152500160405180910390a1600101610602565b5050505050565b6001600160a01b03811660009081526007602090815260408083205460069092528220546103409190610dd0565b6000336103e681858561085f565b6001600160a01b03918216600090815260016020908152604080832093909416825291909152205490565b6107846108f4565b6001600160a01b0381166107b7576000604051631e4fbdf760e01b81526004016107ae9190610c7c565b60405180910390fd5b6107c081610921565b50565b6107d08383836001610973565b505050565b6001600160a01b0382166107ff57600060405163ec442f0560e01b81526004016107ae9190610c7c565b61050860008383610a48565b60006108178484610751565b9050600019811015610859578181101561084a57828183604051637dc7a0d960e11b81526004016107ae93929190610e0c565b61085984848484036000610973565b50505050565b6001600160a01b038316610889576000604051634b637e8f60e11b81526004016107ae9190610c7c565b6001600160a01b0382166108b357600060405163ec442f0560e01b81526004016107ae9190610c7c565b6107d0838383610a48565b6001600160a01b0382166108e8576000604051634b637e8f60e11b81526004016107ae9190610c7c565b61050882600083610a48565b6005546001600160a01b031633146105c3573360405163118cdaa760e01b81526004016107ae9190610c7c565b600580546001600160a01b038381166001600160a01b0319831681179093556040519116919082907f8be0079c531659141344cd1fd0a4f28419497f9722a3daafe3b4186f6b6457e090600090a35050565b6001600160a01b03841661099d57600060405163e602df0560e01b81526004016107ae9190610c7c565b6001600160a01b0383166109c7576000604051634a1406b160e11b81526004016107ae9190610c7c565b6001600160a01b038085166000908152600160209081526040808320938716835292905220829055801561085957826001600160a01b0316846001600160a01b03167f8c5be1e5ebec7d5bd14f71427d1e84f3dd0314c0f7b2291e5b200ac8c7c3b92584604051610a3a91815260200190565b60405180910390a350505050565b6001600160a01b038316610a73578060026000828254610a689190610df9565b90915550610ad29050565b6001600160a01b03831660009081526020819052604090205481811015610ab35783818360405163391434e360e21b81526004016107ae93929190610e0c565b6001600160a01b03841660009081526020819052604090209082900390555b6001600160a01b038216610aee57600280548290039055610b0d565b6001600160a01b03821660009081526020819052604090208054820190555b816001600160a01b0316836001600160a01b03167fddf252ad1be2c89b69c2b068fc378daa952ba7f163c4a11628f55a4df523b3ef83604051610b5291815260200190565b60405180910390a3505050565b600060208284031215610b7157600080fd5b81356001600160e01b031981168114610b8957600080fd5b9392505050565b602081526000825180602084015260005b81811015610bbe5760208186018101516040868401015201610ba1565b506000604082850101526040601f19601f83011684010191505092915050565b80356001600160a01b0381168114610bf557600080fd5b919050565b60008060408385031215610c0d57600080fd5b610c1683610bde565b946020939093013593505050565b600080600060608486031215610c3957600080fd5b610c4284610bde565b9250610c5060208501610bde565b929592945050506040919091013590565b600060208284031215610c7357600080fd5b610b8982610bde565b6001600160a01b0391909116815260200190565b60008083601f840112610ca257600080fd5b50813567ffffffffffffffff811115610cba57600080fd5b6020830191508360208260051b8501011115610cd557600080fd5b9250929050565b60008060008060408587031215610cf257600080fd5b843567ffffffffffffffff811115610d0957600080fd5b610d1587828801610c90565b909550935050602085013567ffffffffffffffff811115610d3557600080fd5b610d4187828801610c90565b95989497509550505050565b60008060408385031215610d6057600080fd5b610d6983610bde565b9150610d7760208401610bde565b90509250929050565b600181811c90821680610d9457607f821691505b602082108103610db457634e487b7160e01b600052602260045260246000fd5b50919050565b634e487b7160e01b600052601160045260246000fd5b8181038181111561034057610340610dba565b634e487b7160e01b600052603260045260246000fd5b8082018082111561034057610340610dba565b6001600160a01b03939093168352602083019190915260408201526060019056fea2646970667358221220d56b078f8c6ca0844c59855d4bde10ffa46f0aa6252a952bc4e1c9af3e290c9f64736f6c634300081d0033",
  "linkReferences": {},
  "deployedLinkReferences": {}
}