{
  "_format": "hh-sol-artifact-1",
  "contractName": "SuperchainPoints",
  "sourceName": "contracts/SuperchainPoints.sol",
  "abi": [
    {
      "inputs": [
        {
          "internalType": "address",
          "name": "owner",
          "type": "address"
        },
        {
          "internalType": "string",
          "name": "name",
          "type": "string"
        },
        {
          "internalType": "string",
          "name": "symbol",
          "type": "string"
        }
      ],
      "stateMutability": "nonpayable",
      "type": "constructor"
    },
    {
      "inputs": [
        {
          "internalType": "address",
          "name": "spender",
          "type": "address"
        },
        {
          "internalType": "uint256",
          "name": "allowance",
          "type": "uint256"
        },
        {
          "internalType": "uint256",
          "name": "needed",
          "type": "uint256"
        }
      ],
      "name": "ERC20InsufficientAllowance",
      "type": "error"
    },
    {
      "inputs": [
        {
          "internalType": "address",
          "name": "sender",
          "type": "address"
        },
        {
          "internalType": "uint256",
          "name": "balance",
          "type": "uint256"
        },
        {
          "internalType": "uint256",
          "name": "needed",
          "type": "uint256"
        }
      ],
      "name": "ERC20InsufficientBalance",
      "type": "error"
    },
    {
      "inputs": [
        {
          "internalType": "address",
          "name": "approver",
          "type": "address"
        }
      ],
      "name": "ERC20InvalidApprover",
      "type": "error"
    },
    {
      "inputs": [
        {
          "internalType": "address",
          "name": "receiver",
          "type": "address"
        }
      ],
      "name": "ERC20InvalidReceiver",
      "type": "error"
    },
    {
      "inputs": [
        {
          "internalType": "address",
          "name": "sender",
          "type": "address"
        }
      ],
      "name": "ERC20InvalidSender",
      "type": "error"
    },
    {
      "inputs": [
        {
          "internalType": "address",
          "name": "spender",
          "type": "address"
        }
      ],
      "name": "ERC20InvalidSpender",
      "type": "error"
    },
    {
      "inputs": [],
      "name": "LengthMismatch",
      "type": "error"
    },
    {
      "inputs": [],
      "name": "NothingToClaim",
      "type": "error"
    },
    {
      "inputs": [
        {
          "internalType": "address",
          "name": "owner",
          "type": "address"
        }
      ],
      "name": "OwnableInvalidOwner",
      "type": "error"
    },
    {
      "inputs": [
        {
          "internalType": "address",
          "name": "account",
          "type": "address"
        }
      ],
      "name": "OwnableUnauthorizedAccount",
      "type": "error"
    },
    {
      "inputs": [],
      "name": "Unauthorized",
      "type": "error"
    },
    {
      "anonymous": false,
      "inputs": [
        {
          "indexed": true,
          "internalType": "address",
          "name": "owner",
          "type": "address"
        },
        {
          "indexed": true,
          "internalType": "address",
          "name": "spender",
          "type": "address"
        },
        {
          "indexed": false,
          "internalType": "uint256",
          "name": "value",
          "type": "uint256"
        }
      ],
      "name": "Approval",
      "type": "event"
    },
    {
      "anonymous": false,
      "inputs": [
        {
          "indexed": false,
          "internalType": "address",
          "name": "account",
          "type": "address"
        },
        {
          "indexed": false,
          "internalType": "uint256",
          "name": "amount",
          "type": "uint256"
        }
      ],
      "name": "Claimed",
      "type": "event"
    },
    {
      "anonymous": false,
      "inputs": [
        {
          "indexed": true,
          "internalType": "address",
          "name": "from",
          "type": "address"
        },
        {
          "indexed": false,
          "internalType": "uint256",
          "name": "amount",
          "type": "uint256"
        },
        {
          "indexed": true,
          "internalType": "address",
          "name": "sender",
          "type": "address"
        }
      ],
      "name": "CrosschainBurn",
      "type": "event"
    },
    {
      "anonymous": false,
      "inputs": [
        {
          "indexed": true,
          "internalType": "address",
          "name": "to",
          "type": "address"
        },
        {
          "indexed": false,
          "internalType": "uint256",
          "name": "amount",
          "type": "uint256"
        },
        {
          "indexed": true,
          "internalType": "address",
          "name": "sender",
          "type": "address"
        }
      ],
      "name": "CrosschainMint",
      "type": "event"
    },
    {
      "anonymous": false,
      "inputs": [
        {
          "indexed": true,
          "internalType": "address",
          "name": "previousOwner",
          "type": "address"
        },
        {
          "indexed": true,
          "internalType": "address",
          "name": "newOwner",
          "type": "address"
        }
      ],
      "name": "OwnershipTransferred",
      "type": "event"
    },
    {
      "anonymous": false,
      "inputs": [
        {
          "indexed": false,
          "internalType": "address",
          "name": "account",
          "type": "address"
        },
        {
          "indexed": false,
          "internalType": "uint256",
          "name": "amount",
          "type": "uint256"
        }
      ],
      "name": "TokensAdded",
      "type": "event"
    },
    {
      "anonymous": false,
      "inputs": [
        {
          "indexed": true,
          "internalType": "address",
          "name": "from",
          "type": "address"
        },
        {
          "indexed": true,
          "internalType": "address",
          "name": "to",
          "type": "address"
        },
        {
          "indexed": false,
          "internalType": "uint256",
          "name": "value",
          "type": "uint256"
        }
      ],
      "name": "Transfer",
      "type": "event"
    },
    {
      "inputs": [
        {
          "internalType": "address[]",
          "name": "users",
          "type": "address[]"
        },
        {
          "internalType": "uint256[]",
          "name": "amounts",
          "type": "uint256[]"
        }
      ],
      "name": "addClaimable",
      "outputs": [],
      "stateMutability": "nonpayable",
      "type": "function"
    },
    {
      "inputs": [
        {
          "internalType": "address",
          "name": "owner",
          "type": "address"
        },
        {
          "internalType": "address",
          "name": "spender",
          "type": "address"
        }
      ],
      "name": "allowance",
      "outputs": [
        {
          "internalType": "uint256",
          "name": "",
          "type": "uint256"
        }
      ],
      "stateMutability": "view",
      "type": "function"
    },
    {
      "inputs": [
        {
          "internalType": "address",
          "name": "spender",
          "type": "address"
        },
        {
          "internalType": "uint256",
          "name": "value",
          "type": "uint256"
        }
      ],
      "name": "approve",
      "outputs": [
        {
          "internalType": "bool",
          "name": "",
          "type": "bool"
        }
      ],
      "stateMutability": "nonpayable",
      "type": "function"
    },
    {
      "inputs": [
        {
          "internalType": "address",
          "name": "account",
          "type": "address"
        }
      ],
      "name": "balanceOf",
      "outputs": [
        {
          "internalType": "uint256",
          "name": "",
          "type": "uint256"
        }
      ],
      "stateMutability": "view",
      "type": "function"
    },
    {
      "inputs": [],
      "name": "claim",
      "outputs": [],
      "stateMutability": "nonpayable",
      "type": "function"
    },
    {
      "inputs": [
        {
          "internalType": "address",
          "name": "_from",
          "type": "address"
        },
        {
          "internalType": "uint256",
          "name": "_amount",
          "type": "uint256"
        }
      ],
      "name": "crosschainBurn",
      "outputs": [],
      "stateMutability": "nonpayable",
      "type": "function"
    },
    {
      "inputs": [
        {
          "internalType": "address",
          "name": "_to",
          "type": "address"
        },
        {
          "internalType": "uint256",
          "name": "_amount",
          "type": "uint256"
        }
      ],
      "name": "crosschainMint",
      "outputs": [],
      "stateMutability": "nonpayable",
      "type": "function"
    },
    {
      "inputs": [],
      "name": "decimals",
      "outputs": [
        {
          "internalType": "uint8",
          "name": "",
          "type": "uint8"
        }
      ],
      "stateMutability": "view",
      "type": "function"
    },
    {
      "inputs": [
        {
          "internalType": "address",
          "name": "user",
          "type": "address"
        }
      ],
      "name": "getClaimable",
      "outputs": [
        {
          "internalType": "uint256",
          "name": "",
          "type": "uint256"
        }
      ],
      "stateMutability": "view",
      "type": "function"
    },
    {
      "inputs": [
        {
          "internalType": "address",
          "name": "to",
          "type": "address"
        },
        {
          "internalType": "uint256",
          "name": "amount",
          "type": "uint256"
        }
      ],
      "name": "mint",
      "outputs": [],
      "stateMutability": "nonpayable",
      "type": "function"
    },
    {
      "inputs": [],
      "name": "name",
      "outputs": [
        {
          "internalType": "string",
          "name": "",
          "type": "string"
        }
      ],
      "stateMutability": "view",
      "type": "function"
    },
    {
      "inputs": [],
      "name": "owner",
      "outputs": [
        {
          "internalType": "address",
          "name": "",
          "type": "address"
        }
      ],
      "stateMutability": "view",
      "type": "function"
    },
    {
      "inputs": [],
      "name": "renounceOwnership",
      "outputs": [],
      "stateMutability": "nonpayable",
      "type": "function"
    },
    {
      "inputs": [
        {
          "internalType": "bytes4",
          "name": "_interfaceId",
          "type": "bytes4"
        }
      ],
      "name": "supportsInterface",
      "outputs": [
        {
          "internalType": "bool",
          "name": "",
          "type": "bool"
        }
      ],
      "stateMutability": "view",
      "type": "function"
    },
    {
      "inputs": [],
      "name": "symbol",
      "outputs": [
        {
          "internalType": "string",
          "name": "",
          "type": "string"
        }
      ],
      "stateMutability": "view",
      "type": "function"
    },
    {
      "inputs": [],
      "name": "totalSupply",
      "outputs": [
        {
          "internalType": "uint256",
          "name": "",
          "type": "uint256"
        }
      ],
      "stateMutability": "view",
      "type": "function"
    },
    {
      "inputs": [
        {
          "internalType": "address",
          "name": "to",
          "type": "address"
        },
        {
          "internalType": "uint256",
          "name": "value",
          "type": "uint256"
        }
      ],
      "name": "transfer",
      "outputs": [
        {
          "internalType": "bool",
          "name": "",
          "type": "bool"
        }
      ],
      "stateMutability": "nonpayable",
      "type": "function"
    },
    {
      "inputs": [
        {
          "internalType": "address",
          "name": "from",
          "type": "address"
        },
        {
          "internalType": "address",
          "name": "to",
          "type": "address"
        },
        {
          "internalType": "uint256",
          "name": "value",
          "type": "uint256"
        }
      ],
      "name": "transferFrom",
      "outputs": [
        {
          "internalType": "bool",
          "name": "",
          "type": "bool"
        }
      ],
      "stateMutability": "nonpayable",
      "type": "function"
    },
    {
      "inputs": [
        {
          "internalType": "address",
          "name": "newOwner",
          "type": "address"
        }
      ],
      "name": "transferOwnership",
      "outputs": [],
      "stateMutability": "nonpayable",
      "type": "function"
    }
  ],
  "bytecode": "0x608060405234801561001057600080fd5b5060405161117438038061117483398101604081905261002f91610199565b828282600361003e83826102aa565b50600461004b82826102aa565b5050506001600160a01b03811661007c57604051631e4fbdf760e01b81526000600482015260240160405180910390fd5b6100858161008e565b50505050610368565b600580546001600160a01b038381166001600160a01b0319831681179093556040519116919082907f8be0079c531659141344cd1fd0a4f28419497f9722a3daafe3b4186f6b6457e090600090a35050565b634e487b7160e01b600052604160045260246000fd5b600082601f83011261010757600080fd5b81516001600160401b03811115610120576101206100e0565b604051601f8201601f19908116603f011681016001600160401b038111828210171561014e5761014e6100e0565b60405281815283820160200185101561016657600080fd5b60005b8281101561018557602081860181015183830182015201610169565b506000918101602001919091529392505050565b6000806000606084860312156101ae57600080fd5b83516001600160a01b03811681146101c557600080fd5b60208501519093506001600160401b038111156101e157600080fd5b6101ed868287016100f6565b604086015190935090506001600160401b0381111561020b57600080fd5b610217868287016100f6565b9150509250925092565b600181811c9082168061023557607f821691505b60208210810361025557634e487b7160e01b600052602260045260246000fd5b50919050565b601f8211156102a557806000526020600020601f840160051c810160208510156102825750805b601f840160051c820191505b818110156102a2576000815560010161028e565b50505b505050565b81516001600160401b038111156102c3576102c36100e0565b6102d7816102d18454610221565b8461025b565b6020601f82116001811461030b57600083156102f35750848201515b600019600385901b1c1916600184901b1784556102a2565b600084815260208120601f198516915b8281101561033b578785015182556020948501946001909201910161031b565b50848210156103595786840151600019600387901b60f8161c191681555b50505050600190811b01905550565b610dfd806103776000396000f3fe608060405234801561001057600080fd5b50600436106101115760003560e01c80634e71d92d116100ad5780639bdd8013116100715780639bdd80131461022f578063a583024b14610242578063a9059cbb14610255578063dd62ed3e14610268578063f2fde38b1461027b57600080fd5b80634e71d92d146101d557806370a08231146101dd578063715018a6146102065780638da5cb5b1461020e57806395d89b411461022757600080fd5b806301ffc9a71461011657806306fdde031461013e578063095ea7b31461015357806318160ddd1461016657806318bf50771461017857806323b872dd1461018d5780632b8c49e3146101a0578063313ce567146101b357806340c10f19146101c2575b600080fd5b610129610124366004610af9565b61028e565b60405190151581526020015b60405180910390f35b6101466102e0565b6040516101359190610b2a565b610129610161366004610b94565b610372565b6002545b604051908152602001610135565b61018b610186366004610b94565b61038a565b005b61012961019b366004610bbe565b6103ff565b61018b6101ae366004610b94565b610423565b60405160128152602001610135565b61018b6101d0366004610b94565b610490565b61018b6104a6565b61016a6101eb366004610bfb565b6001600160a01b031660009081526020819052604090205490565b61018b61054b565b6005546001600160a01b03166040516101359190610c16565b61014661055f565b61018b61023d366004610c76565b61056e565b61016a610250366004610bfb565b6106af565b610129610263366004610b94565b6106dd565b61016a610276366004610ce7565b6106eb565b61018b610289366004610bfb565b610716565b60006001600160e01b03198216630cccc66560e21b14806102bf57506001600160e01b031982166336372b0760e01b145b806102da57506001600160e01b031982166301ffc9a760e01b145b92915050565b6060600380546102ef90610d1a565b80601f016020809104026020016040519081016040528092919081815260200182805461031b90610d1a565b80156103685780601f1061033d57610100808354040283529160200191610368565b820191906000526020600020905b81548152906001019060200180831161034b57829003601f168201915b5050505050905090565b60003361038081858561075d565b5060019392505050565b336028602160991b01146103b0576040516282b42960e81b815260040160405180910390fd5b6103ba828261076f565b60405181815233906001600160a01b038416907fde22baff038e3a3e08407cbdf617deed74e869a7ba517df611e33131c6e6ea04906020015b60405180910390a35050565b60003361040d8582856107a5565b6104188585856107f9565b506001949350505050565b336028602160991b0114610449576040516282b42960e81b815260040160405180910390fd5b6104538282610858565b60405181815233906001600160a01b038416907fb90795a66650155983e242cac3e1ac1a4dc26f8ed2987f3ce416a34e00111fd4906020016103f3565b61049861088e565b6104a2828261076f565b5050565b336000908152600660209081526040808320546007909252909120548082116104e2576040516312d37ee560e31b815260040160405180910390fd5b60006104ee8284610d6a565b33600081815260076020526040902085905590915061050d908261076f565b60408051338152602081018390527fd8138f8a3f377c5259ca548e70e4c2de94f129f5a11036a15b69513cba2b426a910160405180910390a1505050565b61055361088e565b61055d60006108bb565b565b6060600480546102ef90610d1a565b61057661088e565b828114610599576040516001621398b960e31b0319815260040160405180910390fd5b60005b838110156106a8578282828181106105b6576105b6610d7d565b90506020020135600660008787858181106105d3576105d3610d7d565b90506020020160208101906105e89190610bfb565b6001600160a01b03166001600160a01b0316815260200190815260200160002060008282546106179190610d93565b909155507f0eaac1064ee8d13f83091f388597ffb5ff2d2e59f6a16aae2a74ba7f2d13c8d9905085858381811061065057610650610d7d565b90506020020160208101906106659190610bfb565b84848481811061067757610677610d7d565b604080516001600160a01b0390951685526020918202939093013590840152500160405180910390a160010161059c565b5050505050565b6001600160a01b03811660009081526007602090815260408083205460069092528220546102da9190610d6a565b6000336103808185856107f9565b6001600160a01b03918216600090815260016020908152604080832093909416825291909152205490565b61071e61088e565b6001600160a01b038116610751576000604051631e4fbdf760e01b81526004016107489190610c16565b60405180910390fd5b61075a816108bb565b50565b61076a838383600161090d565b505050565b6001600160a01b03821661079957600060405163ec442f0560e01b81526004016107489190610c16565b6104a2600083836109e2565b60006107b184846106eb565b90506000198110156107f357818110156107e457828183604051637dc7a0d960e11b815260040161074893929190610da6565b6107f38484848403600061090d565b50505050565b6001600160a01b038316610823576000604051634b637e8f60e11b81526004016107489190610c16565b6001600160a01b03821661084d57600060405163ec442f0560e01b81526004016107489190610c16565b61076a8383836109e2565b6001600160a01b038216610882576000604051634b637e8f60e11b81526004016107489190610c16565b6104a2826000836109e2565b6005546001600160a01b0316331461055d573360405163118cdaa760e01b81526004016107489190610c16565b600580546001600160a01b038381166001600160a01b0319831681179093556040519116919082907f8be0079c531659141344cd1fd0a4f28419497f9722a3daafe3b4186f6b6457e090600090a35050565b6001600160a01b03841661093757600060405163e602df0560e01b81526004016107489190610c16565b6001600160a01b038316610961576000604051634a1406b160e11b81526004016107489190610c16565b6001600160a01b03808516600090815260016020908152604080832093871683529290522082905580156107f357826001600160a01b0316846001600160a01b03167f8c5be1e5ebec7d5bd14f71427d1e84f3dd0314c0f7b2291e5b200ac8c7c3b925846040516109d491815260200190565b60405180910390a350505050565b6001600160a01b038316610a0d578060026000828254610a029190610d93565b90915550610a6c9050565b6001600160a01b03831660009081526020819052604090205481811015610a4d5783818360405163391434e360e21b815260040161074893929190610da6565b6001600160a01b03841660009081526020819052604090209082900390555b6001600160a01b038216610a8857600280548290039055610aa7565b6001600160a01b03821660009081526020819052604090208054820190555b816001600160a01b0316836001600160a01b03167fddf252ad1be2c89b69c2b068fc378daa952ba7f163c4a11628f55a4df523b3ef83604051610aec91815260200190565b60405180910390a3505050565b600060208284031215610b0b57600080fd5b81356001600160e01b031981168114610b2357600080fd5b9392505050565b602081526000825180602084015260005b81811015610b585760208186018101516040868401015201610b3b565b506000604082850101526040601f19601f83011684010191505092915050565b80356001600160a01b0381168114610b8f57600080fd5b919050565b60008060408385031215610ba757600080fd5b610bb083610b78565b946020939093013593505050565b600080600060608486031215610bd357600080fd5b610bdc84610b78565b9250610bea60208501610b78565b929592945050506040919091013590565b600060208284031215610c0d57600080fd5b610b2382610b78565b6001600160a01b0391909116815260200190565b60008083601f840112610c3c57600080fd5b50813567ffffffffffffffff811115610c5457600080fd5b6020830191508360208260051b8501011115610c6f57600080fd5b9250929050565b60008060008060408587031215610c8c57600080fd5b843567ffffffffffffffff811115610ca357600080fd5b610caf87828801610c2a565b909550935050602085013567ffffffffffffffff811115610ccf57600080fd5b610cdb87828801610c2a565b95989497509550505050565b60008060408385031215610cfa57600080fd5b610d0383610b78565b9150610d1160208401610b78565b90509250929050565b600181811c90821680610d2e57607f821691505b602082108103610d4e57634e487b7160e01b600052602260045260246000fd5b50919050565b634e487b7160e01b600052601160045260246000fd5b818103818111156102da576102da610d54565b634e487b7160e01b600052603260045260246000fd5b808201808211156102da576102da610d54565b6001600160a01b03939093168352602083019190915260408201526060019056fea2646970667358221220feea5aa62e496eeca7460f830e69c2fd6875d66214e46568fd57cace7dc49ebb64736f6c634300081d0033",
  "linkReferences": {},
  "deployedLinkReferences": {}
}