{
  "_format": "hh-sol-artifact-1",
  "contractName": "SuperchainBadges",
  "sourceName": "contracts/SuperchainBadges.sol",
  "abi": [
    {
      "inputs": [
        {
          "internalType": "address",
          "name": "initialOwner",
          "type": "address"
        }
      ],
      "stateMutability": "nonpayable",
      "type": "constructor"
    },
    {
      "inputs": [
        {
          "internalType": "address",
          "name": "",
          "type": "address"
        },
        {
          "internalType": "uint256",
          "name": "",
          "type": "uint256"
        }
      ],
      "name": "BadgeAlreadyClaimed",
      "type": "error"
    },
    {
      "inputs": [
        {
          "internalType": "address",
          "name": "sender",
          "type": "address"
        },
        {
          "internalType": "uint256",
          "name": "balance",
          "type": "uint256"
        },
        {
          "internalType": "uint256",
          "name": "needed",
          "type": "uint256"
        },
        {
          "internalType": "uint256",
          "name": "tokenId",
          "type": "uint256"
        }
      ],
      "name": "ERC1155InsufficientBalance",
      "type": "error"
    },
    {
      "inputs": [
        {
          "internalType": "address",
          "name": "approver",
          "type": "address"
        }
      ],
      "name": "ERC1155InvalidApprover",
      "type": "error"
    },
    {
      "inputs": [
        {
          "internalType": "uint256",
          "name": "idsLength",
          "type": "uint256"
        },
        {
          "internalType": "uint256",
          "name": "valuesLength",
          "type": "uint256"
        }
      ],
      "name": "ERC1155InvalidArrayLength",
      "type": "error"
    },
    {
      "inputs": [
        {
          "internalType": "address",
          "name": "operator",
          "type": "address"
        }
      ],
      "name": "ERC1155InvalidOperator",
      "type": "error"
    },
    {
      "inputs": [
        {
          "internalType": "address",
          "name": "receiver",
          "type": "address"
        }
      ],
      "name": "ERC1155InvalidReceiver",
      "type": "error"
    },
    {
      "inputs": [
        {
          "internalType": "address",
          "name": "sender",
          "type": "address"
        }
      ],
      "name": "ERC1155InvalidSender",
      "type": "error"
    },
    {
      "inputs": [
        {
          "internalType": "address",
          "name": "operator",
          "type": "address"
        },
        {
          "internalType": "address",
          "name": "owner",
          "type": "address"
        }
      ],
      "name": "ERC1155MissingApprovalForAll",
      "type": "error"
    },
    {
      "inputs": [
        {
          "internalType": "uint256",
          "name": "",
          "type": "uint256"
        }
      ],
      "name": "NotEligible",
      "type": "error"
    },
    {
      "inputs": [
        {
          "internalType": "address",
          "name": "owner",
          "type": "address"
        }
      ],
      "name": "OwnableInvalidOwner",
      "type": "error"
    },
    {
      "inputs": [
        {
          "internalType": "address",
          "name": "account",
          "type": "address"
        }
      ],
      "name": "OwnableUnauthorizedAccount",
      "type": "error"
    },
    {
      "inputs": [],
      "name": "SoulBoundNonTransferable",
      "type": "error"
    },
    {
      "anonymous": false,
      "inputs": [
        {
          "indexed": true,
          "internalType": "address",
          "name": "account",
          "type": "address"
        },
        {
          "indexed": true,
          "internalType": "address",
          "name": "operator",
          "type": "address"
        },
        {
          "indexed": false,
          "internalType": "bool",
          "name": "approved",
          "type": "bool"
        }
      ],
      "name": "ApprovalForAll",
      "type": "event"
    },
    {
      "anonymous": false,
      "inputs": [
        {
          "indexed": false,
          "internalType": "address",
          "name": "",
          "type": "address"
        },
        {
          "indexed": false,
          "internalType": "uint256",
          "name": "",
          "type": "uint256"
        }
      ],
      "name": "Claimable",
      "type": "event"
    },
    {
      "anonymous": false,
      "inputs": [
        {
          "indexed": false,
          "internalType": "address",
          "name": "",
          "type": "address"
        },
        {
          "indexed": false,
          "internalType": "uint256",
          "name": "",
          "type": "uint256"
        }
      ],
      "name": "Claimed",
      "type": "event"
    },
    {
      "anonymous": false,
      "inputs": [
        {
          "indexed": true,
          "internalType": "address",
          "name": "previousOwner",
          "type": "address"
        },
        {
          "indexed": true,
          "internalType": "address",
          "name": "newOwner",
          "type": "address"
        }
      ],
      "name": "OwnershipTransferred",
      "type": "event"
    },
    {
      "anonymous": false,
      "inputs": [
        {
          "indexed": true,
          "internalType": "address",
          "name": "operator",
          "type": "address"
        },
        {
          "indexed": true,
          "internalType": "address",
          "name": "from",
          "type": "address"
        },
        {
          "indexed": true,
          "internalType": "address",
          "name": "to",
          "type": "address"
        },
        {
          "indexed": false,
          "internalType": "uint256[]",
          "name": "ids",
          "type": "uint256[]"
        },
        {
          "indexed": false,
          "internalType": "uint256[]",
          "name": "values",
          "type": "uint256[]"
        }
      ],
      "name": "TransferBatch",
      "type": "event"
    },
    {
      "anonymous": false,
      "inputs": [
        {
          "indexed": true,
          "internalType": "address",
          "name": "operator",
          "type": "address"
        },
        {
          "indexed": true,
          "internalType": "address",
          "name": "from",
          "type": "address"
        },
        {
          "indexed": true,
          "internalType": "address",
          "name": "to",
          "type": "address"
        },
        {
          "indexed": false,
          "internalType": "uint256",
          "name": "id",
          "type": "uint256"
        },
        {
          "indexed": false,
          "internalType": "uint256",
          "name": "value",
          "type": "uint256"
        }
      ],
      "name": "TransferSingle",
      "type": "event"
    },
    {
      "anonymous": false,
      "inputs": [
        {
          "indexed": false,
          "internalType": "string",
          "name": "value",
          "type": "string"
        },
        {
          "indexed": true,
          "internalType": "uint256",
          "name": "id",
          "type": "uint256"
        }
      ],
      "name": "URI",
      "type": "event"
    },
    {
      "inputs": [
        {
          "internalType": "address[]",
          "name": "allocations",
          "type": "address[]"
        },
        {
          "internalType": "uint256[]",
          "name": "tokenIds",
          "type": "uint256[]"
        }
      ],
      "name": "addClaimable",
      "outputs": [],
      "stateMutability": "nonpayable",
      "type": "function"
    },
    {
      "inputs": [
        {
          "internalType": "address",
          "name": "account",
          "type": "address"
        },
        {
          "internalType": "uint256",
          "name": "id",
          "type": "uint256"
        }
      ],
      "name": "balanceOf",
      "outputs": [
        {
          "internalType": "uint256",
          "name": "",
          "type": "uint256"
        }
      ],
      "stateMutability": "view",
      "type": "function"
    },
    {
      "inputs": [
        {
          "internalType": "address[]",
          "name": "accounts",
          "type": "address[]"
        },
        {
          "internalType": "uint256[]",
          "name": "ids",
          "type": "uint256[]"
        }
      ],
      "name": "balanceOfBatch",
      "outputs": [
        {
          "internalType": "uint256[]",
          "name": "",
          "type": "uint256[]"
        }
      ],
      "stateMutability": "view",
      "type": "function"
    },
    {
      "inputs": [
        {
          "internalType": "uint256",
          "name": "tokenId",
          "type": "uint256"
        }
      ],
      "name": "claim",
      "outputs": [],
      "stateMutability": "nonpayable",
      "type": "function"
    },
    {
      "inputs": [
        {
          "internalType": "address",
          "name": "account",
          "type": "address"
        }
      ],
      "name": "getClaimable",
      "outputs": [
        {
          "internalType": "uint256[]",
          "name": "",
          "type": "uint256[]"
        }
      ],
      "stateMutability": "view",
      "type": "function"
    },
    {
      "inputs": [
        {
          "internalType": "address",
          "name": "account",
          "type": "address"
        },
        {
          "internalType": "address",
          "name": "operator",
          "type": "address"
        }
      ],
      "name": "isApprovedForAll",
      "outputs": [
        {
          "internalType": "bool",
          "name": "",
          "type": "bool"
        }
      ],
      "stateMutability": "view",
      "type": "function"
    },
    {
      "inputs": [
        {
          "internalType": "address",
          "name": "account",
          "type": "address"
        },
        {
          "internalType": "uint256",
          "name": "id",
          "type": "uint256"
        }
      ],
      "name": "mint",
      "outputs": [],
      "stateMutability": "nonpayable",
      "type": "function"
    },
    {
      "inputs": [],
      "name": "owner",
      "outputs": [
        {
          "internalType": "address",
          "name": "",
          "type": "address"
        }
      ],
      "stateMutability": "view",
      "type": "function"
    },
    {
      "inputs": [],
      "name": "renounceOwnership",
      "outputs": [],
      "stateMutability": "nonpayable",
      "type": "function"
    },
    {
      "inputs": [
        {
          "internalType": "address",
          "name": "",
          "type": "address"
        },
        {
          "internalType": "address",
          "name": "",
          "type": "address"
        },
        {
          "internalType": "uint256[]",
          "name": "",
          "type": "uint256[]"
        },
        {
          "internalType": "uint256[]",
          "name": "",
          "type": "uint256[]"
        },
        {
          "internalType": "bytes",
          "name": "",
          "type": "bytes"
        }
      ],
      "name": "safeBatchTransferFrom",
      "outputs": [],
      "stateMutability": "pure",
      "type": "function"
    },
    {
      "inputs": [
        {
          "internalType": "address",
          "name": "",
          "type": "address"
        },
        {
          "internalType": "address",
          "name": "",
          "type": "address"
        },
        {
          "internalType": "uint256",
          "name": "",
          "type": "uint256"
        },
        {
          "internalType": "uint256",
          "name": "",
          "type": "uint256"
        },
        {
          "internalType": "bytes",
          "name": "",
          "type": "bytes"
        }
      ],
      "name": "safeTransferFrom",
      "outputs": [],
      "stateMutability": "pure",
      "type": "function"
    },
    {
      "inputs": [
        {
          "internalType": "address",
          "name": "operator",
          "type": "address"
        },
        {
          "internalType": "bool",
          "name": "approved",
          "type": "bool"
        }
      ],
      "name": "setApprovalForAll",
      "outputs": [],
      "stateMutability": "nonpayable",
      "type": "function"
    },
    {
      "inputs": [
        {
          "internalType": "uint256",
          "name": "tokenId",
          "type": "uint256"
        },
        {
          "internalType": "string",
          "name": "newUri",
          "type": "string"
        }
      ],
      "name": "setURI",
      "outputs": [],
      "stateMutability": "nonpayable",
      "type": "function"
    },
    {
      "inputs": [
        {
          "internalType": "bytes4",
          "name": "interfaceId",
          "type": "bytes4"
        }
      ],
      "name": "supportsInterface",
      "outputs": [
        {
          "internalType": "bool",
          "name": "",
          "type": "bool"
        }
      ],
      "stateMutability": "view",
      "type": "function"
    },
    {
      "inputs": [
        {
          "internalType": "address",
          "name": "newOwner",
          "type": "address"
        }
      ],
      "name": "transferOwnership",
      "outputs": [],
      "stateMutability": "nonpayable",
      "type": "function"
    },
    {
      "inputs": [
        {
          "internalType": "uint256",
          "name": "tokenId",
          "type": "uint256"
        }
      ],
      "name": "uri",
      "outputs": [
        {
          "internalType": "string",
          "name": "",
          "type": "string"
        }
      ],
      "stateMutability": "view",
      "type": "function"
    }
  ],
  "bytecode": "0x608060405234801561001057600080fd5b50604051611a25380380611a2583398101604081905261002f916100ea565b604080516020810190915260008152819061004981610088565b506001600160a01b03811661007857604051631e4fbdf760e01b81526000600482015260240160405180910390fd5b61008181610098565b5050610277565b600261009482826101b9565b5050565b600380546001600160a01b038381166001600160a01b0319831681179093556040519116919082907f8be0079c531659141344cd1fd0a4f28419497f9722a3daafe3b4186f6b6457e090600090a35050565b6000602082840312156100fc57600080fd5b81516001600160a01b038116811461011357600080fd5b9392505050565b634e487b7160e01b600052604160045260246000fd5b600181811c9082168061014457607f821691505b60208210810361016457634e487b7160e01b600052602260045260246000fd5b50919050565b601f8211156101b457806000526020600020601f840160051c810160208510156101915750805b601f840160051c820191505b818110156101b1576000815560010161019d565b50505b505050565b81516001600160401b038111156101d2576101d261011a565b6101e6816101e08454610130565b8461016a565b6020601f82116001811461021a57600083156102025750848201515b600019600385901b1c1916600184901b1784556101b1565b600084815260208120601f198516915b8281101561024a578785015182556020948501946001909201910161022a565b50848210156102685786840151600019600387901b60f8161c191681555b50505050600190811b01905550565b61179f806102866000396000f3fe608060405234801561001057600080fd5b50600436106100df5760003560e01c8063862440e211610087578063862440e2146101b05780638da5cb5b146101c35780639bdd8013146101dc578063a22cb465146101ef578063a583024b14610202578063e985e9c514610215578063f242432a14610251578063f2fde38b1461025f57600080fd5b8062fdd58e146100e457806301ffc9a71461010a5780630e89341c1461012d5780632eb2c2d61461014d578063379607f51461016257806340c10f19146101755780634e1273f414610188578063715018a6146101a8575b600080fd5b6100f76100f2366004610f85565b610272565b6040519081526020015b60405180910390f35b61011d610118366004610fc5565b61029a565b6040519015158152602001610101565b61014061013b366004610fe9565b6102ea565b6040516101019190611048565b61016061015b3660046111ac565b61038c565b005b610160610170366004610fe9565b6103a5565b610160610183366004610f85565b610546565b61019b61019636600461125f565b61059c565b6040516101019190611362565b610160610668565b6101606101be366004611375565b61067c565b6003546001600160a01b031660405161010191906113c5565b6101606101ea36600461125f565b6106d9565b6101606101fd3660046113d9565b6108d2565b61019b610210366004611415565b6108dd565b61011d610223366004611430565b6001600160a01b03918216600090815260016020908152604080832093909416825291909152205460ff1690565b61016061015b366004611463565b61016061026d366004611415565b610948565b6000818152602081815260408083206001600160a01b03861684529091529020545b92915050565b60006001600160e01b03198216636cdb3d1360e11b14806102cb57506001600160e01b031982166303a24d0760e21b145b8061029457506301ffc9a760e01b6001600160e01b0319831614610294565b6000818152600460205260409020805460609190610307906114bb565b80601f0160208091040260200160405190810160405280929190818152602001828054610333906114bb565b80156103805780601f1061035557610100808354040283529160200191610380565b820191906000526020600020905b81548152906001019060200180831161036357829003601f168201915b50505050509050919050565b60405163b863d7a560e01b815260040160405180910390fd5b33600090815260066020908152604080832084845290915290205460ff161580156103eb575033600090815260056020908152604080832084845290915290205460ff16155b1561041157604051633514e57560e01b8152600481018290526024015b60405180910390fd5b3360008181526005602090815260408083208584528252808320805460ff1916600117905592825260079052908120905b81548110156104ec578282828154811061045e5761045e6114f5565b9060005260206000200154036104e4578154829061047e90600190611521565b8154811061048e5761048e6114f5565b90600052602060002001548282815481106104ab576104ab6114f5565b9060005260206000200181905550818054806104c9576104c9611534565b600190038181906000526020600020016000905590556104ec565b600101610442565b506105093383600160405180602001604052806000815250610986565b7fd8138f8a3f377c5259ca548e70e4c2de94f129f5a11036a15b69513cba2b426a338360405161053a92919061154a565b60405180910390a15050565b61054e6109eb565b6105588282610272565b60010361057c578181604051630fafe79760e41b815260040161040892919061154a565b6105988282600160405180602001604052806000815250610986565b5050565b606081518351146105cd5781518351604051635b05999160e01b815260048101929092526024820152604401610408565b600083516001600160401b038111156105e8576105e861105b565b604051908082528060200260200182016040528015610611578160200160208202803683370190505b50905060005b84518110156106605760208082028601015161063b90602080840287010151610272565b82828151811061064d5761064d6114f5565b6020908102919091010152600101610617565b509392505050565b6106706109eb565b61067a6000610a18565b565b6106846109eb565b600082815260046020526040902061069c82826115aa565b50817f6bb7ff708619ba0610cba295a58592e0451dee2622938c8755667688daf3529b826040516106cd9190611048565b60405180910390a25050565b6106e16109eb565b60005b82518110156108cd5760066000848381518110610703576107036114f5565b60200260200101516001600160a01b03166001600160a01b03168152602001908152602001600020600083838151811061073f5761073f6114f5565b60209081029190910181015182528101919091526040016000205460ff1615156001146108c55760016006600085848151811061077e5761077e6114f5565b60200260200101516001600160a01b03166001600160a01b0316815260200190815260200160002060008484815181106107ba576107ba6114f5565b6020026020010151815260200190815260200160002060006101000a81548160ff021916908315150217905550600760008483815181106107fd576107fd6114f5565b60200260200101516001600160a01b03166001600160a01b03168152602001908152602001600020828281518110610837576108376114f5565b6020908102919091018101518254600181018455600093845291909220015582517fdec9ebd1283d91d041dc9b5bb471ba4935fb749425f4246a67f426c40c7ec9f89084908390811061088c5761088c6114f5565b60200260200101518383815181106108a6576108a66114f5565b60200260200101516040516108bc92919061154a565b60405180910390a15b6001016106e4565b505050565b610598338383610a6a565b6001600160a01b03811660009081526007602090815260409182902080548351818402810184019094528084526060939283018282801561038057602002820191906000526020600020905b8154815260200190600101908083116109295750505050509050919050565b6109506109eb565b6001600160a01b03811661097a576000604051631e4fbdf760e01b815260040161040891906113c5565b61098381610a18565b50565b6001600160a01b0384166109b0576000604051632bfa23e760e11b815260040161040891906113c5565b604080516001808252602082018690528183019081526060820185905260808201909252906109e3600087848487610b00565b505050505050565b6003546001600160a01b0316331461067a573360405163118cdaa760e01b815260040161040891906113c5565b600380546001600160a01b038381166001600160a01b0319831681179093556040519116919082907f8be0079c531659141344cd1fd0a4f28419497f9722a3daafe3b4186f6b6457e090600090a35050565b6001600160a01b038216610a9357600060405162ced3e160e81b815260040161040891906113c5565b6001600160a01b03838116600081815260016020908152604080832094871680845294825291829020805460ff191686151590811790915591519182527f17307eab39ab6107e8899845ad3d59bd9653f200f220920489ca2b5937696c31910160405180910390a3505050565b610b0c85858585610b5a565b6001600160a01b03841615610b535782513390600103610b455760208481015190840151610b3e838989858589610d6e565b50506109e3565b6109e3818787878787610e89565b5050505050565b8051825114610b895781518151604051635b05999160e01b815260048101929092526024820152604401610408565b3360005b8351811015610c8f576020818102858101820151908501909101516001600160a01b03881615610c40576000828152602081815260408083206001600160a01b038c16845290915290205481811015610c19576040516303dee4c560e01b81526001600160a01b038a166004820152602481018290526044810183905260648101849052608401610408565b6000838152602081815260408083206001600160a01b038d16845290915290209082900390555b6001600160a01b03871615610c85576000828152602081815260408083206001600160a01b038b16845290915281208054839290610c7f908490611668565b90915550505b5050600101610b8d565b508251600103610d105760208301516000906020840151909150856001600160a01b0316876001600160a01b0316846001600160a01b03167fc3d58168c5ae7397731d063d5bbf3d657854427343f4c083240f7aacaa2d0f628585604051610d01929190918252602082015260400190565b60405180910390a45050610b53565b836001600160a01b0316856001600160a01b0316826001600160a01b03167f4a39dc06d4c0dbc64b70af90fd698a233a518aa5d07e595d983b8c0526c8f7fb8686604051610d5f92919061167b565b60405180910390a45050505050565b6001600160a01b0384163b156109e35760405163f23a6e6160e01b81526001600160a01b0385169063f23a6e6190610db290899089908890889088906004016116a9565b6020604051808303816000875af1925050508015610ded575060408051601f3d908101601f19168201909252610dea918101906116ee565b60015b610e4d573d808015610e1b576040519150601f19603f3d011682016040523d82523d6000602084013e610e20565b606091505b508051600003610e455784604051632bfa23e760e11b815260040161040891906113c5565b805181602001fd5b6001600160e01b0319811663f23a6e6160e01b14610e805784604051632bfa23e760e11b815260040161040891906113c5565b50505050505050565b6001600160a01b0384163b156109e35760405163bc197c8160e01b81526001600160a01b0385169063bc197c8190610ecd908990899088908890889060040161170b565b6020604051808303816000875af1925050508015610f08575060408051601f3d908101601f19168201909252610f05918101906116ee565b60015b610f36573d808015610e1b576040519150601f19603f3d011682016040523d82523d6000602084013e610e20565b6001600160e01b0319811663bc197c8160e01b14610e805784604051632bfa23e760e11b815260040161040891906113c5565b80356001600160a01b0381168114610f8057600080fd5b919050565b60008060408385031215610f9857600080fd5b610fa183610f69565b946020939093013593505050565b6001600160e01b03198116811461098357600080fd5b600060208284031215610fd757600080fd5b8135610fe281610faf565b9392505050565b600060208284031215610ffb57600080fd5b5035919050565b6000815180845260005b818110156110285760208185018101518683018201520161100c565b506000602082860101526020601f19601f83011685010191505092915050565b602081526000610fe26020830184611002565b634e487b7160e01b600052604160045260246000fd5b604051601f8201601f191681016001600160401b03811182821017156110995761109961105b565b604052919050565b60006001600160401b038211156110ba576110ba61105b565b5060051b60200190565b600082601f8301126110d557600080fd5b81356110e86110e3826110a1565b611071565b8082825260208201915060208360051b86010192508583111561110a57600080fd5b602085015b8381101561112757803583526020928301920161110f565b5095945050505050565b6000806001600160401b0384111561114b5761114b61105b565b50601f8301601f191660200161116081611071565b91505082815283838301111561117557600080fd5b828260208301376000602084830101529392505050565b600082601f83011261119d57600080fd5b610fe283833560208501611131565b600080600080600060a086880312156111c457600080fd5b6111cd86610f69565b94506111db60208701610f69565b935060408601356001600160401b038111156111f657600080fd5b611202888289016110c4565b93505060608601356001600160401b0381111561121e57600080fd5b61122a888289016110c4565b92505060808601356001600160401b0381111561124657600080fd5b6112528882890161118c565b9150509295509295909350565b6000806040838503121561127257600080fd5b82356001600160401b0381111561128857600080fd5b8301601f8101851361129957600080fd5b80356112a76110e3826110a1565b8082825260208201915060208360051b8501019250878311156112c957600080fd5b6020840193505b828410156112f2576112e184610f69565b8252602093840193909101906112d0565b945050505060208301356001600160401b0381111561131057600080fd5b61131c858286016110c4565b9150509250929050565b600081518084526020840193506020830160005b8281101561135857815186526020958601959091019060010161133a565b5093949350505050565b602081526000610fe26020830184611326565b6000806040838503121561138857600080fd5b8235915060208301356001600160401b038111156113a557600080fd5b8301601f810185136113b657600080fd5b61131c85823560208401611131565b6001600160a01b0391909116815260200190565b600080604083850312156113ec57600080fd5b6113f583610f69565b91506020830135801515811461140a57600080fd5b809150509250929050565b60006020828403121561142757600080fd5b610fe282610f69565b6000806040838503121561144357600080fd5b61144c83610f69565b915061145a60208401610f69565b90509250929050565b600080600080600060a0868803121561147b57600080fd5b61148486610f69565b945061149260208701610f69565b9350604086013592506060860135915060808601356001600160401b0381111561124657600080fd5b600181811c908216806114cf57607f821691505b6020821081036114ef57634e487b7160e01b600052602260045260246000fd5b50919050565b634e487b7160e01b600052603260045260246000fd5b634e487b7160e01b600052601160045260246000fd5b818103818111156102945761029461150b565b634e487b7160e01b600052603160045260246000fd5b6001600160a01b03929092168252602082015260400190565b601f8211156108cd57806000526020600020601f840160051c8101602085101561158a5750805b601f840160051c820191505b81811015610b535760008155600101611596565b81516001600160401b038111156115c3576115c361105b565b6115d7816115d184546114bb565b84611563565b6020601f82116001811461160b57600083156115f35750848201515b600019600385901b1c1916600184901b178455610b53565b600084815260208120601f198516915b8281101561163b578785015182556020948501946001909201910161161b565b50848210156116595786840151600019600387901b60f8161c191681555b50505050600190811b01905550565b808201808211156102945761029461150b565b60408152600061168e6040830185611326565b82810360208401526116a08185611326565b95945050505050565b6001600160a01b03868116825285166020820152604081018490526060810183905260a0608082018190526000906116e390830184611002565b979650505050505050565b60006020828403121561170057600080fd5b8151610fe281610faf565b6001600160a01b0386811682528516602082015260a06040820181905260009061173790830186611326565b82810360608401526117498186611326565b9050828103608084015261175d8185611002565b9897505050505050505056fea2646970667358221220c0bb4d2d081f3da674f972f5780755e9278ad7056b31053517d9804f338f414264736f6c634300081d0033",
  "linkReferences": {},
  "deployedLinkReferences": {}
}