{
  "_format": "hh-sol-artifact-1",
  "contractName": "WakeUpEntryPointSimulations",
  "sourceName": "contracts/mocks/EntryPointSimulations.sol",
  "abi": [
    {
      "inputs": [],
      "stateMutability": "nonpayable",
      "type": "constructor"
    },
    {
      "inputs": [
        {
          "internalType": "address payable",
          "name": "ep",
          "type": "address"
        },
        {
          "internalType": "bytes[]",
          "name": "data",
          "type": "bytes[]"
        }
      ],
      "name": "simulateEntryPoint",
      "outputs": [
        {
          "internalType": "bytes[]",
          "name": "",
          "type": "bytes[]"
        }
      ],
      "stateMutability": "nonpayable",
      "type": "function"
    }
  ],
  "bytecode": "0x6080604052604051600e90605a565b604051809103906000f0801580156029573d6000803e3d6000fd5b50600080546001600160a01b0319166001600160a01b0392909216919091179055348015605557600080fd5b506067565b6144d18061051b83390190565b6104a5806100766000396000f3fe608060405234801561001057600080fd5b506004361061002b5760003560e01c8063c18f522614610030575b600080fd5b61004361003e366004610230565b610059565b60405161005091906103c8565b60405180910390f35b60606000825167ffffffffffffffff811115610077576100776101e9565b6040519080825280602002602001820160405280156100aa57816020015b60608152602001906001900390816100955790505b50905060005b835181101561019d57606060007f850aaf621a3721219c57b79d6077e318862cf95113b5637afaddb124884a5eb060008054906101000a90046001600160a01b03168785815181106101045761010461042d565b602002602001015160405160240161011d929190610443565b60408051601f198184030181529190526020810180516001600160e01b03166001600160e01b0319909316929092179091529050600061015f8882845a6101a5565b905080610174576101716000196101bd565b92505b828585815181106101875761018761042d565b60209081029190910101525050506001016100b0565b509392505050565b6000806000845160208601878987f195945050505050565b60603d828111156101cb5750815b604051602082018101604052818152816000602083013e9392505050565b634e487b7160e01b600052604160045260246000fd5b604051601f8201601f1916810167ffffffffffffffff81118282101715610228576102286101e9565b604052919050565b6000806040838503121561024357600080fd5b82356001600160a01b038116811461025a57600080fd5b9150602083013567ffffffffffffffff81111561027657600080fd5b8301601f8101851361028757600080fd5b803567ffffffffffffffff8111156102a1576102a16101e9565b8060051b6102b1602082016101ff565b918252602081840181019290810190888411156102cd57600080fd5b6020850192505b8383101561037357823567ffffffffffffffff8111156102f357600080fd5b8501603f81018a1361030457600080fd5b602081013567ffffffffffffffff811115610321576103216101e9565b610334601f8201601f19166020016101ff565b8181526040838301018c101561034957600080fd5b816040840160208301376000602083830101528085525050506020820191506020830192506102d4565b80955050505050509250929050565b6000815180845260005b818110156103a85760208185018101518683018201520161038c565b506000602082860101526020601f19601f83011685010191505092915050565b6000602082016020835280845180835260408501915060408160051b86010192506020860160005b8281101561042157603f1987860301845261040c858351610382565b945060209384019391909101906001016103f0565b50929695505050505050565b634e487b7160e01b600052603260045260246000fd5b6001600160a01b038316815260406020820181905260009061046790830184610382565b94935050505056fea2646970667358221220379ef89963e0b12a196beb3bb3b2bb94f0802af7a0f8df448163dbaf7f5e408764736f6c634300081d003360a0604052604051610010906100ec565b604051809103906000f08015801561002c573d6000803e3d6000fd5b506001600160a01b0390811660805260408051808201825260008082528251808401909352808352602080840191825282018390529051600380546001600160a01b0319169190941617909255516004555160055534801561008d57600080fd5b506001600255606443106100e75760405162461bcd60e51b815260206004820152601660248201527f73686f756c64206e6f74206265206465706c6f79656400000000000000000000604482015260640160405180910390fd5b6100f9565b610222806142af83390190565b60805161419e6101116000396000505061419e6000f3fe60806040526004361061012d5760003560e01c8063765e827f116100ab578063b760faf91161006f578063b760faf9146104a6578063bb9fe6bf146104b9578063c23a5cea146104ce578063c3bce009146104ee578063dbed18e01461051b578063fc7e286d1461053b57600080fd5b8063765e827f146103f9578063850aaf6214610419578063957122ab1461043957806397b2dcb9146104595780639b249f691461048657600080fd5b8063205c2878116100f2578063205c28781461021057806322cdde4c1461023057806335567e1a146102505780635287ce12146102b057806370a08231146103c357600080fd5b806242dc531461014257806301ffc9a7146101755780630396cb60146101a55780630bd28e3b146101b85780631b2e01b8146101d857600080fd5b3661013d5761013b336105e3565b005b600080fd5b34801561014e57600080fd5b5061016261015d3660046133b1565b610604565b6040519081526020015b60405180910390f35b34801561018157600080fd5b50610195610190366004613477565b610789565b604051901515815260200161016c565b61013b6101b33660046134a1565b610811565b3480156101c457600080fd5b5061013b6101d33660046134de565b610a91565b3480156101e457600080fd5b506101626101f33660046134f9565b600160209081526000928352604080842090915290825290205481565b34801561021c57600080fd5b5061013b61022b36600461352e565b610ac8565b34801561023c57600080fd5b5061016261024b366004613573565b610c15565b34801561025c57600080fd5b5061016261026b3660046134f9565b6001600160a01b03821660009081526001602090815260408083206001600160c01b038516845290915290819020549082901b67ffffffffffffffff19161792915050565b3480156102bc57600080fd5b5061036d6102cb3660046135a7565b6040805160a081018252600080825260208201819052918101829052606081018290526080810191909152506001600160a01b031660009081526020818152604091829020825160a0810184528154815260019091015460ff811615159282019290925261010082046001600160701b031692810192909252600160781b810463ffffffff166060830152600160981b900465ffffffffffff16608082015290565b60405161016c9190815181526020808301511515908201526040808301516001600160701b03169082015260608083015163ffffffff169082015260809182015165ffffffffffff169181019190915260a00190565b3480156103cf57600080fd5b506101626103de3660046135a7565b6001600160a01b031660009081526020819052604090205490565b34801561040557600080fd5b5061013b610414366004613608565b610c57565b34801561042557600080fd5b5061013b61043436600461365e565b610dd3565b34801561044557600080fd5b5061013b6104543660046136b2565b610e52565b34801561046557600080fd5b50610479610474366004613738565b610f4b565b60405161016c91906137ec565b34801561049257600080fd5b5061013b6104a136600461383b565b61107d565b61013b6104b43660046135a7565b6105e3565b3480156104c557600080fd5b5061013b611128565b3480156104da57600080fd5b5061013b6104e93660046135a7565b61125c565b3480156104fa57600080fd5b5061050e610509366004613573565b61147b565b60405161016c919061387c565b34801561052757600080fd5b5061013b610536366004613608565b611631565b34801561054757600080fd5b506105a06105563660046135a7565b6000602081905290815260409020805460019091015460ff81169061010081046001600160701b031690600160781b810463ffffffff1690600160981b900465ffffffffffff1685565b6040805195865293151560208601526001600160701b039092169284019290925263ffffffff909116606083015265ffffffffffff16608082015260a00161016c565b60015b60058110156105f7576001016105e6565b61060082611a44565b5050565b6000805a90503330146106585760405162461bcd60e51b81526020600482015260176024820152764141393220696e7465726e616c2063616c6c206f6e6c7960481b60448201526064015b60405180910390fd5b8451606081015160a082015181016127100160405a603f028161067d5761067d613950565b0410156106955763deaddead60e01b60005260206000fd5b8751600090156107295760006106b2846000015160008c86611a8d565b9050806107275760006106c6610800611aa5565b8051909150156107215784600001516001600160a01b03168a602001517f1c4fada7374c0a9ee8841fc38afe82932dc0f8e69012e927f061a8bae611a201876020015184604051610718929190613966565b60405180910390a35b60019250505b505b600088608001515a8603019050610779828a8a8a8080601f016020809104026020016040519081016040528093929190818152602001838380828437600092019190915250879250611ad1915050565b955050505050505b949350505050565b60006001600160e01b0319821663307e35b760e11b14806107ba57506001600160e01b0319821663122a0e9b60e31b145b806107d557506001600160e01b0319821663cf28ef9760e01b145b806107f057506001600160e01b03198216633e84f02160e01b145b8061080b57506301ffc9a760e01b6001600160e01b03198316145b92915050565b33600090815260208190526040902063ffffffff82166108735760405162461bcd60e51b815260206004820152601a60248201527f6d757374207370656369667920756e7374616b652064656c6179000000000000604482015260640161064f565b600181015463ffffffff600160781b909104811690831610156108d85760405162461bcd60e51b815260206004820152601c60248201527f63616e6e6f7420646563726561736520756e7374616b652074696d6500000000604482015260640161064f565b60018101546000906108f990349061010090046001600160701b0316613995565b9050600081116109405760405162461bcd60e51b81526020600482015260126024820152711b9bc81cdd185ad9481cdc1958da599a595960721b604482015260640161064f565b6001600160701b038111156109885760405162461bcd60e51b815260206004820152600e60248201526d7374616b65206f766572666c6f7760901b604482015260640161064f565b6040805160a08101825283548152600160208083018281526001600160701b0386811685870190815263ffffffff8a811660608801818152600060808a0181815233808352828a52918c90209a518b55965199909801805494519151965165ffffffffffff16600160981b0265ffffffffffff60981b1997909416600160781b029690961669ffffffffffffffffffff60781b199190951661010002610100600160781b0319991515999099166001600160781b031990941693909317979097179190911691909117179055835185815290810192909252917fa5ae833d0bb1dcd632d98a8b70973e8516812898e19bf27b70071ebc8dc52c01910160405180910390a2505050565b3360009081526001602090815260408083206001600160c01b03851684529091528120805491610ac0836139a8565b919050555050565b3360009081526020819052604090208054821115610b245760405162461bcd60e51b8152602060048201526019602482015278576974686472617720616d6f756e7420746f6f206c6172676560381b604482015260640161064f565b8054610b319083906139c1565b8155604080516001600160a01b03851681526020810184905233917fd1c19fbcd4551a5edfb66d43d2e337c04837afda3482b42bdf569a8fccdae5fb910160405180910390a26000836001600160a01b03168360405160006040518083038185875af1925050503d8060008114610bc4576040519150601f19603f3d011682016040523d82523d6000602084013e610bc9565b606091505b5050905080610c0f5760405162461bcd60e51b81526020600482015260126024820152716661696c656420746f20776974686472617760701b604482015260640161064f565b50505050565b6000610c2082611c94565b6040805160208101929092523090820152466060820152608001604051602081830303815290604052805190602001209050919050565b610c5f611cad565b816000816001600160401b03811115610c7a57610c7a6131c1565b604051908082528060200260200182016040528015610cb357816020015b610ca061303c565b815260200190600190039081610c985790505b50905060005b82811015610d2c576000828281518110610cd557610cd56139d4565b60200260200101519050600080610d10848a8a87818110610cf857610cf86139d4565b9050602002810190610d0a91906139ea565b85611cd5565b91509150610d218483836000611ece565b505050600101610cb9565b506040516000907fbb47ee3e183a558b1a2ff0874b079f3fc5478b7454eacf2bfc5af2ff5878f972908290a160005b83811015610db657610daa81888884818110610d7957610d796139d4565b9050602002810190610d8b91906139ea565b858481518110610d9d57610d9d6139d4565b6020026020010151612064565b90910190600101610d5b565b50610dc18482612320565b505050610dce6001600255565b505050565b600080846001600160a01b03168484604051610df0929190613a0b565b600060405180830381855af49150503d8060008114610e2b576040519150601f19603f3d011682016040523d82523d6000602084013e610e30565b606091505b50915091508181604051632650415560e21b815260040161064f929190613a1b565b83158015610e6857506001600160a01b0383163b155b15610eb15760405162461bcd60e51b815260206004820152601960248201527810504c8c081858d8dbdd5b9d081b9bdd0819195c1b1bde5959603a1b604482015260640161064f565b60148110610f29576000610ec86014828486613a36565b610ed191613a60565b60601c9050803b600003610f275760405162461bcd60e51b815260206004820152601b60248201527f41413330207061796d6173746572206e6f74206465706c6f7965640000000000604482015260640161064f565b505b60405162461bcd60e51b8152602060048201526000602482015260440161064f565b610f866040518060c0016040528060008152602001600081526020016000815260200160008152602001600015158152602001606081525090565b610f8e611cad565b610f9661303c565b610f9f86612414565b600080610fae60008985611cd5565b915091506000610fc060008a86612064565b9050600060606001600160a01b038a161561103857896001600160a01b03168989604051610fef929190613a0b565b6000604051808303816000865af19150503d806000811461102c576040519150601f19603f3d011682016040523d82523d6000602084013e611031565b606091505b5090925090505b6040518060c001604052808760800151815260200184815260200186815260200185815260200183151581526020018281525096505050505050506107816001600255565b60006110916006546001600160a01b031690565b6001600160a01b031663570e1a3684846040518363ffffffff1660e01b81526004016110be929190613ac7565b6020604051808303816000875af11580156110dd573d6000803e3d6000fd5b505050506040513d601f19601f820116820180604052508101906111019190613adb565b604051633653dc0360e11b81526001600160a01b038216600482015290915060240161064f565b33600090815260208190526040812060018101549091600160781b90910463ffffffff1690036111875760405162461bcd60e51b815260206004820152600a6024820152691b9bdd081cdd185ad95960b21b604482015260640161064f565b600181015460ff166111cf5760405162461bcd60e51b8152602060048201526011602482015270616c726561647920756e7374616b696e6760781b604482015260640161064f565b60018101546000906111ee90600160781b900463ffffffff1642613af8565b60018301805460ff65ffffffffffff60981b011916600160981b65ffffffffffff841690810260ff19169190911790915560405190815290915033907ffa9b3c14cc825c412c9ed81b3ba365a5b459439403f18829e572ed53a4180f0a906020015b60405180910390a25050565b336000908152602081905260409020600181015461010090046001600160701b0316806112c25760405162461bcd60e51b81526020600482015260146024820152734e6f207374616b6520746f20776974686472617760601b604482015260640161064f565b6001820154600160981b900465ffffffffffff166113225760405162461bcd60e51b815260206004820152601d60248201527f6d7573742063616c6c20756e6c6f636b5374616b652829206669727374000000604482015260640161064f565b600182015442600160981b90910465ffffffffffff1611156113865760405162461bcd60e51b815260206004820152601b60248201527f5374616b65207769746864726177616c206973206e6f74206475650000000000604482015260640161064f565b600182018054610100600160c81b0319169055604080516001600160a01b03851681526020810183905233917fb7c918e0e249f999e965cafeb6c664271b3f4317d296461500e71da39f0cbda3910160405180910390a26000836001600160a01b03168260405160006040518083038185875af1925050503d806000811461142a576040519150601f19603f3d011682016040523d82523d6000602084013e61142f565b606091505b5050905080610c0f5760405162461bcd60e51b81526020600482015260186024820152776661696c656420746f207769746864726177207374616b6560401b604482015260640161064f565b6114836130d4565b61148b61303c565b61149483612414565b6000806114a360008685611cd5565b9150915060006114ba846000015160e00151612557565b8451519091506000906114cc90612557565b90506114eb604051806040016040528060008152602001600081525090565b3660006114fb60408b018b613b16565b90925090506000601482101561151257600061152d565b611520601460008486613a36565b61152991613a60565b60601c5b905061153881612557565b9350505050600085905060006040518060a00160405280896080015181526020018960400151815260200188815260200187815260200161157a8a6060015190565b90526040805180820182526003546001600160a01b039081168252825180840190935260045483526005546020848101919091528201929092529192508316158015906115d157506001836001600160a01b031614155b156115fe576040518060400160405280846001600160a01b031681526020016115f985612557565b905290505b6040805160a081018252928352602083019590955293810192909252506060810192909252608082015295945050505050565b611639611cad565b816000805b828110156117a05736868683818110611659576116596139d4565b905060200281019061166b9190613b5c565b905036600061167a8380613b72565b9092509050600061169160408501602086016135a7565b90506000196001600160a01b038216016116e75760405162461bcd60e51b815260206004820152601760248201527620a09c9b1034b73b30b634b21030b3b3b932b3b0ba37b960491b604482015260640161064f565b6001600160a01b03811615611784576001600160a01b038116632dd8113384846117146040890189613b16565b6040518563ffffffff1660e01b81526004016117339493929190613ce0565b60006040518083038186803b15801561174b57600080fd5b505afa92505050801561175c575060015b6117845760405163086a9f7560e41b81526001600160a01b038216600482015260240161064f565b61178e8287613995565b9550506001909301925061163e915050565b506000816001600160401b038111156117bb576117bb6131c1565b6040519080825280602002602001820160405280156117f457816020015b6117e161303c565b8152602001906001900390816117d95790505b5090506000805b848110156118d15736888883818110611816576118166139d4565b90506020028101906118289190613b5c565b90503660006118378380613b72565b9092509050600061184e60408501602086016135a7565b90508160005b818110156118bf576000898981518110611870576118706139d4565b602002602001015190506000806118938b898987818110610cf857610cf86139d4565b915091506118a384838389611ece565b8a6118ad816139a8565b9b505060019093019250611854915050565b5050600190940193506117fb92505050565b506040517fbb47ee3e183a558b1a2ff0874b079f3fc5478b7454eacf2bfc5af2ff5878f97290600090a150600080805b858110156119ff573689898381811061191c5761191c6139d4565b905060200281019061192e9190613b5c565b905061194060408201602083016135a7565b6001600160a01b03167f575ff3acadd5ab348fe1855e217e0f3678f8d767d7494c9f9fefbee2e17cca4d60405160405180910390a23660006119828380613b72565b90925090508060005b818110156119ee576119cd888585848181106119a9576119a96139d4565b90506020028101906119bb91906139ea565b8b8b81518110610d9d57610d9d6139d4565b6119d79088613995565b9650876119e3816139a8565b98505060010161198b565b505060019093019250611901915050565b506040516000907f575ff3acadd5ab348fe1855e217e0f3678f8d767d7494c9f9fefbee2e17cca4d908290a2611a358682612320565b5050505050610dce6001600255565b6000611a5082346125a9565b9050816001600160a01b03167f2da466a7b24304f47e87fa2e1e5a81b9831ce54fec19055ce277ca2f39ba42c48260405161125091815260200190565b6000806000845160208601878987f195945050505050565b60603d82811115611ab35750815b604051602082018101604052818152816000602083013e9392505050565b6000805a855190915060009081611ae7826125dc565b60e08301519091506001600160a01b038116611b065782519350611bc2565b809350600088511115611bc257868202955060028a6002811115611b2c57611b2c613d6d565b14611bc25760a0830151604051637c627b2160e01b81526001600160a01b03831691637c627b2191611b68908e908d908c908990600401613d83565b600060405180830381600088803b158015611b8257600080fd5b5087f193505050508015611b94575060015b611bc2576000611ba5610800611aa5565b905080604051632b5e552f60e21b815260040161064f9190613dcd565b5a60a0840151606085015160808c015192880399909901980190880380821115611bf5576064600a828403020498909801975b50506040890151878302965086811015611c515760028b6002811115611c1d57611c1d613d6d565b03611c4057809650611c2e8a612606565b611c3b8a6000898b612655565b611c86565b63deadaa5160e01b60005260206000fd5b868103611c5e86826125a9565b506000808d6002811115611c7457611c74613d6d565b149050611c838c828b8d612655565b50505b505050505050949350505050565b6000611c9f826126d0565b805190602001209050919050565b6002805403611ccf57604051633ee5aeb560e01b815260040160405180910390fd5b60028055565b60008060005a8451909150611cea8682612788565b611cf386610c15565b6020860152604081015161012082015161010083015160a08401516080850151606086015160c0870151861717171717176001600160781b03811115611d765760405162461bcd60e51b815260206004820152601860248201527741413934206761732076616c756573206f766572666c6f7760401b604482015260640161064f565b6000611da58460c081015160a08201516080830151606084015160408501516101009095015194010101010290565b9050611db48a8a8a8487612896565b9650611dc884600001518560200151612a27565b611e1e5789604051631101335b60e11b815260040161064f918152604060208201819052601a908201527f4141323520696e76616c6964206163636f756e74206e6f6e6365000000000000606082015260800190565b825a86031115611e7a5789604051631101335b60e11b815260040161064f918152604060208201819052601e908201527f41413236206f76657220766572696669636174696f6e4761734c696d69740000606082015260800190565b60e08401516060906001600160a01b031615611ea157611e9c8b8b8b85612a74565b975090505b604089018290528060608a015260a08a01355a870301896080018181525050505050505050935093915050565b600080611eda85612c32565b91509150816001600160a01b0316836001600160a01b031614611f405785604051631101335b60e11b815260040161064f9181526040602082018190526014908201527320a0991a1039b4b3b730ba3ab9329032b93937b960611b606082015260800190565b8015611f925785604051631101335b60e11b815260040161064f91815260406020820181905260179082015276414132322065787069726564206f72206e6f742064756560481b606082015260800190565b6000611f9d85612c32565b925090506001600160a01b03811615611ff95786604051631101335b60e11b815260040161064f9181526040602082018190526014908201527320a0999a1039b4b3b730ba3ab9329032b93937b960611b606082015260800190565b811561205b5786604051631101335b60e11b815260040161064f9181526040602082018190526021908201527f41413332207061796d61737465722065787069726564206f72206e6f742064756060820152606560f81b608082015260a00190565b50505050505050565b6000805a90506000612077846060015190565b604051909150600090368261208f60608a018a613b16565b91509150606060008260038111156120a657843591505b506372288ed160e01b6001600160e01b03198216016121545760008b8b602001516040516024016120d8929190613de0565b60408051601f198184030181529181526020820180516001600160e01b0316638dd7712f60e01b1790525190915030906242dc539061211f9084908f908d90602401613eac565b604051602081830303815290604052915060e01b6020820180516001600160e01b0383818316178352505050509250506121a9565b306001600160a01b03166242dc5385858d8b6040516024016121799493929190613ee1565b604051602081830303815290604052915060e01b6020820180516001600160e01b03838183161783525050505091505b602060008351602085016000305af195506000519850846040525050505050806123165760003d806020036121e45760206000803e60005191505b5063deaddead60e01b81036122375787604051631101335b60e11b815260040161064f918152604060208201819052600f908201526e41413935206f7574206f662067617360881b606082015260800190565b63deadaa5160e01b810361228857600086608001515a61225790876139c1565b6122619190613995565b604088015190915061227288612606565b61227f8860008385612655565b95506123149050565b855180516020808901519201516001600160a01b0390911691907ff62676f440ff169a3a9afdbf812e89e7f95975ee8e5c31214ffdef631c5f4792906122cf610800611aa5565b6040516122dd929190613966565b60405180910390a3600086608001515a6122f790876139c1565b6123019190613995565b90506123106002888684611ad1565b9550505b505b5050509392505050565b6001600160a01b0382166123715760405162461bcd60e51b81526020600482015260186024820152774141393020696e76616c69642062656e656669636961727960401b604482015260640161064f565b6000826001600160a01b03168260405160006040518083038185875af1925050503d80600081146123be576040519150601f19603f3d011682016040523d82523d6000602084013e6123c3565b606091505b5050905080610dce5760405162461bcd60e51b815260206004820152601f60248201527f41413931206661696c65642073656e6420746f2062656e656669636961727900604482015260640161064f565b6124826040516135a560f21b60208201526001600160601b03193060601b166022820152600160f81b603682015260009060370160408051808303601f190181529190528051602090910120600680546001600160a01b0319166001600160a01b0390921691909117905550565b3063957122ab6124956040840184613b16565b6124a260208601866135a7565b6124af60e0870187613b16565b6040518663ffffffff1660e01b81526004016124cf959493929190613f17565b60006040518083038186803b1580156124e757600080fd5b505afa9250505080156124f8575060015b61255457612504613f59565b806308c379a0036125485750612518613f74565b80612523575061254a565b80511561060057600081604051631101335b60e11b815260040161064f929190613966565b505b3d6000803e3d6000fd5b50565b604080518082018252600080825260208083018281526001600160a01b03959095168252819052919091206001015461010081046001600160701b03168252600160781b900463ffffffff1690915290565b6001600160a01b0382166000908152602081905260408120805482906125d0908590613995565b91829055509392505050565b610100810151610120820151600091908082036125fa575092915050565b61078182488301612c85565b80518051602080840151928101516040519081526001600160a01b0390921692917f67b4fa9642f42120bf031f3051d1824b0fe25627945b27b8a6a65d5761d5482e910160405180910390a350565b835160e081015181516020808801519301516040516001600160a01b039384169492909316927f49628fd1471006c1482da88028e9ce4dbb080b815c9b0344d39e5a8e6ec1419f916126c29189908990899093845291151560208401526040830152606082015260800190565b60405180910390a450505050565b60608135602083013560006126f06126eb6040870187613b16565b612c9d565b905060006127046126eb6060880188613b16565b9050608086013560a087013560c088013560006127276126eb60e08c018c613b16565b604080516001600160a01b039a909a1660208b015289810198909852606089019690965250608087019390935260a086019190915260c085015260e08401526101008084019190915281518084039091018152610120909201905292915050565b61279560208301836135a7565b6001600160a01b03168152602082810135908201526001600160801b036080808401358281166060850152811c604084015260a084013560c0808501919091528401359182166101008401521c6101208201523660006127f860e0850185613b16565b9092509050801561287b5760348110156128545760405162461bcd60e51b815260206004820152601d60248201527f4141393320696e76616c6964207061796d6173746572416e6444617461000000604482015260640161064f565b61285e8282612cb0565b60a086015260808501526001600160a01b031660e0840152610c0f565b600060e084018190526080840181905260a084015250505050565b82518051600091906128b588876128b060408b018b613b16565b612d18565b60e082015160006001600160a01b0382166128f9576001600160a01b0383166000908152602081905260409020548781116128f2578088036128f5565b60005b9150505b60208801516040516306608bdf60e21b81526001600160a01b038516916319822f7c91899161292f918e91908790600401613fef565b60206040518083038160008887f19350505050801561296b575060408051601f3d908101601f1916820190925261296891810190614014565b60015b612996578961297b610800611aa5565b6040516365c8fd4d60e01b815260040161064f92919061402d565b94506001600160a01b038216612a1a576001600160a01b0383166000908152602081905260409020805480891115612a14578b604051631101335b60e11b815260040161064f9181526040602082018190526017908201527610504c8c48191a591b89dd081c185e481c1c99599d5b99604a1b606082015260800190565b88900390555b5050505095945050505050565b6001600160a01b038216600090815260016020908152604080832084821c80855292528220805484916001600160401b038316919085612a66836139a8565b909155501495945050505050565b60606000805a855160e08101516001600160a01b03811660009081526020819052604090208054939450919290919087811015612afd578a604051631101335b60e11b815260040161064f918152604060208201819052601e908201527f41413331207061796d6173746572206465706f73697420746f6f206c6f770000606082015260800190565b8781038260000181905550600084608001519050836001600160a01b03166352b7512c828d8d602001518d6040518563ffffffff1660e01b8152600401612b4693929190613fef565b60006040518083038160008887f193505050508015612b8757506040513d6000823e601f3d908101601f19168201604052612b84919081019061406a565b60015b612bb2578b612b97610800611aa5565b6040516365c8fd4d60e01b815260040161064f9291906140f5565b9098509650805a87031115612c23578b604051631101335b60e11b815260040161064f9181526040602082018190526027908201527f41413336206f766572207061796d6173746572566572696669636174696f6e47606082015266185cd31a5b5a5d60ca1b608082015260a00190565b50505050505094509492505050565b60008082600003612c4857506000928392509050565b6000612c5384612fcb565b9050806040015165ffffffffffff16421180612c7a5750806020015165ffffffffffff1642105b905194909350915050565b6000818310612c945781612c96565b825b9392505050565b6000604051828085833790209392505050565b60008080612cc16014828688613a36565b612cca91613a60565b60601c612cdb602460148789613a36565b612ce491614132565b60801c612cf560346024888a613a36565b612cfe91614132565b9194506001600160801b0316925060801c90509250925092565b8015610c0f578251516001600160a01b0381163b15612d835784604051631101335b60e11b815260040161064f918152604060208201819052601f908201527f414131302073656e64657220616c726561647920636f6e737472756374656400606082015260800190565b6000612d976006546001600160a01b031690565b6001600160a01b031663570e1a3686600001516040015186866040518463ffffffff1660e01b8152600401612dcd929190613ac7565b60206040518083038160008887f1158015612dec573d6000803e3d6000fd5b50505050506040513d601f19601f82011682018060405250810190612e119190613adb565b90506001600160a01b038116612e735785604051631101335b60e11b815260040161064f918152604060208201819052601b908201527f4141313320696e6974436f6465206661696c6564206f72204f4f470000000000606082015260800190565b816001600160a01b0316816001600160a01b031614612edd5785604051631101335b60e11b815260040161064f91815260406020808301829052908201527f4141313420696e6974436f6465206d7573742072657475726e2073656e646572606082015260800190565b806001600160a01b03163b600003612f405785604051631101335b60e11b815260040161064f91815260406020808301829052908201527f4141313520696e6974436f6465206d757374206372656174652073656e646572606082015260800190565b6000612f4f6014828688613a36565b612f5891613a60565b60601c9050826001600160a01b031686602001517fd51a9c61267aa6196961883ecf5ff2da6619c37dac0fa92122513fb32c032d2d83896000015160e00151604051612fba9291906001600160a01b0392831681529116602082015260400190565b60405180910390a350505050505050565b60408051606081018252600080825260208201819052918101919091528160a081901c65ffffffffffff8116600003613007575065ffffffffffff5b604080516060810182526001600160a01b03909316835260d09490941c602083015265ffffffffffff16928101929092525090565b6040518060a001604052806130af60405180610140016040528060006001600160a01b0316815260200160008152602001600081526020016000815260200160008152602001600081526020016000815260200160006001600160a01b0316815260200160008152602001600081525090565b8152602001600080191681526020016000815260200160008152602001600081525090565b6040518060a001604052806131116040518060a0016040528060008152602001600081526020016000815260200160008152602001606081525090565b8152602001613133604051806040016040528060008152602001600081525090565b8152602001613155604051806040016040528060008152602001600081525090565b8152602001613177604051806040016040528060008152602001600081525090565b8152602001613184613189565b905290565b604051806040016040528060006001600160a01b03168152602001613184604051806040016040528060008152602001600081525090565b634e487b7160e01b600052604160045260246000fd5b60a081018181106001600160401b03821117156131f6576131f66131c1565b60405250565b601f8201601f191681016001600160401b0381118282101715613221576132216131c1565b6040525050565b604051613237610140826131fc565b90565b60006001600160401b03821115613253576132536131c1565b50601f01601f191660200190565b6001600160a01b038116811461255457600080fd5b803561328181613261565b919050565b60008183036101c081121561329a57600080fd5b6040516132a6816131d7565b8092506101408212156132b857600080fd5b6132c0613228565b91506132cb84613276565b82526020848101359083015260408085013590830152606080850135908301526080808501359083015260a0808501359083015260c0808501359083015261331560e08501613276565b60e0830152610100848101359083015261012080850135908301529081526101408301356020820152610160830135604082015261018083013560608201526101a090920135608090920191909152919050565b60008083601f84011261337b57600080fd5b5081356001600160401b0381111561339257600080fd5b6020830191508360208285010111156133aa57600080fd5b9250929050565b60008060008061020085870312156133c857600080fd5b84356001600160401b038111156133de57600080fd5b8501601f810187136133ef57600080fd5b80356133fa8161323a565b60405161340782826131fc565b82815289602084860101111561341c57600080fd5b82602085016020830137600060208483010152809750505050506134438660208701613286565b92506101e08501356001600160401b0381111561345f57600080fd5b61346b87828801613369565b95989497509550505050565b60006020828403121561348957600080fd5b81356001600160e01b031981168114612c9657600080fd5b6000602082840312156134b357600080fd5b813563ffffffff81168114612c9657600080fd5b80356001600160c01b038116811461328157600080fd5b6000602082840312156134f057600080fd5b612c96826134c7565b6000806040838503121561350c57600080fd5b823561351781613261565b9150613525602084016134c7565b90509250929050565b6000806040838503121561354157600080fd5b823561354c81613261565b946020939093013593505050565b6000610120828403121561356d57600080fd5b50919050565b60006020828403121561358557600080fd5b81356001600160401b0381111561359b57600080fd5b6107818482850161355a565b6000602082840312156135b957600080fd5b8135612c9681613261565b60008083601f8401126135d657600080fd5b5081356001600160401b038111156135ed57600080fd5b6020830191508360208260051b85010111156133aa57600080fd5b60008060006040848603121561361d57600080fd5b83356001600160401b0381111561363357600080fd5b61363f868287016135c4565b909450925050602084013561365381613261565b809150509250925092565b60008060006040848603121561367357600080fd5b833561367e81613261565b925060208401356001600160401b0381111561369957600080fd5b6136a586828701613369565b9497909650939450505050565b6000806000806000606086880312156136ca57600080fd5b85356001600160401b038111156136e057600080fd5b6136ec88828901613369565b909650945050602086013561370081613261565b925060408601356001600160401b0381111561371b57600080fd5b61372788828901613369565b969995985093965092949392505050565b6000806000806060858703121561374e57600080fd5b84356001600160401b0381111561376457600080fd5b6137708782880161355a565b945050602085013561378181613261565b925060408501356001600160401b0381111561345f57600080fd5b60005b838110156137b757818101518382015260200161379f565b50506000910152565b600081518084526137d881602086016020860161379c565b601f01601f19169290920160200192915050565b60208152815160208201526020820151604082015260408201516060820152606082015160808201526080820151151560a0820152600060a083015160c08084015261078160e08401826137c0565b6000806020838503121561384e57600080fd5b82356001600160401b0381111561386457600080fd5b61387085828601613369565b90969095509350505050565b602080825282516101408383015280516101608401529081015161018083015260408101516101a083015260608101516101c08301526080015160a06101e08301526000906138cf6102008401826137c0565b905060208401516138ed604085018280518252602090810151910152565b506040840151805160808581019190915260209182015160a08601526060860151805160c087015282015160e086015285015180516001600160a01b0316610100860152808201518051610120870152909101516101408501525b509392505050565b634e487b7160e01b600052601260045260246000fd5b82815260406020820152600061078160408301846137c0565b634e487b7160e01b600052601160045260246000fd5b8082018082111561080b5761080b61397f565b6000600182016139ba576139ba61397f565b5060010190565b8181038181111561080b5761080b61397f565b634e487b7160e01b600052603260045260246000fd5b6000823561011e19833603018112613a0157600080fd5b9190910192915050565b8183823760009101908152919050565b821515815260406020820152600061078160408301846137c0565b60008085851115613a4657600080fd5b83861115613a5357600080fd5b5050820193919092039150565b80356001600160601b03198116906014841015613a97576001600160601b03196001600160601b03198560140360031b1b82161691505b5092915050565b81835281816020850137506000828201602090810191909152601f909101601f19169091010190565b602081526000610781602083018486613a9e565b600060208284031215613aed57600080fd5b8151612c9681613261565b65ffffffffffff818116838216019081111561080b5761080b61397f565b6000808335601e19843603018112613b2d57600080fd5b8301803591506001600160401b03821115613b4757600080fd5b6020019150368190038213156133aa57600080fd5b60008235605e19833603018112613a0157600080fd5b6000808335601e19843603018112613b8957600080fd5b8301803591506001600160401b03821115613ba357600080fd5b6020019150600581901b36038213156133aa57600080fd5b6000808335601e19843603018112613bd257600080fd5b83016020810192503590506001600160401b03811115613bf157600080fd5b8036038213156133aa57600080fd5b613c1a82613c0d83613276565b6001600160a01b03169052565b602081810135908301526000613c336040830183613bbb565b6101206040860152613c4a61012086018284613a9e565b915050613c5a6060840184613bbb565b8583036060870152613c6d838284613a9e565b6080868101359088015260a0808701359088015260c080870135908801529250613c9d91505060e0840184613bbb565b85830360e0870152613cb0838284613a9e565b92505050613cc2610100840184613bbb565b858303610100870152613cd6838284613a9e565b9695505050505050565b6040808252810184905260006060600586901b83018101908301878361011e1936839003015b89821015613d4b57868503605f190184528235818112613d2557600080fd5b613d31868d8301613c00565b955050602083019250602084019350600182019150613d06565b505050508281036020840152613d62818587613a9e565b979650505050505050565b634e487b7160e01b600052602160045260246000fd5b600060038610613da357634e487b7160e01b600052602160045260246000fd5b85825260806020830152613dba60808301866137c0565b6040830194909452506060015292915050565b602081526000612c9660208301846137c0565b604081526000613df36040830185613c00565b90508260208301529392505050565b805180516001600160a01b031683526020810151602084015260408101516040840152606081015160608401526080810151608084015260a081015160a084015260c081015160c084015260e0810151613e6760e08501826001600160a01b03169052565b5061010081810151908401526101209081015190830152602081015161014083015260408101516101608301526060810151610180830152608001516101a090910152565b61020081526000613ec16102008301866137c0565b613ece6020840186613e02565b8281036101e0840152613cd681856137c0565b61020081526000613ef761020083018688613a9e565b613f046020840186613e02565b8281036101e0840152613d6281856137c0565b606081526000613f2b606083018789613a9e565b6001600160a01b03861660208401528281036040840152613f4d818587613a9e565b98975050505050505050565b600060033d11156132375760046000803e5060005160e01c90565b600060443d1015613f825790565b6040513d600319016004823e80513d60248201116001600160401b0382111715613fab57505090565b80820180516001600160401b03811115613fc6575050505090565b3d8401600319018282016020011115613fe0575050505090565b613948602082850101856131fc565b6060815260006140026060830186613c00565b60208301949094525060400152919050565b60006020828403121561402657600080fd5b5051919050565b82815260606020820152600d60608201526c10504c8cc81c995d995c9d1959609a1b608082015260a06040820152600061078160a08301846137c0565b6000806040838503121561407d57600080fd5b82516001600160401b0381111561409357600080fd5b8301601f810185136140a457600080fd5b80516140af8161323a565b6040516140bc82826131fc565b8281528760208486010111156140d157600080fd5b6140e283602083016020870161379c565b6020969096015195979596505050505050565b82815260606020820152600d60608201526c10504cccc81c995d995c9d1959609a1b608082015260a06040820152600061078160a08301846137c0565b80356001600160801b03198116906010841015613a97576001600160801b031960109490940360031b84901b169092169291505056fea26469706673582212203ecac805cc8a89c9253bdf1239d5e388cecb8a53b9953dc5145ab124d4892bc264736f6c634300081d00336080604052348015600f57600080fd5b506102038061001f6000396000f3fe608060405234801561001057600080fd5b506004361061002b5760003560e01c8063570e1a3614610030575b600080fd5b61004361003e3660046100ec565b61005f565b6040516001600160a01b03909116815260200160405180910390f35b60008061006f6014828587610160565b6100789161018a565b60601c9050600061008c8460148188610160565b8080601f016020809104026020016040519081016040528093929190818152602001838380828437600092018290525084519495509360209350849250905082850182875af190506000519350806100e357600093505b50505092915050565b600080602083850312156100ff57600080fd5b823567ffffffffffffffff81111561011657600080fd5b8301601f8101851361012757600080fd5b803567ffffffffffffffff81111561013e57600080fd5b85602082840101111561015057600080fd5b6020919091019590945092505050565b6000808585111561017057600080fd5b8386111561017d57600080fd5b5050820193919092039150565b80356bffffffffffffffffffffffff1981169060148410156101c6576001600160601b03196001600160601b03198560140360031b1b82161691505b509291505056fea2646970667358221220584e070ad99cbcbf4377f0ee49015a8f9b469cfca596e716af3dc72e277c71bb64736f6c634300081d0033",
  "linkReferences": {},
  "deployedLinkReferences": {}
}