{
  "_format": "hh-sol-artifact-1",
  "contractName": "SuperchainPoints",
  "sourceName": "contracts/SuperchainPoints.sol",
  "abi": [
    {
      "inputs": [
        {
          "internalType": "address",
          "name": "owner",
          "type": "address"
        },
        {
          "internalType": "string",
          "name": "name",
          "type": "string"
        },
        {
          "internalType": "string",
          "name": "symbol",
          "type": "string"
        }
      ],
      "stateMutability": "nonpayable",
      "type": "constructor"
    },
    {
      "inputs": [
        {
          "internalType": "address",
          "name": "spender",
          "type": "address"
        },
        {
          "internalType": "uint256",
          "name": "allowance",
          "type": "uint256"
        },
        {
          "internalType": "uint256",
          "name": "needed",
          "type": "uint256"
        }
      ],
      "name": "ERC20InsufficientAllowance",
      "type": "error"
    },
    {
      "inputs": [
        {
          "internalType": "address",
          "name": "sender",
          "type": "address"
        },
        {
          "internalType": "uint256",
          "name": "balance",
          "type": "uint256"
        },
        {
          "internalType": "uint256",
          "name": "needed",
          "type": "uint256"
        }
      ],
      "name": "ERC20InsufficientBalance",
      "type": "error"
    },
    {
      "inputs": [
        {
          "internalType": "address",
          "name": "approver",
          "type": "address"
        }
      ],
      "name": "ERC20InvalidApprover",
      "type": "error"
    },
    {
      "inputs": [
        {
          "internalType": "address",
          "name": "receiver",
          "type": "address"
        }
      ],
      "name": "ERC20InvalidReceiver",
      "type": "error"
    },
    {
      "inputs": [
        {
          "internalType": "address",
          "name": "sender",
          "type": "address"
        }
      ],
      "name": "ERC20InvalidSender",
      "type": "error"
    },
    {
      "inputs": [
        {
          "internalType": "address",
          "name": "spender",
          "type": "address"
        }
      ],
      "name": "ERC20InvalidSpender",
      "type": "error"
    },
    {
      "inputs": [],
      "name": "LengthMismatch",
      "type": "error"
    },
    {
      "inputs": [],
      "name": "NothingToClaim",
      "type": "error"
    },
    {
      "inputs": [
        {
          "internalType": "address",
          "name": "owner",
          "type": "address"
        }
      ],
      "name": "OwnableInvalidOwner",
      "type": "error"
    },
    {
      "inputs": [
        {
          "internalType": "address",
          "name": "account",
          "type": "address"
        }
      ],
      "name": "OwnableUnauthorizedAccount",
      "type": "error"
    },
    {
      "inputs": [],
      "name": "Unauthorized",
      "type": "error"
    },
    {
      "anonymous": false,
      "inputs": [
        {
          "indexed": true,
          "internalType": "address",
          "name": "owner",
          "type": "address"
        },
        {
          "indexed": true,
          "internalType": "address",
          "name": "spender",
          "type": "address"
        },
        {
          "indexed": false,
          "internalType": "uint256",
          "name": "value",
          "type": "uint256"
        }
      ],
      "name": "Approval",
      "type": "event"
    },
    {
      "anonymous": false,
      "inputs": [
        {
          "indexed": true,
          "internalType": "address",
          "name": "from",
          "type": "address"
        },
        {
          "indexed": false,
          "internalType": "uint256",
          "name": "amount",
          "type": "uint256"
        },
        {
          "indexed": true,
          "internalType": "address",
          "name": "sender",
          "type": "address"
        }
      ],
      "name": "CrosschainBurn",
      "type": "event"
    },
    {
      "anonymous": false,
      "inputs": [
        {
          "indexed": true,
          "internalType": "address",
          "name": "to",
          "type": "address"
        },
        {
          "indexed": false,
          "internalType": "uint256",
          "name": "amount",
          "type": "uint256"
        },
        {
          "indexed": true,
          "internalType": "address",
          "name": "sender",
          "type": "address"
        }
      ],
      "name": "CrosschainMint",
      "type": "event"
    },
    {
      "anonymous": false,
      "inputs": [
        {
          "indexed": true,
          "internalType": "address",
          "name": "previousOwner",
          "type": "address"
        },
        {
          "indexed": true,
          "internalType": "address",
          "name": "newOwner",
          "type": "address"
        }
      ],
      "name": "OwnershipTransferred",
      "type": "event"
    },
    {
      "anonymous": false,
      "inputs": [
        {
          "indexed": false,
          "internalType": "address",
          "name": "account",
          "type": "address"
        },
        {
          "indexed": false,
          "internalType": "uint256",
          "name": "amount",
          "type": "uint256"
        }
      ],
      "name": "TokensAdded",
      "type": "event"
    },
    {
      "anonymous": false,
      "inputs": [
        {
          "indexed": false,
          "internalType": "address",
          "name": "account",
          "type": "address"
        },
        {
          "indexed": false,
          "internalType": "uint256",
          "name": "amount",
          "type": "uint256"
        }
      ],
      "name": "TokensClaimed",
      "type": "event"
    },
    {
      "anonymous": false,
      "inputs": [
        {
          "indexed": true,
          "internalType": "address",
          "name": "from",
          "type": "address"
        },
        {
          "indexed": true,
          "internalType": "address",
          "name": "to",
          "type": "address"
        },
        {
          "indexed": false,
          "internalType": "uint256",
          "name": "value",
          "type": "uint256"
        }
      ],
      "name": "Transfer",
      "type": "event"
    },
    {
      "inputs": [
        {
          "internalType": "address[]",
          "name": "users",
          "type": "address[]"
        },
        {
          "internalType": "uint256[]",
          "name": "amounts",
          "type": "uint256[]"
        }
      ],
      "name": "addClaimable",
      "outputs": [],
      "stateMutability": "nonpayable",
      "type": "function"
    },
    {
      "inputs": [
        {
          "internalType": "address",
          "name": "owner",
          "type": "address"
        },
        {
          "internalType": "address",
          "name": "spender",
          "type": "address"
        }
      ],
      "name": "allowance",
      "outputs": [
        {
          "internalType": "uint256",
          "name": "",
          "type": "uint256"
        }
      ],
      "stateMutability": "view",
      "type": "function"
    },
    {
      "inputs": [
        {
          "internalType": "address",
          "name": "spender",
          "type": "address"
        },
        {
          "internalType": "uint256",
          "name": "value",
          "type": "uint256"
        }
      ],
      "name": "approve",
      "outputs": [
        {
          "internalType": "bool",
          "name": "",
          "type": "bool"
        }
      ],
      "stateMutability": "nonpayable",
      "type": "function"
    },
    {
      "inputs": [
        {
          "internalType": "address",
          "name": "account",
          "type": "address"
        }
      ],
      "name": "balanceOf",
      "outputs": [
        {
          "internalType": "uint256",
          "name": "",
          "type": "uint256"
        }
      ],
      "stateMutability": "view",
      "type": "function"
    },
    {
      "inputs": [],
      "name": "claim",
      "outputs": [],
      "stateMutability": "nonpayable",
      "type": "function"
    },
    {
      "inputs": [
        {
          "internalType": "address",
          "name": "",
          "type": "address"
        }
      ],
      "name": "claimable",
      "outputs": [
        {
          "internalType": "uint256",
          "name": "",
          "type": "uint256"
        }
      ],
      "stateMutability": "view",
      "type": "function"
    },
    {
      "inputs": [
        {
          "internalType": "address",
          "name": "",
          "type": "address"
        }
      ],
      "name": "claimed",
      "outputs": [
        {
          "internalType": "uint256",
          "name": "",
          "type": "uint256"
        }
      ],
      "stateMutability": "view",
      "type": "function"
    },
    {
      "inputs": [
        {
          "internalType": "address",
          "name": "_from",
          "type": "address"
        },
        {
          "internalType": "uint256",
          "name": "_amount",
          "type": "uint256"
        }
      ],
      "name": "crosschainBurn",
      "outputs": [],
      "stateMutability": "nonpayable",
      "type": "function"
    },
    {
      "inputs": [
        {
          "internalType": "address",
          "name": "_to",
          "type": "address"
        },
        {
          "internalType": "uint256",
          "name": "_amount",
          "type": "uint256"
        }
      ],
      "name": "crosschainMint",
      "outputs": [],
      "stateMutability": "nonpayable",
      "type": "function"
    },
    {
      "inputs": [],
      "name": "decimals",
      "outputs": [
        {
          "internalType": "uint8",
          "name": "",
          "type": "uint8"
        }
      ],
      "stateMutability": "view",
      "type": "function"
    },
    {
      "inputs": [
        {
          "internalType": "address",
          "name": "user",
          "type": "address"
        }
      ],
      "name": "getClaimable",
      "outputs": [
        {
          "internalType": "uint256",
          "name": "",
          "type": "uint256"
        }
      ],
      "stateMutability": "view",
      "type": "function"
    },
    {
      "inputs": [
        {
          "internalType": "address",
          "name": "to",
          "type": "address"
        },
        {
          "internalType": "uint256",
          "name": "amount",
          "type": "uint256"
        }
      ],
      "name": "mint",
      "outputs": [],
      "stateMutability": "nonpayable",
      "type": "function"
    },
    {
      "inputs": [],
      "name": "name",
      "outputs": [
        {
          "internalType": "string",
          "name": "",
          "type": "string"
        }
      ],
      "stateMutability": "view",
      "type": "function"
    },
    {
      "inputs": [],
      "name": "owner",
      "outputs": [
        {
          "internalType": "address",
          "name": "",
          "type": "address"
        }
      ],
      "stateMutability": "view",
      "type": "function"
    },
    {
      "inputs": [],
      "name": "renounceOwnership",
      "outputs": [],
      "stateMutability": "nonpayable",
      "type": "function"
    },
    {
      "inputs": [
        {
          "internalType": "bytes4",
          "name": "_interfaceId",
          "type": "bytes4"
        }
      ],
      "name": "supportsInterface",
      "outputs": [
        {
          "internalType": "bool",
          "name": "",
          "type": "bool"
        }
      ],
      "stateMutability": "view",
      "type": "function"
    },
    {
      "inputs": [],
      "name": "symbol",
      "outputs": [
        {
          "internalType": "string",
          "name": "",
          "type": "string"
        }
      ],
      "stateMutability": "view",
      "type": "function"
    },
    {
      "inputs": [],
      "name": "totalSupply",
      "outputs": [
        {
          "internalType": "uint256",
          "name": "",
          "type": "uint256"
        }
      ],
      "stateMutability": "view",
      "type": "function"
    },
    {
      "inputs": [
        {
          "internalType": "address",
          "name": "to",
          "type": "address"
        },
        {
          "internalType": "uint256",
          "name": "value",
          "type": "uint256"
        }
      ],
      "name": "transfer",
      "outputs": [
        {
          "internalType": "bool",
          "name": "",
          "type": "bool"
        }
      ],
      "stateMutability": "nonpayable",
      "type": "function"
    },
    {
      "inputs": [
        {
          "internalType": "address",
          "name": "from",
          "type": "address"
        },
        {
          "internalType": "address",
          "name": "to",
          "type": "address"
        },
        {
          "internalType": "uint256",
          "name": "value",
          "type": "uint256"
        }
      ],
      "name": "transferFrom",
      "outputs": [
        {
          "internalType": "bool",
          "name": "",
          "type": "bool"
        }
      ],
      "stateMutability": "nonpayable",
      "type": "function"
    },
    {
      "inputs": [
        {
          "internalType": "address",
          "name": "newOwner",
          "type": "address"
        }
      ],
      "name": "transferOwnership",
      "outputs": [],
      "stateMutability": "nonpayable",
      "type": "function"
    }
  ],
  "bytecode": "0x608060405234801561001057600080fd5b506040516111db3803806111db83398101604081905261002f91610199565b828282600361003e83826102aa565b50600461004b82826102aa565b5050506001600160a01b03811661007c57604051631e4fbdf760e01b81526000600482015260240160405180910390fd5b6100858161008e565b50505050610368565b600580546001600160a01b038381166001600160a01b0319831681179093556040519116919082907f8be0079c531659141344cd1fd0a4f28419497f9722a3daafe3b4186f6b6457e090600090a35050565b634e487b7160e01b600052604160045260246000fd5b600082601f83011261010757600080fd5b81516001600160401b03811115610120576101206100e0565b604051601f8201601f19908116603f011681016001600160401b038111828210171561014e5761014e6100e0565b60405281815283820160200185101561016657600080fd5b60005b8281101561018557602081860181015183830182015201610169565b506000918101602001919091529392505050565b6000806000606084860312156101ae57600080fd5b83516001600160a01b03811681146101c557600080fd5b60208501519093506001600160401b038111156101e157600080fd5b6101ed868287016100f6565b604086015190935090506001600160401b0381111561020b57600080fd5b610217868287016100f6565b9150509250925092565b600181811c9082168061023557607f821691505b60208210810361025557634e487b7160e01b600052602260045260246000fd5b50919050565b601f8211156102a557806000526020600020601f840160051c810160208510156102825750805b601f840160051c820191505b818110156102a2576000815560010161028e565b50505b505050565b81516001600160401b038111156102c3576102c36100e0565b6102d7816102d18454610221565b8461025b565b6020601f82116001811461030b57600083156102f35750848201515b600019600385901b1c1916600184901b1784556102a2565b600084815260208120601f198516915b8281101561033b578785015182556020948501946001909201910161031b565b50848210156103595786840151600019600387901b60f8161c191681555b50505050600190811b01905550565b610e64806103776000396000f3fe608060405234801561001057600080fd5b50600436106101375760003560e01c80634e71d92d116100b85780639bdd80131161007c5780639bdd801314610275578063a583024b14610288578063a9059cbb1461029b578063c884ef83146102ae578063dd62ed3e146102ce578063f2fde38b146102e157600080fd5b80634e71d92d1461021b57806370a0823114610223578063715018a61461024c5780638da5cb5b1461025457806395d89b411461026d57600080fd5b806323b872dd116100ff57806323b872dd146101b35780632b8c49e3146101c6578063313ce567146101d9578063402914f5146101e857806340c10f191461020857600080fd5b806301ffc9a71461013c57806306fdde0314610164578063095ea7b31461017957806318160ddd1461018c57806318bf50771461019e575b600080fd5b61014f61014a366004610b60565b6102f4565b60405190151581526020015b60405180910390f35b61016c610346565b60405161015b9190610b91565b61014f610187366004610bfb565b6103d8565b6002545b60405190815260200161015b565b6101b16101ac366004610bfb565b6103f0565b005b61014f6101c1366004610c25565b610466565b6101b16101d4366004610bfb565b61048a565b6040516012815260200161015b565b6101906101f6366004610c62565b60066020526000908152604090205481565b6101b1610216366004610bfb565b6104f8565b6101b161050e565b610190610231366004610c62565b6001600160a01b031660009081526020819052604090205490565b6101b16105b3565b6005546001600160a01b031660405161015b9190610c7d565b61016c6105c7565b6101b1610283366004610cdd565b6105d6565b610190610296366004610c62565b610717565b61014f6102a9366004610bfb565b610745565b6101906102bc366004610c62565b60076020526000908152604090205481565b6101906102dc366004610d4e565b610753565b6101b16102ef366004610c62565b61077e565b60006001600160e01b03198216630cccc66560e21b148061032557506001600160e01b031982166336372b0760e01b145b8061034057506001600160e01b031982166301ffc9a760e01b145b92915050565b60606003805461035590610d81565b80601f016020809104026020016040519081016040528092919081815260200182805461038190610d81565b80156103ce5780601f106103a3576101008083540402835291602001916103ce565b820191906000526020600020905b8154815290600101906020018083116103b157829003601f168201915b5050505050905090565b6000336103e68185856107c5565b5060019392505050565b6027602160991b01193301610417576040516282b42960e81b815260040160405180910390fd5b61042182826107d7565b60405181815233906001600160a01b038416907fde22baff038e3a3e08407cbdf617deed74e869a7ba517df611e33131c6e6ea04906020015b60405180910390a35050565b60003361047485828561080d565b61047f858585610860565b506001949350505050565b6027602160991b011933016104b1576040516282b42960e81b815260040160405180910390fd5b6104bb82826108bf565b60405181815233906001600160a01b038416907fb90795a66650155983e242cac3e1ac1a4dc26f8ed2987f3ce416a34e00111fd49060200161045a565b6105006108f5565b61050a82826107d7565b5050565b3360009081526006602090815260408083205460079092529091205480821161054a576040516312d37ee560e31b815260040160405180910390fd5b60006105568284610dd1565b33600081815260076020526040902085905590915061057590826107d7565b60408051338152602081018390527f896e034966eaaf1adc54acc0f257056febbd300c9e47182cf761982cf1f5e430910160405180910390a1505050565b6105bb6108f5565b6105c56000610922565b565b60606004805461035590610d81565b6105de6108f5565b828114610601576040516001621398b960e31b0319815260040160405180910390fd5b60005b838110156107105782828281811061061e5761061e610de4565b905060200201356006600087878581811061063b5761063b610de4565b90506020020160208101906106509190610c62565b6001600160a01b03166001600160a01b03168152602001908152602001600020600082825461067f9190610dfa565b909155507f0eaac1064ee8d13f83091f388597ffb5ff2d2e59f6a16aae2a74ba7f2d13c8d990508585838181106106b8576106b8610de4565b90506020020160208101906106cd9190610c62565b8484848181106106df576106df610de4565b604080516001600160a01b0390951685526020918202939093013590840152500160405180910390a1600101610604565b5050505050565b6001600160a01b03811660009081526007602090815260408083205460069092528220546103409190610dd1565b6000336103e6818585610860565b6001600160a01b03918216600090815260016020908152604080832093909416825291909152205490565b6107866108f5565b6001600160a01b0381166107b9576000604051631e4fbdf760e01b81526004016107b09190610c7d565b60405180910390fd5b6107c281610922565b50565b6107d28383836001610974565b505050565b6001600160a01b03821661080157600060405163ec442f0560e01b81526004016107b09190610c7d565b61050a60008383610a49565b60006108198484610753565b9050600019811461085a578181101561084b57828183604051637dc7a0d960e11b81526004016107b093929190610e0d565b61085a84848484036000610974565b50505050565b6001600160a01b03831661088a576000604051634b637e8f60e11b81526004016107b09190610c7d565b6001600160a01b0382166108b457600060405163ec442f0560e01b81526004016107b09190610c7d565b6107d2838383610a49565b6001600160a01b0382166108e9576000604051634b637e8f60e11b81526004016107b09190610c7d565b61050a82600083610a49565b6005546001600160a01b031633146105c5573360405163118cdaa760e01b81526004016107b09190610c7d565b600580546001600160a01b038381166001600160a01b0319831681179093556040519116919082907f8be0079c531659141344cd1fd0a4f28419497f9722a3daafe3b4186f6b6457e090600090a35050565b6001600160a01b03841661099e57600060405163e602df0560e01b81526004016107b09190610c7d565b6001600160a01b0383166109c8576000604051634a1406b160e11b81526004016107b09190610c7d565b6001600160a01b038085166000908152600160209081526040808320938716835292905220829055801561085a57826001600160a01b0316846001600160a01b03167f8c5be1e5ebec7d5bd14f71427d1e84f3dd0314c0f7b2291e5b200ac8c7c3b92584604051610a3b91815260200190565b60405180910390a350505050565b6001600160a01b038316610a74578060026000828254610a699190610dfa565b90915550610ad39050565b6001600160a01b03831660009081526020819052604090205481811015610ab45783818360405163391434e360e21b81526004016107b093929190610e0d565b6001600160a01b03841660009081526020819052604090209082900390555b6001600160a01b038216610aef57600280548290039055610b0e565b6001600160a01b03821660009081526020819052604090208054820190555b816001600160a01b0316836001600160a01b03167fddf252ad1be2c89b69c2b068fc378daa952ba7f163c4a11628f55a4df523b3ef83604051610b5391815260200190565b60405180910390a3505050565b600060208284031215610b7257600080fd5b81356001600160e01b031981168114610b8a57600080fd5b9392505050565b602081526000825180602084015260005b81811015610bbf5760208186018101516040868401015201610ba2565b506000604082850101526040601f19601f83011684010191505092915050565b80356001600160a01b0381168114610bf657600080fd5b919050565b60008060408385031215610c0e57600080fd5b610c1783610bdf565b946020939093013593505050565b600080600060608486031215610c3a57600080fd5b610c4384610bdf565b9250610c5160208501610bdf565b929592945050506040919091013590565b600060208284031215610c7457600080fd5b610b8a82610bdf565b6001600160a01b0391909116815260200190565b60008083601f840112610ca357600080fd5b50813567ffffffffffffffff811115610cbb57600080fd5b6020830191508360208260051b8501011115610cd657600080fd5b9250929050565b60008060008060408587031215610cf357600080fd5b843567ffffffffffffffff811115610d0a57600080fd5b610d1687828801610c91565b909550935050602085013567ffffffffffffffff811115610d3657600080fd5b610d4287828801610c91565b95989497509550505050565b60008060408385031215610d6157600080fd5b610d6a83610bdf565b9150610d7860208401610bdf565b90509250929050565b600181811c90821680610d9557607f821691505b602082108103610db557634e487b7160e01b600052602260045260246000fd5b50919050565b634e487b7160e01b600052601160045260246000fd5b8181038181111561034057610340610dbb565b634e487b7160e01b600052603260045260246000fd5b8082018082111561034057610340610dbb565b6001600160a01b03939093168352602083019190915260408201526060019056fea264697066735822122024261c3320dd2273a818b6a427513eb8d82ab77f7970779ec5d75dad77720d3164736f6c634300081d0033",
  "linkReferences": {},
  "deployedLinkReferences": {}
}