{
  "_format": "hh-sol-artifact-1",
  "contractName": "SuperchainPointsRaffleFactory",
  "sourceName": "contracts/SuperchainPointsRaffleFactory.sol",
  "abi": [
    {
      "inputs": [
        {
          "internalType": "address",
          "name": "_initialOwner",
          "type": "address"
        },
        {
          "internalType": "contract IERC20",
          "name": "_superchainPoints",
          "type": "address"
        },
        {
          "internalType": "contract IERC1155",
          "name": "_superchainBadges",
          "type": "address"
        }
      ],
      "stateMutability": "nonpayable",
      "type": "constructor"
    },
    {
      "inputs": [],
      "name": "OngoingRaffle",
      "type": "error"
    },
    {
      "inputs": [
        {
          "internalType": "address",
          "name": "owner",
          "type": "address"
        }
      ],
      "name": "OwnableInvalidOwner",
      "type": "error"
    },
    {
      "inputs": [
        {
          "internalType": "address",
          "name": "account",
          "type": "address"
        }
      ],
      "name": "OwnableUnauthorizedAccount",
      "type": "error"
    },
    {
      "anonymous": false,
      "inputs": [
        {
          "indexed": true,
          "internalType": "address",
          "name": "previousOwner",
          "type": "address"
        },
        {
          "indexed": true,
          "internalType": "address",
          "name": "newOwner",
          "type": "address"
        }
      ],
      "name": "OwnershipTransferred",
      "type": "event"
    },
    {
      "anonymous": false,
      "inputs": [
        {
          "indexed": false,
          "internalType": "address",
          "name": "raffle",
          "type": "address"
        }
      ],
      "name": "RaffleCreated",
      "type": "event"
    },
    {
      "inputs": [],
      "name": "createRaffle",
      "outputs": [],
      "stateMutability": "nonpayable",
      "type": "function"
    },
    {
      "inputs": [],
      "name": "currentRaffle",
      "outputs": [
        {
          "internalType": "contract ISuperchainPointsRaffle",
          "name": "",
          "type": "address"
        }
      ],
      "stateMutability": "view",
      "type": "function"
    },
    {
      "inputs": [],
      "name": "owner",
      "outputs": [
        {
          "internalType": "address",
          "name": "",
          "type": "address"
        }
      ],
      "stateMutability": "view",
      "type": "function"
    },
    {
      "inputs": [],
      "name": "renounceOwnership",
      "outputs": [],
      "stateMutability": "nonpayable",
      "type": "function"
    },
    {
      "inputs": [],
      "name": "superchainBadges",
      "outputs": [
        {
          "internalType": "contract IERC1155",
          "name": "",
          "type": "address"
        }
      ],
      "stateMutability": "view",
      "type": "function"
    },
    {
      "inputs": [],
      "name": "superchainPoints",
      "outputs": [
        {
          "internalType": "contract IERC20",
          "name": "",
          "type": "address"
        }
      ],
      "stateMutability": "view",
      "type": "function"
    },
    {
      "inputs": [
        {
          "internalType": "address",
          "name": "newOwner",
          "type": "address"
        }
      ],
      "name": "transferOwnership",
      "outputs": [],
      "stateMutability": "nonpayable",
      "type": "function"
    }
  ],
  "bytecode": "0x608060405234801561001057600080fd5b5060405161151938038061151983398101604081905261002f91610102565b826001600160a01b03811661005e57604051631e4fbdf760e01b81526000600482015260240160405180910390fd5b6100678161009a565b50600180546001600160a01b039384166001600160a01b031991821617909155600280549290931691161790555061014f565b600080546001600160a01b038381166001600160a01b0319831681178455604051919092169283917f8be0079c531659141344cd1fd0a4f28419497f9722a3daafe3b4186f6b6457e09190a35050565b6001600160a01b03811681146100ff57600080fd5b50565b60008060006060848603121561011757600080fd5b8351610122816100ea565b6020850151909350610133816100ea565b6040850151909250610144816100ea565b809150509250925092565b6113bb8061015e6000396000f3fe608060405234801561001057600080fd5b506004361061006d5760003560e01c8063485ac2a714610072578063715018a61461007c5780638da5cb5b14610084578063a8527cbe146100a7578063a94bd919146100ba578063b2ab4ab7146100cd578063f2fde38b146100e0575b600080fd5b61007a6100f3565b005b61007a610269565b6000546001600160a01b03165b60405161009e919061034e565b60405180910390f35b600354610091906001600160a01b031681565b600254610091906001600160a01b031681565b600154610091906001600160a01b031681565b61007a6100ee366004610362565b61027d565b6100fb6102c4565b6003546001600160a01b0316158015906101895750600360009054906101000a90046001600160a01b03166001600160a01b0316637b3529626040518163ffffffff1660e01b8152600401602060405180830381865afa158015610163573d6000803e3d6000fd5b505050506040513d601f19601f820116820180604052508101906101879190610392565b155b156101a75760405163ac7aae8760e01b815260040160405180910390fd5b6000546001600160a01b03166001546002546040516001600160a01b0392831692909116906101d590610341565b6001600160a01b03938416815291831660208301529091166040820152606001604051809103906000f080158015610211573d6000803e3d6000fd5b50600380546001600160a01b0319166001600160a01b039290921691821790556040517f54ad4cc1960f9b16b4a7fd9f5ee7c05b4de5672cb94bc1dbad3de1ed291c248b9161025f9161034e565b60405180910390a1565b6102716102c4565b61027b60006102f1565b565b6102856102c4565b6001600160a01b0381166102b8576000604051631e4fbdf760e01b81526004016102af919061034e565b60405180910390fd5b6102c1816102f1565b50565b6000546001600160a01b0316331461027b573360405163118cdaa760e01b81526004016102af919061034e565b600080546001600160a01b038381166001600160a01b0319831681178455604051919092169283917f8be0079c531659141344cd1fd0a4f28419497f9722a3daafe3b4186f6b6457e09190a35050565b610fd1806103b583390190565b6001600160a01b0391909116815260200190565b60006020828403121561037457600080fd5b81356001600160a01b038116811461038b57600080fd5b9392505050565b6000602082840312156103a457600080fd5b8151801515811461038b57600080fdfe60806040526000805461ffff60a01b1916905534801561001e57600080fd5b50604051610fd1380380610fd183398101604081905261003d91610110565b826001600160a01b03811661006c57604051631e4fbdf760e01b81526000600482015260240160405180910390fd5b610075816100a8565b50600380546001600160a01b039384166001600160a01b031991821617909155600480549290931691161790555061015d565b600080546001600160a01b038381166001600160a01b0319831681178455604051919092169283917f8be0079c531659141344cd1fd0a4f28419497f9722a3daafe3b4186f6b6457e09190a35050565b6001600160a01b038116811461010d57600080fd5b50565b60008060006060848603121561012557600080fd5b8351610130816100f8565b6020850151909350610141816100f8565b6040850151909250610152816100f8565b809150509250925092565b610e658061016c6000396000f3fe608060405234801561001057600080fd5b506004361061012c5760003560e01c8063a94bd919116100ad578063d2a8c79111610071578063d2a8c79114610293578063d8c4a4541461029c578063dfbf53ae146102a5578063e3ac5d26146102b8578063f2fde38b146102c157600080fd5b8063a94bd9191461023d578063a9a86f4d14610250578063b2ab4ab714610263578063bef4876b14610276578063cfbd900f1461028a57600080fd5b80636dc3ae8f116100f45780636dc3ae8f146101ea578063715018a61461020a5780637b3529621461021257806381fe4c61146102245780638da5cb5b1461022c57600080fd5b80630fe85616146101315780634705ab241461016957806350b447121461017e57806356c77ebe146101b457806358eda682146101d5575b600080fd5b61015461013f366004610bab565b60096020526000908152604090205460ff1681565b60405190151581526020015b60405180910390f35b6101716102d4565b6040516101609190610bdb565b6101a761018c366004610c1e565b6008602052600090815260409020546001600160a01b031681565b6040516101609190610c37565b6101c76101c2366004610c1e565b61032c565b604051908152602001610160565b6101e86101e3366004610d00565b61034d565b005b6101c76101f8366004610c1e565b600b6020526000908152604090205481565b6101e86105c1565b600054600160a01b900460ff16610154565b6101e86105d5565b6000546001600160a01b03166101a7565b6004546101a7906001600160a01b031681565b6101e861025e366004610c1e565b610831565b6003546101a7906001600160a01b031681565b60005461015490600160a01b900460ff1681565b6101c760075481565b6101c760025481565b6101c760015481565b6006546101a7906001600160a01b031681565b6101c760055481565b6101e86102cf366004610bab565b610a90565b6060600a80548060200260200160405190810160405280929190818152602001828054801561032257602002820191906000526020600020905b81548152602001906001019080831161030e575b5050505050905090565b600a818154811061033c57600080fd5b600091825260209091200154905081565b610355610ace565b600054600160a81b900460ff1615610380576040516301bf978f60e31b815260040160405180910390fd5b6000805461ffff60a01b1916600160a81b17905560018481556103a4904390610d7c565b600255600583905560005b6007548110156103dd57600081815260086020526040902080546001600160a01b03191690556001016103af565b506000600755815167ffffffffffffffff8111156103fd576103fd610c4b565b604051908082528060200260200182016040528015610426578160200160208202803683370190505b50805161043b91600a91602090910190610b4b565b5060005b82518110156104d35781818151811061045a5761045a610da3565b6020026020010151600b600085848151811061047857610478610da3565b60200260200101518152602001908152602001600020819055508281815181106104a4576104a4610da3565b6020026020010151600a82815481106104bf576104bf610da3565b60009182526020909120015560010161043f565b506003546005546040516323b872dd60e01b815233600482015230602482015260448101919091526000916001600160a01b0316906323b872dd906064016020604051808303816000875af1158015610530573d6000803e3d6000fd5b505050506040513d601f19601f820116820180604052508101906105549190610db9565b905080610574576040516312171d8360e31b815260040160405180910390fd5b7f3b81d2f4abc4b25cdb3a280f602aba499a20e5e7f079340839d5e4481c2fff176001546005546040516105b2929190918252602082015260400190565b60405180910390a15050505050565b6105c9610ace565b6105d36000610afb565b565b600054600160a01b900460ff16806105f75750600054600160a81b900460ff16155b15610615576040516375d47e7f60e01b815260040160405180910390fd5b3360009081526009602052604090205460ff16156106465760405163025a5bdb60e31b815260040160405180910390fd5b336000908152600960205260408120805460ff19166001179055805b600a5481101561077b57600454600a80546000926001600160a01b03169162fdd58e913391908690811061069857610698610da3565b90600052602060002001546040518363ffffffff1660e01b81526004016106c0929190610ddb565b602060405180830381865afa1580156106dd573d6000803e3d6000fd5b505050506040513d601f19601f820116820180604052508101906107019190610df4565b11156107735781600b6000600a848154811061071f5761071f610da3565b9060005260206000200154815260200190815260200160002054111561077357600b6000600a838154811061075657610756610da3565b906000526020600020015481526020019081526020016000205491505b600101610662565b508060000361079d57604051630944839560e31b815260040160405180910390fd5b6007545b816007546107af9190610d7c565b8110156107dc57600081815260086020526040902080546001600160a01b031916331790556001016107a1565b5080600760008282546107ef9190610d7c565b90915550506040517f3492e8dc9c9e6d0557ae45dfe2d8cd4fd614084227839a8a969f39b114895425906108269033908490610ddb565b60405180910390a150565b610839610ace565b600054600160a01b900460ff168061085b5750600054600160a81b900460ff16155b15610879576040516375d47e7f60e01b815260040160405180910390fd5b6000805460ff60a01b1916600160a01b1790556002544310156108be5760025460405163a3665c4960e01b81526004016108b591815260200190565b60405180910390fd5b6001546040516bffffffffffffffffffffffff193360601b16602082015260348101839052605401604051602081830303815290604052805190602001201461091a5760405163431d3a4360e11b815260040160405180910390fd5b600254604080516020808201859052924081830152815180820383018152606090910190915280519101206007546008906000906109589084610e0d565b8152602081019190915260400160002054600680546001600160a01b0319166001600160a01b0390921691821790556109a4576040516301e4d0c360e21b815260040160405180910390fd5b60035460065460055460405163a9059cbb60e01b81526000936001600160a01b039081169363a9059cbb936109e0939290911691600401610ddb565b6020604051808303816000875af11580156109ff573d6000803e3d6000fd5b505050506040513d601f19601f82011682018060405250810190610a239190610db9565b905080610a43576040516312171d8360e31b815260040160405180910390fd5b6006546005546040517f7e2ca3905e2a3f4806a624223ea6cdcd30dad54d82e68b44481a5e00f322efc792610a83926001600160a01b0390911691610ddb565b60405180910390a1505050565b610a98610ace565b6001600160a01b038116610ac2576000604051631e4fbdf760e01b81526004016108b59190610c37565b610acb81610afb565b50565b6000546001600160a01b031633146105d3573360405163118cdaa760e01b81526004016108b59190610c37565b600080546001600160a01b038381166001600160a01b0319831681178455604051919092169283917f8be0079c531659141344cd1fd0a4f28419497f9722a3daafe3b4186f6b6457e09190a35050565b828054828255906000526020600020908101928215610b86579160200282015b82811115610b86578251825591602001919060010190610b6b565b50610b92929150610b96565b5090565b5b80821115610b925760008155600101610b97565b600060208284031215610bbd57600080fd5b81356001600160a01b0381168114610bd457600080fd5b9392505050565b602080825282518282018190526000918401906040840190835b81811015610c13578351835260209384019390920191600101610bf5565b509095945050505050565b600060208284031215610c3057600080fd5b5035919050565b6001600160a01b0391909116815260200190565b634e487b7160e01b600052604160045260246000fd5b600082601f830112610c7257600080fd5b813567ffffffffffffffff811115610c8c57610c8c610c4b565b8060051b604051601f19603f830116810181811067ffffffffffffffff82111715610cb957610cb9610c4b565b604052918252602081850181019290810186841115610cd757600080fd5b6020860192505b83831015610cf6578235815260209283019201610cde565b5095945050505050565b60008060008060808587031215610d1657600080fd5b8435935060208501359250604085013567ffffffffffffffff811115610d3b57600080fd5b610d4787828801610c61565b925050606085013567ffffffffffffffff811115610d6457600080fd5b610d7087828801610c61565b91505092959194509250565b80820180821115610d9d57634e487b7160e01b600052601160045260246000fd5b92915050565b634e487b7160e01b600052603260045260246000fd5b600060208284031215610dcb57600080fd5b81518015158114610bd457600080fd5b6001600160a01b03929092168252602082015260400190565b600060208284031215610e0657600080fd5b5051919050565b600082610e2a57634e487b7160e01b600052601260045260246000fd5b50069056fea2646970667358221220f9804672e1258146f844476f7f46bee4fa07ade60b87b0dfcc0d4fcb6ed0a5e264736f6c634300081d0033a264697066735822122067634fe0003a49a987e44b249a17f41fd3b7f235cf897bd976d1eef29752c1cc64736f6c634300081d0033",
  "linkReferences": {},
  "deployedLinkReferences": {}
}