{
  "_format": "hh-sol-artifact-1",
  "contractName": "SuperchainPointsRaffleFactory",
  "sourceName": "contracts/SuperchainPointsRaffleFactory.sol",
  "abi": [
    {
      "inputs": [
        {
          "internalType": "address",
          "name": "_initialOwner",
          "type": "address"
        },
        {
          "internalType": "contract IERC20",
          "name": "_superchainPoints",
          "type": "address"
        },
        {
          "internalType": "contract IERC1155",
          "name": "_superchainBadges",
          "type": "address"
        }
      ],
      "stateMutability": "nonpayable",
      "type": "constructor"
    },
    {
      "inputs": [],
      "name": "OngoingRaffle",
      "type": "error"
    },
    {
      "inputs": [
        {
          "internalType": "address",
          "name": "owner",
          "type": "address"
        }
      ],
      "name": "OwnableInvalidOwner",
      "type": "error"
    },
    {
      "inputs": [
        {
          "internalType": "address",
          "name": "account",
          "type": "address"
        }
      ],
      "name": "OwnableUnauthorizedAccount",
      "type": "error"
    },
    {
      "anonymous": false,
      "inputs": [
        {
          "indexed": true,
          "internalType": "address",
          "name": "previousOwner",
          "type": "address"
        },
        {
          "indexed": true,
          "internalType": "address",
          "name": "newOwner",
          "type": "address"
        }
      ],
      "name": "OwnershipTransferred",
      "type": "event"
    },
    {
      "anonymous": false,
      "inputs": [
        {
          "indexed": false,
          "internalType": "address",
          "name": "raffle",
          "type": "address"
        }
      ],
      "name": "RaffleCreated",
      "type": "event"
    },
    {
      "inputs": [],
      "name": "createRaffle",
      "outputs": [],
      "stateMutability": "nonpayable",
      "type": "function"
    },
    {
      "inputs": [],
      "name": "currentRaffle",
      "outputs": [
        {
          "internalType": "contract ISuperchainPointsRaffle",
          "name": "",
          "type": "address"
        }
      ],
      "stateMutability": "view",
      "type": "function"
    },
    {
      "inputs": [],
      "name": "owner",
      "outputs": [
        {
          "internalType": "address",
          "name": "",
          "type": "address"
        }
      ],
      "stateMutability": "view",
      "type": "function"
    },
    {
      "inputs": [],
      "name": "renounceOwnership",
      "outputs": [],
      "stateMutability": "nonpayable",
      "type": "function"
    },
    {
      "inputs": [],
      "name": "superchainBadges",
      "outputs": [
        {
          "internalType": "contract IERC1155",
          "name": "",
          "type": "address"
        }
      ],
      "stateMutability": "view",
      "type": "function"
    },
    {
      "inputs": [],
      "name": "superchainPoints",
      "outputs": [
        {
          "internalType": "contract IERC20",
          "name": "",
          "type": "address"
        }
      ],
      "stateMutability": "view",
      "type": "function"
    },
    {
      "inputs": [
        {
          "internalType": "address",
          "name": "newOwner",
          "type": "address"
        }
      ],
      "name": "transferOwnership",
      "outputs": [],
      "stateMutability": "nonpayable",
      "type": "function"
    }
  ],
  "bytecode": "0x608060405234801561001057600080fd5b5060405161142b38038061142b83398101604081905261002f91610102565b826001600160a01b03811661005e57604051631e4fbdf760e01b81526000600482015260240160405180910390fd5b6100678161009a565b50600180546001600160a01b039384166001600160a01b031991821617909155600280549290931691161790555061014f565b600080546001600160a01b038381166001600160a01b0319831681178455604051919092169283917f8be0079c531659141344cd1fd0a4f28419497f9722a3daafe3b4186f6b6457e09190a35050565b6001600160a01b03811681146100ff57600080fd5b50565b60008060006060848603121561011757600080fd5b8351610122816100ea565b6020850151909350610133816100ea565b6040850151909250610144816100ea565b809150509250925092565b6112cd8061015e6000396000f3fe608060405234801561001057600080fd5b506004361061006d5760003560e01c8063485ac2a714610072578063715018a61461007c5780638da5cb5b14610084578063a8527cbe146100a7578063a94bd919146100ba578063b2ab4ab7146100cd578063f2fde38b146100e0575b600080fd5b61007a6100f3565b005b61007a610269565b6000546001600160a01b03165b60405161009e919061034e565b60405180910390f35b600354610091906001600160a01b031681565b600254610091906001600160a01b031681565b600154610091906001600160a01b031681565b61007a6100ee366004610377565b61027d565b6100fb6102c4565b6003546001600160a01b03161580159061018957506003546040805163473f52d960e11b815290516000926001600160a01b031691638e7ea5b29160048083019260209291908290030181865afa15801561015a573d6000803e3d6000fd5b505050506040513d601f19601f8201168201806040525081019061017e919061039b565b6001600160a01b0316145b156101a75760405163ac7aae8760e01b815260040160405180910390fd5b6000546001600160a01b03166001546002546040516001600160a01b0392831692909116906101d590610341565b6001600160a01b03938416815291831660208301529091166040820152606001604051809103906000f080158015610211573d6000803e3d6000fd5b50600380546001600160a01b0319166001600160a01b039290921691821790556040517f54ad4cc1960f9b16b4a7fd9f5ee7c05b4de5672cb94bc1dbad3de1ed291c248b9161025f9161034e565b60405180910390a1565b6102716102c4565b61027b60006102f1565b565b6102856102c4565b6001600160a01b0381166102b8576000604051631e4fbdf760e01b81526004016102af919061034e565b60405180910390fd5b6102c1816102f1565b50565b6000546001600160a01b0316331461027b573360405163118cdaa760e01b81526004016102af919061034e565b600080546001600160a01b038381166001600160a01b0319831681178455604051919092169283917f8be0079c531659141344cd1fd0a4f28419497f9722a3daafe3b4186f6b6457e09190a35050565b610edf806103b983390190565b6001600160a01b0391909116815260200190565b6001600160a01b03811681146102c157600080fd5b60006020828403121561038957600080fd5b813561039481610362565b9392505050565b6000602082840312156103ad57600080fd5b81516103948161036256fe60806040526000805460ff60a01b19169055600780546001600160a01b031916905534801561002d57600080fd5b50604051610edf380380610edf83398101604081905261004c9161011f565b826001600160a01b03811661007b57604051631e4fbdf760e01b81526000600482015260240160405180910390fd5b610084816100b7565b50600480546001600160a01b039384166001600160a01b031991821617909155600580549290931691161790555061016c565b600080546001600160a01b038381166001600160a01b0319831681178455604051919092169283917f8be0079c531659141344cd1fd0a4f28419497f9722a3daafe3b4186f6b6457e09190a35050565b6001600160a01b038116811461011c57600080fd5b50565b60008060006060848603121561013457600080fd5b835161013f81610107565b602085015190935061015081610107565b604085015190925061016181610107565b809150509250925092565b610d648061017b6000396000f3fe608060405234801561001057600080fd5b50600436106100d55760003560e01c80638e7ea5b2116100875780638e7ea5b21461014d5780639329066c1461015e578063a94bd91914610166578063a9a86f4d14610179578063b2ab4ab71461018c578063d9f483f81461019f578063e8a8ee28146101b2578063f2fde38b146101db57600080fd5b806306e8337f146100da57806331e54a2e146100f15780634639545f146101065780634705ab241461010e578063715018a61461012357806381fe4c611461012b5780638da5cb5b14610133575b600080fd5b6008545b6040519081526020015b60405180910390f35b6101046100ff366004610b41565b6101ee565b005b6003546100de565b610116610432565b6040516100e89190610bc7565b61010461048a565b61010461049e565b6000546001600160a01b03165b6040516100e89190610c0a565b6007546001600160a01b0316610140565b6006546100de565b600554610140906001600160a01b031681565b610104610187366004610c1e565b6105b3565b600454610140906001600160a01b031681565b6100de6101ad366004610c37565b610828565b6100de6101c0366004610c37565b6001600160a01b03166000908152600a602052604090205490565b6101046101e9366004610c37565b610971565b6101f66109af565b600054600160a01b900460ff1615610221576040516301bf978f60e31b815260040160405180910390fd5b6000805460ff60a01b1916600160a01b1790556001858155610244904390610c76565b60025560038490556006839055815167ffffffffffffffff81111561026b5761026b610a8c565b604051908082528060200260200182016040528015610294578160200160208202803683370190505b5080516102a991600b91602090910190610a2c565b5060005b8251811015610341578181815181106102c8576102c8610c8f565b6020026020010151600c60008584815181106102e6576102e6610c8f565b602002602001015181526020019081526020016000208190555082818151811061031257610312610c8f565b6020026020010151600b828154811061032d5761032d610c8f565b6000918252602090912001556001016102ad565b50600480546006546040516323b872dd60e01b8152339381019390935230602484015260448301526000916001600160a01b03909116906323b872dd906064016020604051808303816000875af11580156103a0573d6000803e3d6000fd5b505050506040513d601f19601f820116820180604052508101906103c49190610ca5565b9050806103e4576040516312171d8360e31b815260040160405180910390fd5b7f3b81d2f4abc4b25cdb3a280f602aba499a20e5e7f079340839d5e4481c2fff17600154600654604051610422929190918252602082015260400190565b60405180910390a1505050505050565b6060600b80548060200260200160405190810160405280929190818152602001828054801561048057602002820191906000526020600020905b81548152602001906001019080831161046c575b5050505050905090565b6104926109af565b61049c60006109dc565b565b6007546001600160a01b03161515806104c15750600054600160a01b900460ff16155b156104df576040516375d47e7f60e01b815260040160405180910390fd5b60006104ea33610828565b90508060000361050d576040516316d1382760e11b815260040160405180910390fd5b6008545b8160085461051f9190610c76565b81101561054c57600081815260096020526040902080546001600160a01b03191633179055600101610511565b50336000908152600a6020526040812082905560088054839290610571908490610c76565b90915550506040517f3492e8dc9c9e6d0557ae45dfe2d8cd4fd614084227839a8a969f39b114895425906105a89033908490610cc7565b60405180910390a150565b6105bb6109af565b6007546001600160a01b03161515806105de5750600054600160a01b900460ff16155b156105fc576040516375d47e7f60e01b815260040160405180910390fd5b43600254111561062e5760025460405163a3665c4960e01b815260040161062591815260200190565b60405180910390fd5b42600354111561065757600354604051633a4c7fb360e11b815260040161062591815260200190565b6001546040516bffffffffffffffffffffffff193360601b1660208201526034810183905260540160405160208183030381529060405280519060200120146106b35760405163431d3a4360e11b815260040160405180910390fd5b600254604080516020808201859052924081830152815180820383018152606090910190915280519101206008546009906000906106f19084610ce0565b8152602081019190915260400160002054600780546001600160a01b0319166001600160a01b03909216918217905561073d576040516301e4d0c360e21b815260040160405180910390fd5b6004805460075460065460405163a9059cbb60e01b81526000946001600160a01b039485169463a9059cbb9461077894911692909101610cc7565b6020604051808303816000875af1158015610797573d6000803e3d6000fd5b505050506040513d601f19601f820116820180604052508101906107bb9190610ca5565b9050806107db576040516312171d8360e31b815260040160405180910390fd5b6007546006546040517f7e2ca3905e2a3f4806a624223ea6cdcd30dad54d82e68b44481a5e00f322efc79261081b926001600160a01b0390911691610cc7565b60405180910390a1505050565b600080805b600b5481101561094657600554600b80546000926001600160a01b03169162fdd58e918891908690811061086357610863610c8f565b90600052602060002001546040518363ffffffff1660e01b815260040161088b929190610cc7565b602060405180830381865afa1580156108a8573d6000803e3d6000fd5b505050506040513d601f19601f820116820180604052508101906108cc9190610d02565b111561093e5781600c6000600b84815481106108ea576108ea610c8f565b9060005260206000200154815260200190815260200160002054111561093e57600c6000600b838154811061092157610921610c8f565b906000526020600020015481526020019081526020016000205491505b60010161082d565b506001600160a01b0383166000908152600a602052604090205461096a9082610d1b565b9392505050565b6109796109af565b6001600160a01b0381166109a3576000604051631e4fbdf760e01b81526004016106259190610c0a565b6109ac816109dc565b50565b6000546001600160a01b0316331461049c573360405163118cdaa760e01b81526004016106259190610c0a565b600080546001600160a01b038381166001600160a01b0319831681178455604051919092169283917f8be0079c531659141344cd1fd0a4f28419497f9722a3daafe3b4186f6b6457e09190a35050565b828054828255906000526020600020908101928215610a67579160200282015b82811115610a67578251825591602001919060010190610a4c565b50610a73929150610a77565b5090565b5b80821115610a735760008155600101610a78565b634e487b7160e01b600052604160045260246000fd5b600082601f830112610ab357600080fd5b813567ffffffffffffffff811115610acd57610acd610a8c565b8060051b604051601f19603f830116810181811067ffffffffffffffff82111715610afa57610afa610a8c565b604052918252602081850181019290810186841115610b1857600080fd5b6020860192505b83831015610b37578235815260209283019201610b1f565b5095945050505050565b600080600080600060a08688031215610b5957600080fd5b853594506020860135935060408601359250606086013567ffffffffffffffff811115610b8557600080fd5b610b9188828901610aa2565b925050608086013567ffffffffffffffff811115610bae57600080fd5b610bba88828901610aa2565b9150509295509295909350565b602080825282518282018190526000918401906040840190835b81811015610bff578351835260209384019390920191600101610be1565b509095945050505050565b6001600160a01b0391909116815260200190565b600060208284031215610c3057600080fd5b5035919050565b600060208284031215610c4957600080fd5b81356001600160a01b038116811461096a57600080fd5b634e487b7160e01b600052601160045260246000fd5b80820180821115610c8957610c89610c60565b92915050565b634e487b7160e01b600052603260045260246000fd5b600060208284031215610cb757600080fd5b8151801515811461096a57600080fd5b6001600160a01b03929092168252602082015260400190565b600082610cfd57634e487b7160e01b600052601260045260246000fd5b500690565b600060208284031215610d1457600080fd5b5051919050565b81810381811115610c8957610c89610c6056fea2646970667358221220c830426b5f022a2e5f2e2fcaa5787cbcf2d86a5a4f0bac593351c521b58f24c964736f6c634300081d0033a2646970667358221220ee16f9278c0083cac8afe23719d5364575c135bf4e44a9aac8336993520c84dc64736f6c634300081d0033",
  "linkReferences": {},
  "deployedLinkReferences": {}
}