{
  "_format": "hh-sol-artifact-1",
  "contractName": "WakeUpPaymaster",
  "sourceName": "contracts/Paymaster.sol",
  "abi": [
    {
      "inputs": [
        {
          "internalType": "contract IEntryPoint",
          "name": "_entryPoint",
          "type": "address"
        }
      ],
      "stateMutability": "nonpayable",
      "type": "constructor"
    },
    {
      "inputs": [
        {
          "internalType": "address",
          "name": "owner",
          "type": "address"
        }
      ],
      "name": "OwnableInvalidOwner",
      "type": "error"
    },
    {
      "inputs": [
        {
          "internalType": "address",
          "name": "account",
          "type": "address"
        }
      ],
      "name": "OwnableUnauthorizedAccount",
      "type": "error"
    },
    {
      "inputs": [],
      "name": "senderNotProvided",
      "type": "error"
    },
    {
      "anonymous": false,
      "inputs": [
        {
          "indexed": true,
          "internalType": "address",
          "name": "previousOwner",
          "type": "address"
        },
        {
          "indexed": true,
          "internalType": "address",
          "name": "newOwner",
          "type": "address"
        }
      ],
      "name": "OwnershipTransferred",
      "type": "event"
    },
    {
      "inputs": [
        {
          "internalType": "uint32",
          "name": "unstakeDelaySec",
          "type": "uint32"
        }
      ],
      "name": "addStake",
      "outputs": [],
      "stateMutability": "payable",
      "type": "function"
    },
    {
      "inputs": [
        {
          "internalType": "address",
          "name": "account",
          "type": "address"
        }
      ],
      "name": "allowAccount",
      "outputs": [],
      "stateMutability": "nonpayable",
      "type": "function"
    },
    {
      "inputs": [],
      "name": "deposit",
      "outputs": [],
      "stateMutability": "payable",
      "type": "function"
    },
    {
      "inputs": [],
      "name": "entryPoint",
      "outputs": [
        {
          "internalType": "contract IEntryPoint",
          "name": "",
          "type": "address"
        }
      ],
      "stateMutability": "view",
      "type": "function"
    },
    {
      "inputs": [],
      "name": "getDeposit",
      "outputs": [
        {
          "internalType": "uint256",
          "name": "",
          "type": "uint256"
        }
      ],
      "stateMutability": "view",
      "type": "function"
    },
    {
      "inputs": [
        {
          "internalType": "address",
          "name": "account",
          "type": "address"
        }
      ],
      "name": "isAccountAllowed",
      "outputs": [
        {
          "internalType": "bool",
          "name": "",
          "type": "bool"
        }
      ],
      "stateMutability": "view",
      "type": "function"
    },
    {
      "inputs": [],
      "name": "owner",
      "outputs": [
        {
          "internalType": "address",
          "name": "",
          "type": "address"
        }
      ],
      "stateMutability": "view",
      "type": "function"
    },
    {
      "inputs": [
        {
          "internalType": "enum IPaymaster.PostOpMode",
          "name": "mode",
          "type": "uint8"
        },
        {
          "internalType": "bytes",
          "name": "context",
          "type": "bytes"
        },
        {
          "internalType": "uint256",
          "name": "actualGasCost",
          "type": "uint256"
        },
        {
          "internalType": "uint256",
          "name": "actualUserOpFeePerGas",
          "type": "uint256"
        }
      ],
      "name": "postOp",
      "outputs": [],
      "stateMutability": "nonpayable",
      "type": "function"
    },
    {
      "inputs": [
        {
          "internalType": "address",
          "name": "account",
          "type": "address"
        }
      ],
      "name": "removeAccount",
      "outputs": [],
      "stateMutability": "nonpayable",
      "type": "function"
    },
    {
      "inputs": [],
      "name": "renounceOwnership",
      "outputs": [],
      "stateMutability": "nonpayable",
      "type": "function"
    },
    {
      "inputs": [
        {
          "internalType": "address",
          "name": "newOwner",
          "type": "address"
        }
      ],
      "name": "transferOwnership",
      "outputs": [],
      "stateMutability": "nonpayable",
      "type": "function"
    },
    {
      "inputs": [],
      "name": "unlockStake",
      "outputs": [],
      "stateMutability": "nonpayable",
      "type": "function"
    },
    {
      "inputs": [
        {
          "components": [
            {
              "internalType": "address",
              "name": "sender",
              "type": "address"
            },
            {
              "internalType": "uint256",
              "name": "nonce",
              "type": "uint256"
            },
            {
              "internalType": "bytes",
              "name": "initCode",
              "type": "bytes"
            },
            {
              "internalType": "bytes",
              "name": "callData",
              "type": "bytes"
            },
            {
              "internalType": "bytes32",
              "name": "accountGasLimits",
              "type": "bytes32"
            },
            {
              "internalType": "uint256",
              "name": "preVerificationGas",
              "type": "uint256"
            },
            {
              "internalType": "bytes32",
              "name": "gasFees",
              "type": "bytes32"
            },
            {
              "internalType": "bytes",
              "name": "paymasterAndData",
              "type": "bytes"
            },
            {
              "internalType": "bytes",
              "name": "signature",
              "type": "bytes"
            }
          ],
          "internalType": "struct PackedUserOperation",
          "name": "userOp",
          "type": "tuple"
        },
        {
          "internalType": "bytes32",
          "name": "userOpHash",
          "type": "bytes32"
        },
        {
          "internalType": "uint256",
          "name": "maxCost",
          "type": "uint256"
        }
      ],
      "name": "validatePaymasterUserOp",
      "outputs": [
        {
          "internalType": "bytes",
          "name": "context",
          "type": "bytes"
        },
        {
          "internalType": "uint256",
          "name": "validationData",
          "type": "uint256"
        }
      ],
      "stateMutability": "nonpayable",
      "type": "function"
    },
    {
      "inputs": [
        {
          "internalType": "address payable",
          "name": "withdrawAddress",
          "type": "address"
        }
      ],
      "name": "withdrawStake",
      "outputs": [],
      "stateMutability": "nonpayable",
      "type": "function"
    },
    {
      "inputs": [
        {
          "internalType": "address payable",
          "name": "withdrawAddress",
          "type": "address"
        },
        {
          "internalType": "uint256",
          "name": "amount",
          "type": "uint256"
        }
      ],
      "name": "withdrawTo",
      "outputs": [],
      "stateMutability": "nonpayable",
      "type": "function"
    }
  ],
  "bytecode": "0x60a060405234801561001057600080fd5b50604051610ce7380380610ce783398101604081905261002f9161018a565b80338061005757604051631e4fbdf760e01b8152600060048201526024015b60405180910390fd5b6100608161007c565b5061006a816100cc565b6001600160a01b0316608052506101dc565b600080546001600160a01b038381166001600160a01b0319831681178455604051919092169283917f8be0079c531659141344cd1fd0a4f28419497f9722a3daafe3b4186f6b6457e09190a35050565b6040516301ffc9a760e01b815263122a0e9b60e31b60048201526001600160a01b038216906301ffc9a790602401602060405180830381865afa158015610117573d6000803e3d6000fd5b505050506040513d601f19601f8201168201806040525081019061013b91906101ba565b6101875760405162461bcd60e51b815260206004820152601e60248201527f49456e747279506f696e7420696e74657266616365206d69736d617463680000604482015260640161004e565b50565b60006020828403121561019c57600080fd5b81516001600160a01b03811681146101b357600080fd5b9392505050565b6000602082840312156101cc57600080fd5b815180151581146101b357600080fd5b608051610abf610228600039600081816101f3015281816102d7015281816103c601528181610468015281816104fa015281816105770152818161063201526107010152610abf6000f3fe6080604052600436106100c85760003560e01c80638da5cb5b1161007a5780638da5cb5b146101ba578063b0d691fe146101e1578063bb9fe6bf14610215578063c23a5cea1461022a578063c399ec881461024a578063c4740a951461026d578063d0e30db01461028d578063f2fde38b1461029557600080fd5b80630396cb60146100cd5780631acc948c146100e25780631fd9a8c614610102578063205c28781461013757806352b7512c14610157578063715018a6146101855780637c627b211461019a575b600080fd5b6100e06100db36600461088b565b6102b5565b005b3480156100ee57600080fd5b506100e06100fd3660046108cd565b610340565b34801561010e57600080fd5b5061012261011d3660046108cd565b61036f565b60405190151581526020015b60405180910390f35b34801561014357600080fd5b506100e06101523660046108ea565b610398565b34801561016357600080fd5b50610177610172366004610916565b61040a565b60405161012e92919061096a565b34801561019157600080fd5b506100e061042e565b3480156101a657600080fd5b506100e06101b53660046109bf565b610442565b3480156101c657600080fd5b506000546001600160a01b03165b60405161012e9190610a5c565b3480156101ed57600080fd5b506101d47f000000000000000000000000000000000000000000000000000000000000000081565b34801561022157600080fd5b506100e061045e565b34801561023657600080fd5b506100e06102453660046108cd565b6104db565b34801561025657600080fd5b5061025f61055d565b60405190815260200161012e565b34801561027957600080fd5b506100e06102883660046108cd565b6105f2565b6100e061061b565b3480156102a157600080fd5b506100e06102b03660046108cd565b610682565b6102bd6106c9565b604051621cb65b60e51b815263ffffffff821660048201527f00000000000000000000000000000000000000000000000000000000000000006001600160a01b031690630396cb609034906024016000604051808303818588803b15801561032457600080fd5b505af1158015610338573d6000803e3d6000fd5b505050505050565b6103486106c9565b6001600160a01b03166000908152600160208190526040909120805460ff19169091179055565b60006103796106c9565b506001600160a01b031660009081526001602052604090205460ff1690565b6103a06106c9565b60405163040b850f60e31b81526001600160a01b038381166004830152602482018390527f0000000000000000000000000000000000000000000000000000000000000000169063205c287890604401600060405180830381600087803b15801561032457600080fd5b606060006104166106f6565b610421858585610766565b915091505b935093915050565b6104366106c9565b6104406000610803565b565b61044a6106f6565b6104578585858585610853565b5050505050565b6104666106c9565b7f00000000000000000000000000000000000000000000000000000000000000006001600160a01b031663bb9fe6bf6040518163ffffffff1660e01b8152600401600060405180830381600087803b1580156104c157600080fd5b505af11580156104d5573d6000803e3d6000fd5b50505050565b6104e36106c9565b60405163611d2e7560e11b81526001600160a01b037f0000000000000000000000000000000000000000000000000000000000000000169063c23a5cea9061052f908490600401610a5c565b600060405180830381600087803b15801561054957600080fd5b505af1158015610457573d6000803e3d6000fd5b6040516370a0823160e01b81526000906001600160a01b037f000000000000000000000000000000000000000000000000000000000000000016906370a08231906105ac903090600401610a5c565b602060405180830381865afa1580156105c9573d6000803e3d6000fd5b505050506040513d601f19601f820116820180604052508101906105ed9190610a70565b905090565b6105fa6106c9565b6001600160a01b03166000908152600160205260409020805460ff19169055565b60405163b760faf960e01b81526001600160a01b037f0000000000000000000000000000000000000000000000000000000000000000169063b760faf9903490610669903090600401610a5c565b6000604051808303818588803b15801561054957600080fd5b61068a6106c9565b6001600160a01b0381166106bd576000604051631e4fbdf760e01b81526004016106b49190610a5c565b60405180910390fd5b6106c681610803565b50565b6000546001600160a01b03163314610440573360405163118cdaa760e01b81526004016106b49190610a5c565b336001600160a01b037f000000000000000000000000000000000000000000000000000000000000000016146104405760405162461bcd60e51b815260206004820152601560248201527414d95b99195c881b9bdd08115b9d1c9e541bda5b9d605a1b60448201526064016106b4565b606060008061077860208701876108cd565b6001600160a01b03160361079f57604051637a40435560e01b815260040160405180910390fd5b6107cd6107af60208701876108cd565b6001600160a01b031660009081526001602052604090205460ff1690565b6107e95750506040805160208101909152600081526001610426565b505060408051602081019091526000808252935093915050565b600080546001600160a01b038381166001600160a01b0319831681178455604051919092169283917f8be0079c531659141344cd1fd0a4f28419497f9722a3daafe3b4186f6b6457e09190a35050565b60405162461bcd60e51b815260206004820152600d60248201526c6d757374206f7665727269646560981b60448201526064016106b4565b60006020828403121561089d57600080fd5b813563ffffffff811681146108b157600080fd5b9392505050565b6001600160a01b03811681146106c657600080fd5b6000602082840312156108df57600080fd5b81356108b1816108b8565b600080604083850312156108fd57600080fd5b8235610908816108b8565b946020939093013593505050565b60008060006060848603121561092b57600080fd5b833567ffffffffffffffff81111561094257600080fd5b8401610120818703121561095557600080fd5b95602085013595506040909401359392505050565b604081526000835180604084015260005b81811015610998576020818701810151606086840101520161097b565b506000606082850101526060601f19601f8301168401019150508260208301529392505050565b6000806000806000608086880312156109d757600080fd5b8535600381106109e657600080fd5b9450602086013567ffffffffffffffff811115610a0257600080fd5b8601601f81018813610a1357600080fd5b803567ffffffffffffffff811115610a2a57600080fd5b886020828401011115610a3c57600080fd5b959860209190910197509495604081013595606090910135945092505050565b6001600160a01b0391909116815260200190565b600060208284031215610a8257600080fd5b505191905056fea2646970667358221220a7ebb600385004710973bc5f8b6e0e8541d01d7ed427c93ae29f63e6d478601d64736f6c634300081d0033",
  "linkReferences": {},
  "deployedLinkReferences": {}
}