{
  "contracts/SuperchainPointsRaffle.sol": {
    "SuperchainPointsRaffle": {
      "abi": [
        {
          "inputs": [
            {
              "internalType": "address",
              "name": "_initialOwner",
              "type": "address"
            },
            {
              "internalType": "contract IERC20",
              "name": "_superchainPoints",
              "type": "address"
            },
            {
              "internalType": "contract IERC1155",
              "name": "_superchainBadges",
              "type": "address"
            }
          ],
          "stateMutability": "nonpayable",
          "type": "constructor"
        },
        {
          "inputs": [
            {
              "internalType": "uint256",
              "name": "",
              "type": "uint256"
            }
          ],
          "name": "CannotRevealBeforeBlock",
          "type": "error"
        },
        {
          "inputs": [
            {
              "internalType": "uint256",
              "name": "timestamp",
              "type": "uint256"
            }
          ],
          "name": "CannotRevealBeforeTimestamp",
          "type": "error"
        },
        {
          "inputs": [],
          "name": "InvalidSeed",
          "type": "error"
        },
        {
          "inputs": [],
          "name": "NoOngoingRaffle",
          "type": "error"
        },
        {
          "inputs": [],
          "name": "NoTicketsToClaim",
          "type": "error"
        },
        {
          "inputs": [
            {
              "internalType": "address",
              "name": "owner",
              "type": "address"
            }
          ],
          "name": "OwnableInvalidOwner",
          "type": "error"
        },
        {
          "inputs": [
            {
              "internalType": "address",
              "name": "account",
              "type": "address"
            }
          ],
          "name": "OwnableUnauthorizedAccount",
          "type": "error"
        },
        {
          "inputs": [],
          "name": "RaffleAlreadyStarted",
          "type": "error"
        },
        {
          "inputs": [],
          "name": "SeedAlreadyUsed",
          "type": "error"
        },
        {
          "inputs": [],
          "name": "TicketNotFound",
          "type": "error"
        },
        {
          "inputs": [],
          "name": "TransferFailed",
          "type": "error"
        },
        {
          "anonymous": false,
          "inputs": [
            {
              "indexed": true,
              "internalType": "address",
              "name": "previousOwner",
              "type": "address"
            },
            {
              "indexed": true,
              "internalType": "address",
              "name": "newOwner",
              "type": "address"
            }
          ],
          "name": "OwnershipTransferred",
          "type": "event"
        },
        {
          "anonymous": false,
          "inputs": [
            {
              "indexed": false,
              "internalType": "bytes32",
              "name": "sealedSeed",
              "type": "bytes32"
            },
            {
              "indexed": false,
              "internalType": "uint256",
              "name": "amount",
              "type": "uint256"
            }
          ],
          "name": "RaffleStarted",
          "type": "event"
        },
        {
          "anonymous": false,
          "inputs": [
            {
              "indexed": false,
              "internalType": "address",
              "name": "winner",
              "type": "address"
            },
            {
              "indexed": false,
              "internalType": "uint256",
              "name": "amount",
              "type": "uint256"
            }
          ],
          "name": "RaffleWinner",
          "type": "event"
        },
        {
          "anonymous": false,
          "inputs": [
            {
              "indexed": false,
              "internalType": "address",
              "name": "claimer",
              "type": "address"
            },
            {
              "indexed": false,
              "internalType": "uint256",
              "name": "amount",
              "type": "uint256"
            }
          ],
          "name": "TicketsClaimed",
          "type": "event"
        },
        {
          "inputs": [
            {
              "internalType": "uint256",
              "name": "",
              "type": "uint256"
            }
          ],
          "name": "badgeAllocations",
          "outputs": [
            {
              "internalType": "uint256",
              "name": "",
              "type": "uint256"
            }
          ],
          "stateMutability": "view",
          "type": "function"
        },
        {
          "inputs": [],
          "name": "claimTickets",
          "outputs": [],
          "stateMutability": "nonpayable",
          "type": "function"
        },
        {
          "inputs": [
            {
              "internalType": "uint256",
              "name": "",
              "type": "uint256"
            }
          ],
          "name": "eligibleBadges",
          "outputs": [
            {
              "internalType": "uint256",
              "name": "",
              "type": "uint256"
            }
          ],
          "stateMutability": "view",
          "type": "function"
        },
        {
          "inputs": [],
          "name": "finished",
          "outputs": [
            {
              "internalType": "bool",
              "name": "",
              "type": "bool"
            }
          ],
          "stateMutability": "view",
          "type": "function"
        },
        {
          "inputs": [
            {
              "internalType": "address",
              "name": "user",
              "type": "address"
            }
          ],
          "name": "getClaimableTickets",
          "outputs": [
            {
              "internalType": "uint256",
              "name": "",
              "type": "uint256"
            }
          ],
          "stateMutability": "view",
          "type": "function"
        },
        {
          "inputs": [
            {
              "internalType": "address",
              "name": "user",
              "type": "address"
            }
          ],
          "name": "getClaimedTickets",
          "outputs": [
            {
              "internalType": "uint256",
              "name": "",
              "type": "uint256"
            }
          ],
          "stateMutability": "view",
          "type": "function"
        },
        {
          "inputs": [],
          "name": "getEligibleBadges",
          "outputs": [
            {
              "internalType": "uint256[]",
              "name": "",
              "type": "uint256[]"
            }
          ],
          "stateMutability": "view",
          "type": "function"
        },
        {
          "inputs": [],
          "name": "getPrizeAmount",
          "outputs": [
            {
              "internalType": "uint256",
              "name": "",
              "type": "uint256"
            }
          ],
          "stateMutability": "view",
          "type": "function"
        },
        {
          "inputs": [],
          "name": "getRevealedAfter",
          "outputs": [
            {
              "internalType": "uint256",
              "name": "",
              "type": "uint256"
            }
          ],
          "stateMutability": "view",
          "type": "function"
        },
        {
          "inputs": [],
          "name": "getTotalTickets",
          "outputs": [
            {
              "internalType": "uint256",
              "name": "",
              "type": "uint256"
            }
          ],
          "stateMutability": "view",
          "type": "function"
        },
        {
          "inputs": [
            {
              "internalType": "bytes32",
              "name": "_sealedSeed",
              "type": "bytes32"
            },
            {
              "internalType": "uint256",
              "name": "_revealAfterTimestamp",
              "type": "uint256"
            },
            {
              "internalType": "uint256",
              "name": "_amount",
              "type": "uint256"
            },
            {
              "internalType": "uint256[]",
              "name": "_badges",
              "type": "uint256[]"
            },
            {
              "internalType": "uint256[]",
              "name": "_badgeAllocation",
              "type": "uint256[]"
            }
          ],
          "name": "initialize",
          "outputs": [],
          "stateMutability": "nonpayable",
          "type": "function"
        },
        {
          "inputs": [],
          "name": "isFinished",
          "outputs": [
            {
              "internalType": "bool",
              "name": "",
              "type": "bool"
            }
          ],
          "stateMutability": "view",
          "type": "function"
        },
        {
          "inputs": [],
          "name": "owner",
          "outputs": [
            {
              "internalType": "address",
              "name": "",
              "type": "address"
            }
          ],
          "stateMutability": "view",
          "type": "function"
        },
        {
          "inputs": [],
          "name": "prize",
          "outputs": [
            {
              "internalType": "uint256",
              "name": "",
              "type": "uint256"
            }
          ],
          "stateMutability": "view",
          "type": "function"
        },
        {
          "inputs": [],
          "name": "renounceOwnership",
          "outputs": [],
          "stateMutability": "nonpayable",
          "type": "function"
        },
        {
          "inputs": [],
          "name": "revealAfterTimestamp",
          "outputs": [
            {
              "internalType": "uint256",
              "name": "",
              "type": "uint256"
            }
          ],
          "stateMutability": "view",
          "type": "function"
        },
        {
          "inputs": [
            {
              "internalType": "bytes32",
              "name": "_seed",
              "type": "bytes32"
            }
          ],
          "name": "revealWinner",
          "outputs": [],
          "stateMutability": "nonpayable",
          "type": "function"
        },
        {
          "inputs": [],
          "name": "sealedSeed",
          "outputs": [
            {
              "internalType": "bytes32",
              "name": "",
              "type": "bytes32"
            }
          ],
          "stateMutability": "view",
          "type": "function"
        },
        {
          "inputs": [],
          "name": "storedBlockNumber",
          "outputs": [
            {
              "internalType": "uint256",
              "name": "",
              "type": "uint256"
            }
          ],
          "stateMutability": "view",
          "type": "function"
        },
        {
          "inputs": [],
          "name": "superchainBadges",
          "outputs": [
            {
              "internalType": "contract IERC1155",
              "name": "",
              "type": "address"
            }
          ],
          "stateMutability": "view",
          "type": "function"
        },
        {
          "inputs": [],
          "name": "superchainPoints",
          "outputs": [
            {
              "internalType": "contract IERC20",
              "name": "",
              "type": "address"
            }
          ],
          "stateMutability": "view",
          "type": "function"
        },
        {
          "inputs": [],
          "name": "ticketCount",
          "outputs": [
            {
              "internalType": "uint256",
              "name": "",
              "type": "uint256"
            }
          ],
          "stateMutability": "view",
          "type": "function"
        },
        {
          "inputs": [
            {
              "internalType": "uint256",
              "name": "",
              "type": "uint256"
            }
          ],
          "name": "tickets",
          "outputs": [
            {
              "internalType": "address",
              "name": "",
              "type": "address"
            }
          ],
          "stateMutability": "view",
          "type": "function"
        },
        {
          "inputs": [
            {
              "internalType": "address",
              "name": "",
              "type": "address"
            }
          ],
          "name": "ticketsClaimed",
          "outputs": [
            {
              "internalType": "uint256",
              "name": "",
              "type": "uint256"
            }
          ],
          "stateMutability": "view",
          "type": "function"
        },
        {
          "inputs": [
            {
              "internalType": "address",
              "name": "newOwner",
              "type": "address"
            }
          ],
          "name": "transferOwnership",
          "outputs": [],
          "stateMutability": "nonpayable",
          "type": "function"
        },
        {
          "inputs": [],
          "name": "winner",
          "outputs": [
            {
              "internalType": "address",
              "name": "",
              "type": "address"
            }
          ],
          "stateMutability": "view",
          "type": "function"
        }
      ],
      "evm": {
        "bytecode": {
          "linkReferences": {},
          "object": "60806040526000805461ffff60a01b1916905534801561001e57600080fd5b5060405161107d38038061107d83398101604081905261003d91610110565b826001600160a01b03811661006c57604051631e4fbdf760e01b81526000600482015260240160405180910390fd5b610075816100a8565b50600480546001600160a01b039384166001600160a01b031991821617909155600580549290931691161790555061015d565b600080546001600160a01b038381166001600160a01b0319831681178455604051919092169283917f8be0079c531659141344cd1fd0a4f28419497f9722a3daafe3b4186f6b6457e09190a35050565b6001600160a01b038116811461010d57600080fd5b50565b60008060006060848603121561012557600080fd5b8351610130816100f8565b6020850151909350610141816100f8565b6040850151909250610152816100f8565b809150509250925092565b610f118061016c6000396000f3fe608060405234801561001057600080fd5b506004361061016e5760003560e01c8063a94bd919116100ce578063d8c4a45411610087578063d8c4a454146102ec578063d9f483f8146102f5578063dfbf53ae14610308578063e3ac5d261461031b578063e8a8ee2814610324578063ecca9c2e1461034d578063f2fde38b1461035557600080fd5b8063a94bd9191461028d578063a9a86f4d146102a0578063b2ab4ab7146102b3578063bef4876b146102c6578063cfbd900f146102da578063d2a8c791146102e357600080fd5b806350b447121161012b57806350b44712146101e557806356c77ebe1461021b5780636dc3ae8f1461022e578063715018a61461024e5780637b3529621461025657806381fe4c61146102745780638da5cb5b1461027c57600080fd5b806306e8337f146101735780630fe856161461018a57806331e54a2e146101aa57806331f6a017146101bf5780634639545f146101c85780634705ab24146101d0575b600080fd5b6008545b6040519081526020015b60405180910390f35b610177610198366004610c39565b600a6020526000908152604090205481565b6101bd6101b8366004610d17565b610368565b005b61017760035481565b600354610177565b6101d86105ad565b6040516101819190610d9d565b61020e6101f3366004610de0565b6009602052600090815260409020546001600160a01b031681565b6040516101819190610df9565b610177610229366004610de0565b610605565b61017761023c366004610de0565b600c6020526000908152604090205481565b6101bd610626565b600054600160a01b900460ff165b6040519015158152602001610181565b6101bd61063a565b6000546001600160a01b031661020e565b60055461020e906001600160a01b031681565b6101bd6102ae366004610de0565b61074e565b60045461020e906001600160a01b031681565b60005461026490600160a01b900460ff1681565b61017760085481565b61017760025481565b61017760015481565b610177610303366004610c39565b6109d5565b60075461020e906001600160a01b031681565b61017760065481565b610177610332366004610c39565b6001600160a01b03166000908152600a602052604090205490565b600654610177565b6101bd610363366004610c39565b610b1e565b610370610b5c565b600054600160a81b900460ff161561039b576040516301bf978f60e31b815260040160405180910390fd5b6000805461ffff60a01b1916600160a81b17905560018581556103bf904390610e23565b60025560038490556006839055815167ffffffffffffffff8111156103e6576103e6610c62565b60405190808252806020026020018201604052801561040f578160200160208202803683370190505b50805161042491600b91602090910190610bd9565b5060005b82518110156104bc5781818151811061044357610443610e3c565b6020026020010151600c600085848151811061046157610461610e3c565b602002602001015181526020019081526020016000208190555082818151811061048d5761048d610e3c565b6020026020010151600b82815481106104a8576104a8610e3c565b600091825260209091200155600101610428565b50600480546006546040516323b872dd60e01b8152339381019390935230602484015260448301526000916001600160a01b03909116906323b872dd906064016020604051808303816000875af115801561051b573d6000803e3d6000fd5b505050506040513d601f19601f8201168201806040525081019061053f9190610e52565b90508061055f576040516312171d8360e31b815260040160405180910390fd5b7f3b81d2f4abc4b25cdb3a280f602aba499a20e5e7f079340839d5e4481c2fff1760015460065460405161059d929190918252602082015260400190565b60405180910390a1505050505050565b6060600b8054806020026020016040519081016040528092919081815260200182805480156105fb57602002820191906000526020600020905b8154815260200190600101908083116105e7575b5050505050905090565b600b818154811061061557600080fd5b600091825260209091200154905081565b61062e610b5c565b6106386000610b89565b565b600054600160a01b900460ff168061065c5750600054600160a81b900460ff16155b1561067a576040516375d47e7f60e01b815260040160405180910390fd5b6000610685336109d5565b9050806000036106a8576040516316d1382760e11b815260040160405180910390fd5b6008545b816008546106ba9190610e23565b8110156106e757600081815260096020526040902080546001600160a01b031916331790556001016106ac565b50336000908152600a602052604081208290556008805483929061070c908490610e23565b90915550506040517f3492e8dc9c9e6d0557ae45dfe2d8cd4fd614084227839a8a969f39b114895425906107439033908490610e74565b60405180910390a150565b610756610b5c565b600054600160a01b900460ff16806107785750600054600160a81b900460ff16155b15610796576040516375d47e7f60e01b815260040160405180910390fd5b6000805460ff60a01b1916600160a01b1790556002544310156107db5760025460405163a3665c4960e01b81526004016107d291815260200190565b60405180910390fd5b42600354111561080457600354604051633a4c7fb360e11b81526004016107d291815260200190565b6001546040516bffffffffffffffffffffffff193360601b1660208201526034810183905260540160405160208183030381529060405280519060200120146108605760405163431d3a4360e11b815260040160405180910390fd5b6002546040805160208082018590529240818301528151808203830181526060909101909152805191012060085460099060009061089e9084610e8d565b8152602081019190915260400160002054600780546001600160a01b0319166001600160a01b0390921691821790556108ea576040516301e4d0c360e21b815260040160405180910390fd5b6004805460075460065460405163a9059cbb60e01b81526000946001600160a01b039485169463a9059cbb9461092594911692909101610e74565b6020604051808303816000875af1158015610944573d6000803e3d6000fd5b505050506040513d601f19601f820116820180604052508101906109689190610e52565b905080610988576040516312171d8360e31b815260040160405180910390fd5b6007546006546040517f7e2ca3905e2a3f4806a624223ea6cdcd30dad54d82e68b44481a5e00f322efc7926109c8926001600160a01b0390911691610e74565b60405180910390a1505050565b600080805b600b54811015610af357600554600b80546000926001600160a01b03169162fdd58e9188919086908110610a1057610a10610e3c565b90600052602060002001546040518363ffffffff1660e01b8152600401610a38929190610e74565b602060405180830381865afa158015610a55573d6000803e3d6000fd5b505050506040513d601f19601f82011682018060405250810190610a799190610eaf565b1115610aeb5781600c6000600b8481548110610a9757610a97610e3c565b90600052602060002001548152602001908152602001600020541115610aeb57600c6000600b8381548110610ace57610ace610e3c565b906000526020600020015481526020019081526020016000205491505b6001016109da565b506001600160a01b0383166000908152600a6020526040902054610b179082610ec8565b9392505050565b610b26610b5c565b6001600160a01b038116610b50576000604051631e4fbdf760e01b81526004016107d29190610df9565b610b5981610b89565b50565b6000546001600160a01b03163314610638573360405163118cdaa760e01b81526004016107d29190610df9565b600080546001600160a01b038381166001600160a01b0319831681178455604051919092169283917f8be0079c531659141344cd1fd0a4f28419497f9722a3daafe3b4186f6b6457e09190a35050565b828054828255906000526020600020908101928215610c14579160200282015b82811115610c14578251825591602001919060010190610bf9565b50610c20929150610c24565b5090565b5b80821115610c205760008155600101610c25565b600060208284031215610c4b57600080fd5b81356001600160a01b0381168114610b1757600080fd5b634e487b7160e01b600052604160045260246000fd5b600082601f830112610c8957600080fd5b813567ffffffffffffffff811115610ca357610ca3610c62565b8060051b604051601f19603f830116810181811067ffffffffffffffff82111715610cd057610cd0610c62565b604052918252602081850181019290810186841115610cee57600080fd5b6020860192505b83831015610d0d578235815260209283019201610cf5565b5095945050505050565b600080600080600060a08688031215610d2f57600080fd5b853594506020860135935060408601359250606086013567ffffffffffffffff811115610d5b57600080fd5b610d6788828901610c78565b925050608086013567ffffffffffffffff811115610d8457600080fd5b610d9088828901610c78565b9150509295509295909350565b602080825282518282018190526000918401906040840190835b81811015610dd5578351835260209384019390920191600101610db7565b509095945050505050565b600060208284031215610df257600080fd5b5035919050565b6001600160a01b0391909116815260200190565b634e487b7160e01b600052601160045260246000fd5b80820180821115610e3657610e36610e0d565b92915050565b634e487b7160e01b600052603260045260246000fd5b600060208284031215610e6457600080fd5b81518015158114610b1757600080fd5b6001600160a01b03929092168252602082015260400190565b600082610eaa57634e487b7160e01b600052601260045260246000fd5b500690565b600060208284031215610ec157600080fd5b5051919050565b81810381811115610e3657610e36610e0d56fea2646970667358221220790ab541225fb1563f8ca915666ec195c2de3c74288d56c84b4fbb865638c4e964736f6c634300081d0033",
          "opcodes": "PUSH1 0x80 PUSH1 0x40 MSTORE PUSH1 0x0 DUP1 SLOAD PUSH2 0xFFFF PUSH1 0xA0 SHL NOT AND SWAP1 SSTORE CALLVALUE DUP1 ISZERO PUSH2 0x1E JUMPI PUSH1 0x0 DUP1 REVERT JUMPDEST POP PUSH1 0x40 MLOAD PUSH2 0x107D CODESIZE SUB DUP1 PUSH2 0x107D DUP4 CODECOPY DUP2 ADD PUSH1 0x40 DUP2 SWAP1 MSTORE PUSH2 0x3D SWAP2 PUSH2 0x110 JUMP JUMPDEST DUP3 PUSH1 0x1 PUSH1 0x1 PUSH1 0xA0 SHL SUB DUP2 AND PUSH2 0x6C JUMPI PUSH1 0x40 MLOAD PUSH4 0x1E4FBDF7 PUSH1 0xE0 SHL DUP2 MSTORE PUSH1 0x0 PUSH1 0x4 DUP3 ADD MSTORE PUSH1 0x24 ADD PUSH1 0x40 MLOAD DUP1 SWAP2 SUB SWAP1 REVERT JUMPDEST PUSH2 0x75 DUP2 PUSH2 0xA8 JUMP JUMPDEST POP PUSH1 0x4 DUP1 SLOAD PUSH1 0x1 PUSH1 0x1 PUSH1 0xA0 SHL SUB SWAP4 DUP5 AND PUSH1 0x1 PUSH1 0x1 PUSH1 0xA0 SHL SUB NOT SWAP2 DUP3 AND OR SWAP1 SWAP2 SSTORE PUSH1 0x5 DUP1 SLOAD SWAP3 SWAP1 SWAP4 AND SWAP2 AND OR SWAP1 SSTORE POP PUSH2 0x15D JUMP JUMPDEST PUSH1 0x0 DUP1 SLOAD PUSH1 0x1 PUSH1 0x1 PUSH1 0xA0 SHL SUB DUP4 DUP2 AND PUSH1 0x1 PUSH1 0x1 PUSH1 0xA0 SHL SUB NOT DUP4 AND DUP2 OR DUP5 SSTORE PUSH1 0x40 MLOAD SWAP2 SWAP1 SWAP3 AND SWAP3 DUP4 SWAP2 PUSH32 0x8BE0079C531659141344CD1FD0A4F28419497F9722A3DAAFE3B4186F6B6457E0 SWAP2 SWAP1 LOG3 POP POP JUMP JUMPDEST PUSH1 0x1 PUSH1 0x1 PUSH1 0xA0 SHL SUB DUP2 AND DUP2 EQ PUSH2 0x10D JUMPI PUSH1 0x0 DUP1 REVERT JUMPDEST POP JUMP JUMPDEST PUSH1 0x0 DUP1 PUSH1 0x0 PUSH1 0x60 DUP5 DUP7 SUB SLT ISZERO PUSH2 0x125 JUMPI PUSH1 0x0 DUP1 REVERT JUMPDEST DUP4 MLOAD PUSH2 0x130 DUP2 PUSH2 0xF8 JUMP JUMPDEST PUSH1 0x20 DUP6 ADD MLOAD SWAP1 SWAP4 POP PUSH2 0x141 DUP2 PUSH2 0xF8 JUMP JUMPDEST PUSH1 0x40 DUP6 ADD MLOAD SWAP1 SWAP3 POP PUSH2 0x152 DUP2 PUSH2 0xF8 JUMP JUMPDEST DUP1 SWAP2 POP POP SWAP3 POP SWAP3 POP SWAP3 JUMP JUMPDEST PUSH2 0xF11 DUP1 PUSH2 0x16C PUSH1 0x0 CODECOPY PUSH1 0x0 RETURN INVALID PUSH1 0x80 PUSH1 0x40 MSTORE CALLVALUE DUP1 ISZERO PUSH2 0x10 JUMPI PUSH1 0x0 DUP1 REVERT JUMPDEST POP PUSH1 0x4 CALLDATASIZE LT PUSH2 0x16E JUMPI PUSH1 0x0 CALLDATALOAD PUSH1 0xE0 SHR DUP1 PUSH4 0xA94BD919 GT PUSH2 0xCE JUMPI DUP1 PUSH4 0xD8C4A454 GT PUSH2 0x87 JUMPI DUP1 PUSH4 0xD8C4A454 EQ PUSH2 0x2EC JUMPI DUP1 PUSH4 0xD9F483F8 EQ PUSH2 0x2F5 JUMPI DUP1 PUSH4 0xDFBF53AE EQ PUSH2 0x308 JUMPI DUP1 PUSH4 0xE3AC5D26 EQ PUSH2 0x31B JUMPI DUP1 PUSH4 0xE8A8EE28 EQ PUSH2 0x324 JUMPI DUP1 PUSH4 0xECCA9C2E EQ PUSH2 0x34D JUMPI DUP1 PUSH4 0xF2FDE38B EQ PUSH2 0x355 JUMPI PUSH1 0x0 DUP1 REVERT JUMPDEST DUP1 PUSH4 0xA94BD919 EQ PUSH2 0x28D JUMPI DUP1 PUSH4 0xA9A86F4D EQ PUSH2 0x2A0 JUMPI DUP1 PUSH4 0xB2AB4AB7 EQ PUSH2 0x2B3 JUMPI DUP1 PUSH4 0xBEF4876B EQ PUSH2 0x2C6 JUMPI DUP1 PUSH4 0xCFBD900F EQ PUSH2 0x2DA JUMPI DUP1 PUSH4 0xD2A8C791 EQ PUSH2 0x2E3 JUMPI PUSH1 0x0 DUP1 REVERT JUMPDEST DUP1 PUSH4 0x50B44712 GT PUSH2 0x12B JUMPI DUP1 PUSH4 0x50B44712 EQ PUSH2 0x1E5 JUMPI DUP1 PUSH4 0x56C77EBE EQ PUSH2 0x21B JUMPI DUP1 PUSH4 0x6DC3AE8F EQ PUSH2 0x22E JUMPI DUP1 PUSH4 0x715018A6 EQ PUSH2 0x24E JUMPI DUP1 PUSH4 0x7B352962 EQ PUSH2 0x256 JUMPI DUP1 PUSH4 0x81FE4C61 EQ PUSH2 0x274 JUMPI DUP1 PUSH4 0x8DA5CB5B EQ PUSH2 0x27C JUMPI PUSH1 0x0 DUP1 REVERT JUMPDEST DUP1 PUSH4 0x6E8337F EQ PUSH2 0x173 JUMPI DUP1 PUSH4 0xFE85616 EQ PUSH2 0x18A JUMPI DUP1 PUSH4 0x31E54A2E EQ PUSH2 0x1AA JUMPI DUP1 PUSH4 0x31F6A017 EQ PUSH2 0x1BF JUMPI DUP1 PUSH4 0x4639545F EQ PUSH2 0x1C8 JUMPI DUP1 PUSH4 0x4705AB24 EQ PUSH2 0x1D0 JUMPI JUMPDEST PUSH1 0x0 DUP1 REVERT JUMPDEST PUSH1 0x8 SLOAD JUMPDEST PUSH1 0x40 MLOAD SWAP1 DUP2 MSTORE PUSH1 0x20 ADD JUMPDEST PUSH1 0x40 MLOAD DUP1 SWAP2 SUB SWAP1 RETURN JUMPDEST PUSH2 0x177 PUSH2 0x198 CALLDATASIZE PUSH1 0x4 PUSH2 0xC39 JUMP JUMPDEST PUSH1 0xA PUSH1 0x20 MSTORE PUSH1 0x0 SWAP1 DUP2 MSTORE PUSH1 0x40 SWAP1 KECCAK256 SLOAD DUP2 JUMP JUMPDEST PUSH2 0x1BD PUSH2 0x1B8 CALLDATASIZE PUSH1 0x4 PUSH2 0xD17 JUMP JUMPDEST PUSH2 0x368 JUMP JUMPDEST STOP JUMPDEST PUSH2 0x177 PUSH1 0x3 SLOAD DUP2 JUMP JUMPDEST PUSH1 0x3 SLOAD PUSH2 0x177 JUMP JUMPDEST PUSH2 0x1D8 PUSH2 0x5AD JUMP JUMPDEST PUSH1 0x40 MLOAD PUSH2 0x181 SWAP2 SWAP1 PUSH2 0xD9D JUMP JUMPDEST PUSH2 0x20E PUSH2 0x1F3 CALLDATASIZE PUSH1 0x4 PUSH2 0xDE0 JUMP JUMPDEST PUSH1 0x9 PUSH1 0x20 MSTORE PUSH1 0x0 SWAP1 DUP2 MSTORE PUSH1 0x40 SWAP1 KECCAK256 SLOAD PUSH1 0x1 PUSH1 0x1 PUSH1 0xA0 SHL SUB AND DUP2 JUMP JUMPDEST PUSH1 0x40 MLOAD PUSH2 0x181 SWAP2 SWAP1 PUSH2 0xDF9 JUMP JUMPDEST PUSH2 0x177 PUSH2 0x229 CALLDATASIZE PUSH1 0x4 PUSH2 0xDE0 JUMP JUMPDEST PUSH2 0x605 JUMP JUMPDEST PUSH2 0x177 PUSH2 0x23C CALLDATASIZE PUSH1 0x4 PUSH2 0xDE0 JUMP JUMPDEST PUSH1 0xC PUSH1 0x20 MSTORE PUSH1 0x0 SWAP1 DUP2 MSTORE PUSH1 0x40 SWAP1 KECCAK256 SLOAD DUP2 JUMP JUMPDEST PUSH2 0x1BD PUSH2 0x626 JUMP JUMPDEST PUSH1 0x0 SLOAD PUSH1 0x1 PUSH1 0xA0 SHL SWAP1 DIV PUSH1 0xFF AND JUMPDEST PUSH1 0x40 MLOAD SWAP1 ISZERO ISZERO DUP2 MSTORE PUSH1 0x20 ADD PUSH2 0x181 JUMP JUMPDEST PUSH2 0x1BD PUSH2 0x63A JUMP JUMPDEST PUSH1 0x0 SLOAD PUSH1 0x1 PUSH1 0x1 PUSH1 0xA0 SHL SUB AND PUSH2 0x20E JUMP JUMPDEST PUSH1 0x5 SLOAD PUSH2 0x20E SWAP1 PUSH1 0x1 PUSH1 0x1 PUSH1 0xA0 SHL SUB AND DUP2 JUMP JUMPDEST PUSH2 0x1BD PUSH2 0x2AE CALLDATASIZE PUSH1 0x4 PUSH2 0xDE0 JUMP JUMPDEST PUSH2 0x74E JUMP JUMPDEST PUSH1 0x4 SLOAD PUSH2 0x20E SWAP1 PUSH1 0x1 PUSH1 0x1 PUSH1 0xA0 SHL SUB AND DUP2 JUMP JUMPDEST PUSH1 0x0 SLOAD PUSH2 0x264 SWAP1 PUSH1 0x1 PUSH1 0xA0 SHL SWAP1 DIV PUSH1 0xFF AND DUP2 JUMP JUMPDEST PUSH2 0x177 PUSH1 0x8 SLOAD DUP2 JUMP JUMPDEST PUSH2 0x177 PUSH1 0x2 SLOAD DUP2 JUMP JUMPDEST PUSH2 0x177 PUSH1 0x1 SLOAD DUP2 JUMP JUMPDEST PUSH2 0x177 PUSH2 0x303 CALLDATASIZE PUSH1 0x4 PUSH2 0xC39 JUMP JUMPDEST PUSH2 0x9D5 JUMP JUMPDEST PUSH1 0x7 SLOAD PUSH2 0x20E SWAP1 PUSH1 0x1 PUSH1 0x1 PUSH1 0xA0 SHL SUB AND DUP2 JUMP JUMPDEST PUSH2 0x177 PUSH1 0x6 SLOAD DUP2 JUMP JUMPDEST PUSH2 0x177 PUSH2 0x332 CALLDATASIZE PUSH1 0x4 PUSH2 0xC39 JUMP JUMPDEST PUSH1 0x1 PUSH1 0x1 PUSH1 0xA0 SHL SUB AND PUSH1 0x0 SWAP1 DUP2 MSTORE PUSH1 0xA PUSH1 0x20 MSTORE PUSH1 0x40 SWAP1 KECCAK256 SLOAD SWAP1 JUMP JUMPDEST PUSH1 0x6 SLOAD PUSH2 0x177 JUMP JUMPDEST PUSH2 0x1BD PUSH2 0x363 CALLDATASIZE PUSH1 0x4 PUSH2 0xC39 JUMP JUMPDEST PUSH2 0xB1E JUMP JUMPDEST PUSH2 0x370 PUSH2 0xB5C JUMP JUMPDEST PUSH1 0x0 SLOAD PUSH1 0x1 PUSH1 0xA8 SHL SWAP1 DIV PUSH1 0xFF AND ISZERO PUSH2 0x39B JUMPI PUSH1 0x40 MLOAD PUSH4 0x1BF978F PUSH1 0xE3 SHL DUP2 MSTORE PUSH1 0x4 ADD PUSH1 0x40 MLOAD DUP1 SWAP2 SUB SWAP1 REVERT JUMPDEST PUSH1 0x0 DUP1 SLOAD PUSH2 0xFFFF PUSH1 0xA0 SHL NOT AND PUSH1 0x1 PUSH1 0xA8 SHL OR SWAP1 SSTORE PUSH1 0x1 DUP6 DUP2 SSTORE PUSH2 0x3BF SWAP1 NUMBER SWAP1 PUSH2 0xE23 JUMP JUMPDEST PUSH1 0x2 SSTORE PUSH1 0x3 DUP5 SWAP1 SSTORE PUSH1 0x6 DUP4 SWAP1 SSTORE DUP2 MLOAD PUSH8 0xFFFFFFFFFFFFFFFF DUP2 GT ISZERO PUSH2 0x3E6 JUMPI PUSH2 0x3E6 PUSH2 0xC62 JUMP JUMPDEST PUSH1 0x40 MLOAD SWAP1 DUP1 DUP3 MSTORE DUP1 PUSH1 0x20 MUL PUSH1 0x20 ADD DUP3 ADD PUSH1 0x40 MSTORE DUP1 ISZERO PUSH2 0x40F JUMPI DUP2 PUSH1 0x20 ADD PUSH1 0x20 DUP3 MUL DUP1 CALLDATASIZE DUP4 CALLDATACOPY ADD SWAP1 POP JUMPDEST POP DUP1 MLOAD PUSH2 0x424 SWAP2 PUSH1 0xB SWAP2 PUSH1 0x20 SWAP1 SWAP2 ADD SWAP1 PUSH2 0xBD9 JUMP JUMPDEST POP PUSH1 0x0 JUMPDEST DUP3 MLOAD DUP2 LT ISZERO PUSH2 0x4BC JUMPI DUP2 DUP2 DUP2 MLOAD DUP2 LT PUSH2 0x443 JUMPI PUSH2 0x443 PUSH2 0xE3C JUMP JUMPDEST PUSH1 0x20 MUL PUSH1 0x20 ADD ADD MLOAD PUSH1 0xC PUSH1 0x0 DUP6 DUP5 DUP2 MLOAD DUP2 LT PUSH2 0x461 JUMPI PUSH2 0x461 PUSH2 0xE3C JUMP JUMPDEST PUSH1 0x20 MUL PUSH1 0x20 ADD ADD MLOAD DUP2 MSTORE PUSH1 0x20 ADD SWAP1 DUP2 MSTORE PUSH1 0x20 ADD PUSH1 0x0 KECCAK256 DUP2 SWAP1 SSTORE POP DUP3 DUP2 DUP2 MLOAD DUP2 LT PUSH2 0x48D JUMPI PUSH2 0x48D PUSH2 0xE3C JUMP JUMPDEST PUSH1 0x20 MUL PUSH1 0x20 ADD ADD MLOAD PUSH1 0xB DUP3 DUP2 SLOAD DUP2 LT PUSH2 0x4A8 JUMPI PUSH2 0x4A8 PUSH2 0xE3C JUMP JUMPDEST PUSH1 0x0 SWAP2 DUP3 MSTORE PUSH1 0x20 SWAP1 SWAP2 KECCAK256 ADD SSTORE PUSH1 0x1 ADD PUSH2 0x428 JUMP JUMPDEST POP PUSH1 0x4 DUP1 SLOAD PUSH1 0x6 SLOAD PUSH1 0x40 MLOAD PUSH4 0x23B872DD PUSH1 0xE0 SHL DUP2 MSTORE CALLER SWAP4 DUP2 ADD SWAP4 SWAP1 SWAP4 MSTORE ADDRESS PUSH1 0x24 DUP5 ADD MSTORE PUSH1 0x44 DUP4 ADD MSTORE PUSH1 0x0 SWAP2 PUSH1 0x1 PUSH1 0x1 PUSH1 0xA0 SHL SUB SWAP1 SWAP2 AND SWAP1 PUSH4 0x23B872DD SWAP1 PUSH1 0x64 ADD PUSH1 0x20 PUSH1 0x40 MLOAD DUP1 DUP4 SUB DUP2 PUSH1 0x0 DUP8 GAS CALL ISZERO DUP1 ISZERO PUSH2 0x51B JUMPI RETURNDATASIZE PUSH1 0x0 DUP1 RETURNDATACOPY RETURNDATASIZE PUSH1 0x0 REVERT JUMPDEST POP POP POP POP PUSH1 0x40 MLOAD RETURNDATASIZE PUSH1 0x1F NOT PUSH1 0x1F DUP3 ADD AND DUP3 ADD DUP1 PUSH1 0x40 MSTORE POP DUP2 ADD SWAP1 PUSH2 0x53F SWAP2 SWAP1 PUSH2 0xE52 JUMP JUMPDEST SWAP1 POP DUP1 PUSH2 0x55F JUMPI PUSH1 0x40 MLOAD PUSH4 0x12171D83 PUSH1 0xE3 SHL DUP2 MSTORE PUSH1 0x4 ADD PUSH1 0x40 MLOAD DUP1 SWAP2 SUB SWAP1 REVERT JUMPDEST PUSH32 0x3B81D2F4ABC4B25CDB3A280F602ABA499A20E5E7F079340839D5E4481C2FFF17 PUSH1 0x1 SLOAD PUSH1 0x6 SLOAD PUSH1 0x40 MLOAD PUSH2 0x59D SWAP3 SWAP2 SWAP1 SWAP2 DUP3 MSTORE PUSH1 0x20 DUP3 ADD MSTORE PUSH1 0x40 ADD SWAP1 JUMP JUMPDEST PUSH1 0x40 MLOAD DUP1 SWAP2 SUB SWAP1 LOG1 POP POP POP POP POP POP JUMP JUMPDEST PUSH1 0x60 PUSH1 0xB DUP1 SLOAD DUP1 PUSH1 0x20 MUL PUSH1 0x20 ADD PUSH1 0x40 MLOAD SWAP1 DUP2 ADD PUSH1 0x40 MSTORE DUP1 SWAP3 SWAP2 SWAP1 DUP2 DUP2 MSTORE PUSH1 0x20 ADD DUP3 DUP1 SLOAD DUP1 ISZERO PUSH2 0x5FB JUMPI PUSH1 0x20 MUL DUP3 ADD SWAP2 SWAP1 PUSH1 0x0 MSTORE PUSH1 0x20 PUSH1 0x0 KECCAK256 SWAP1 JUMPDEST DUP2 SLOAD DUP2 MSTORE PUSH1 0x20 ADD SWAP1 PUSH1 0x1 ADD SWAP1 DUP1 DUP4 GT PUSH2 0x5E7 JUMPI JUMPDEST POP POP POP POP POP SWAP1 POP SWAP1 JUMP JUMPDEST PUSH1 0xB DUP2 DUP2 SLOAD DUP2 LT PUSH2 0x615 JUMPI PUSH1 0x0 DUP1 REVERT JUMPDEST PUSH1 0x0 SWAP2 DUP3 MSTORE PUSH1 0x20 SWAP1 SWAP2 KECCAK256 ADD SLOAD SWAP1 POP DUP2 JUMP JUMPDEST PUSH2 0x62E PUSH2 0xB5C JUMP JUMPDEST PUSH2 0x638 PUSH1 0x0 PUSH2 0xB89 JUMP JUMPDEST JUMP JUMPDEST PUSH1 0x0 SLOAD PUSH1 0x1 PUSH1 0xA0 SHL SWAP1 DIV PUSH1 0xFF AND DUP1 PUSH2 0x65C JUMPI POP PUSH1 0x0 SLOAD PUSH1 0x1 PUSH1 0xA8 SHL SWAP1 DIV PUSH1 0xFF AND ISZERO JUMPDEST ISZERO PUSH2 0x67A JUMPI PUSH1 0x40 MLOAD PUSH4 0x75D47E7F PUSH1 0xE0 SHL DUP2 MSTORE PUSH1 0x4 ADD PUSH1 0x40 MLOAD DUP1 SWAP2 SUB SWAP1 REVERT JUMPDEST PUSH1 0x0 PUSH2 0x685 CALLER PUSH2 0x9D5 JUMP JUMPDEST SWAP1 POP DUP1 PUSH1 0x0 SUB PUSH2 0x6A8 JUMPI PUSH1 0x40 MLOAD PUSH4 0x16D13827 PUSH1 0xE1 SHL DUP2 MSTORE PUSH1 0x4 ADD PUSH1 0x40 MLOAD DUP1 SWAP2 SUB SWAP1 REVERT JUMPDEST PUSH1 0x8 SLOAD JUMPDEST DUP2 PUSH1 0x8 SLOAD PUSH2 0x6BA SWAP2 SWAP1 PUSH2 0xE23 JUMP JUMPDEST DUP2 LT ISZERO PUSH2 0x6E7 JUMPI PUSH1 0x0 DUP2 DUP2 MSTORE PUSH1 0x9 PUSH1 0x20 MSTORE PUSH1 0x40 SWAP1 KECCAK256 DUP1 SLOAD PUSH1 0x1 PUSH1 0x1 PUSH1 0xA0 SHL SUB NOT AND CALLER OR SWAP1 SSTORE PUSH1 0x1 ADD PUSH2 0x6AC JUMP JUMPDEST POP CALLER PUSH1 0x0 SWAP1 DUP2 MSTORE PUSH1 0xA PUSH1 0x20 MSTORE PUSH1 0x40 DUP2 KECCAK256 DUP3 SWAP1 SSTORE PUSH1 0x8 DUP1 SLOAD DUP4 SWAP3 SWAP1 PUSH2 0x70C SWAP1 DUP5 SWAP1 PUSH2 0xE23 JUMP JUMPDEST SWAP1 SWAP2 SSTORE POP POP PUSH1 0x40 MLOAD PUSH32 0x3492E8DC9C9E6D0557AE45DFE2D8CD4FD614084227839A8A969F39B114895425 SWAP1 PUSH2 0x743 SWAP1 CALLER SWAP1 DUP5 SWAP1 PUSH2 0xE74 JUMP JUMPDEST PUSH1 0x40 MLOAD DUP1 SWAP2 SUB SWAP1 LOG1 POP JUMP JUMPDEST PUSH2 0x756 PUSH2 0xB5C JUMP JUMPDEST PUSH1 0x0 SLOAD PUSH1 0x1 PUSH1 0xA0 SHL SWAP1 DIV PUSH1 0xFF AND DUP1 PUSH2 0x778 JUMPI POP PUSH1 0x0 SLOAD PUSH1 0x1 PUSH1 0xA8 SHL SWAP1 DIV PUSH1 0xFF AND ISZERO JUMPDEST ISZERO PUSH2 0x796 JUMPI PUSH1 0x40 MLOAD PUSH4 0x75D47E7F PUSH1 0xE0 SHL DUP2 MSTORE PUSH1 0x4 ADD PUSH1 0x40 MLOAD DUP1 SWAP2 SUB SWAP1 REVERT JUMPDEST PUSH1 0x0 DUP1 SLOAD PUSH1 0xFF PUSH1 0xA0 SHL NOT AND PUSH1 0x1 PUSH1 0xA0 SHL OR SWAP1 SSTORE PUSH1 0x2 SLOAD NUMBER LT ISZERO PUSH2 0x7DB JUMPI PUSH1 0x2 SLOAD PUSH1 0x40 MLOAD PUSH4 0xA3665C49 PUSH1 0xE0 SHL DUP2 MSTORE PUSH1 0x4 ADD PUSH2 0x7D2 SWAP2 DUP2 MSTORE PUSH1 0x20 ADD SWAP1 JUMP JUMPDEST PUSH1 0x40 MLOAD DUP1 SWAP2 SUB SWAP1 REVERT JUMPDEST TIMESTAMP PUSH1 0x3 SLOAD GT ISZERO PUSH2 0x804 JUMPI PUSH1 0x3 SLOAD PUSH1 0x40 MLOAD PUSH4 0x3A4C7FB3 PUSH1 0xE1 SHL DUP2 MSTORE PUSH1 0x4 ADD PUSH2 0x7D2 SWAP2 DUP2 MSTORE PUSH1 0x20 ADD SWAP1 JUMP JUMPDEST PUSH1 0x1 SLOAD PUSH1 0x40 MLOAD PUSH12 0xFFFFFFFFFFFFFFFFFFFFFFFF NOT CALLER PUSH1 0x60 SHL AND PUSH1 0x20 DUP3 ADD MSTORE PUSH1 0x34 DUP2 ADD DUP4 SWAP1 MSTORE PUSH1 0x54 ADD PUSH1 0x40 MLOAD PUSH1 0x20 DUP2 DUP4 SUB SUB DUP2 MSTORE SWAP1 PUSH1 0x40 MSTORE DUP1 MLOAD SWAP1 PUSH1 0x20 ADD KECCAK256 EQ PUSH2 0x860 JUMPI PUSH1 0x40 MLOAD PUSH4 0x431D3A43 PUSH1 0xE1 SHL DUP2 MSTORE PUSH1 0x4 ADD PUSH1 0x40 MLOAD DUP1 SWAP2 SUB SWAP1 REVERT JUMPDEST PUSH1 0x2 SLOAD PUSH1 0x40 DUP1 MLOAD PUSH1 0x20 DUP1 DUP3 ADD DUP6 SWAP1 MSTORE SWAP3 BLOCKHASH DUP2 DUP4 ADD MSTORE DUP2 MLOAD DUP1 DUP3 SUB DUP4 ADD DUP2 MSTORE PUSH1 0x60 SWAP1 SWAP2 ADD SWAP1 SWAP2 MSTORE DUP1 MLOAD SWAP2 ADD KECCAK256 PUSH1 0x8 SLOAD PUSH1 0x9 SWAP1 PUSH1 0x0 SWAP1 PUSH2 0x89E SWAP1 DUP5 PUSH2 0xE8D JUMP JUMPDEST DUP2 MSTORE PUSH1 0x20 DUP2 ADD SWAP2 SWAP1 SWAP2 MSTORE PUSH1 0x40 ADD PUSH1 0x0 KECCAK256 SLOAD PUSH1 0x7 DUP1 SLOAD PUSH1 0x1 PUSH1 0x1 PUSH1 0xA0 SHL SUB NOT AND PUSH1 0x1 PUSH1 0x1 PUSH1 0xA0 SHL SUB SWAP1 SWAP3 AND SWAP2 DUP3 OR SWAP1 SSTORE PUSH2 0x8EA JUMPI PUSH1 0x40 MLOAD PUSH4 0x1E4D0C3 PUSH1 0xE2 SHL DUP2 MSTORE PUSH1 0x4 ADD PUSH1 0x40 MLOAD DUP1 SWAP2 SUB SWAP1 REVERT JUMPDEST PUSH1 0x4 DUP1 SLOAD PUSH1 0x7 SLOAD PUSH1 0x6 SLOAD PUSH1 0x40 MLOAD PUSH4 0xA9059CBB PUSH1 0xE0 SHL DUP2 MSTORE PUSH1 0x0 SWAP5 PUSH1 0x1 PUSH1 0x1 PUSH1 0xA0 SHL SUB SWAP5 DUP6 AND SWAP5 PUSH4 0xA9059CBB SWAP5 PUSH2 0x925 SWAP5 SWAP2 AND SWAP3 SWAP1 SWAP2 ADD PUSH2 0xE74 JUMP JUMPDEST PUSH1 0x20 PUSH1 0x40 MLOAD DUP1 DUP4 SUB DUP2 PUSH1 0x0 DUP8 GAS CALL ISZERO DUP1 ISZERO PUSH2 0x944 JUMPI RETURNDATASIZE PUSH1 0x0 DUP1 RETURNDATACOPY RETURNDATASIZE PUSH1 0x0 REVERT JUMPDEST POP POP POP POP PUSH1 0x40 MLOAD RETURNDATASIZE PUSH1 0x1F NOT PUSH1 0x1F DUP3 ADD AND DUP3 ADD DUP1 PUSH1 0x40 MSTORE POP DUP2 ADD SWAP1 PUSH2 0x968 SWAP2 SWAP1 PUSH2 0xE52 JUMP JUMPDEST SWAP1 POP DUP1 PUSH2 0x988 JUMPI PUSH1 0x40 MLOAD PUSH4 0x12171D83 PUSH1 0xE3 SHL DUP2 MSTORE PUSH1 0x4 ADD PUSH1 0x40 MLOAD DUP1 SWAP2 SUB SWAP1 REVERT JUMPDEST PUSH1 0x7 SLOAD PUSH1 0x6 SLOAD PUSH1 0x40 MLOAD PUSH32 0x7E2CA3905E2A3F4806A624223EA6CDCD30DAD54D82E68B44481A5E00F322EFC7 SWAP3 PUSH2 0x9C8 SWAP3 PUSH1 0x1 PUSH1 0x1 PUSH1 0xA0 SHL SUB SWAP1 SWAP2 AND SWAP2 PUSH2 0xE74 JUMP JUMPDEST PUSH1 0x40 MLOAD DUP1 SWAP2 SUB SWAP1 LOG1 POP POP POP JUMP JUMPDEST PUSH1 0x0 DUP1 DUP1 JUMPDEST PUSH1 0xB SLOAD DUP2 LT ISZERO PUSH2 0xAF3 JUMPI PUSH1 0x5 SLOAD PUSH1 0xB DUP1 SLOAD PUSH1 0x0 SWAP3 PUSH1 0x1 PUSH1 0x1 PUSH1 0xA0 SHL SUB AND SWAP2 PUSH3 0xFDD58E SWAP2 DUP9 SWAP2 SWAP1 DUP7 SWAP1 DUP2 LT PUSH2 0xA10 JUMPI PUSH2 0xA10 PUSH2 0xE3C JUMP JUMPDEST SWAP1 PUSH1 0x0 MSTORE PUSH1 0x20 PUSH1 0x0 KECCAK256 ADD SLOAD PUSH1 0x40 MLOAD DUP4 PUSH4 0xFFFFFFFF AND PUSH1 0xE0 SHL DUP2 MSTORE PUSH1 0x4 ADD PUSH2 0xA38 SWAP3 SWAP2 SWAP1 PUSH2 0xE74 JUMP JUMPDEST PUSH1 0x20 PUSH1 0x40 MLOAD DUP1 DUP4 SUB DUP2 DUP7 GAS STATICCALL ISZERO DUP1 ISZERO PUSH2 0xA55 JUMPI RETURNDATASIZE PUSH1 0x0 DUP1 RETURNDATACOPY RETURNDATASIZE PUSH1 0x0 REVERT JUMPDEST POP POP POP POP PUSH1 0x40 MLOAD RETURNDATASIZE PUSH1 0x1F NOT PUSH1 0x1F DUP3 ADD AND DUP3 ADD DUP1 PUSH1 0x40 MSTORE POP DUP2 ADD SWAP1 PUSH2 0xA79 SWAP2 SWAP1 PUSH2 0xEAF JUMP JUMPDEST GT ISZERO PUSH2 0xAEB JUMPI DUP2 PUSH1 0xC PUSH1 0x0 PUSH1 0xB DUP5 DUP2 SLOAD DUP2 LT PUSH2 0xA97 JUMPI PUSH2 0xA97 PUSH2 0xE3C JUMP JUMPDEST SWAP1 PUSH1 0x0 MSTORE PUSH1 0x20 PUSH1 0x0 KECCAK256 ADD SLOAD DUP2 MSTORE PUSH1 0x20 ADD SWAP1 DUP2 MSTORE PUSH1 0x20 ADD PUSH1 0x0 KECCAK256 SLOAD GT ISZERO PUSH2 0xAEB JUMPI PUSH1 0xC PUSH1 0x0 PUSH1 0xB DUP4 DUP2 SLOAD DUP2 LT PUSH2 0xACE JUMPI PUSH2 0xACE PUSH2 0xE3C JUMP JUMPDEST SWAP1 PUSH1 0x0 MSTORE PUSH1 0x20 PUSH1 0x0 KECCAK256 ADD SLOAD DUP2 MSTORE PUSH1 0x20 ADD SWAP1 DUP2 MSTORE PUSH1 0x20 ADD PUSH1 0x0 KECCAK256 SLOAD SWAP2 POP JUMPDEST PUSH1 0x1 ADD PUSH2 0x9DA JUMP JUMPDEST POP PUSH1 0x1 PUSH1 0x1 PUSH1 0xA0 SHL SUB DUP4 AND PUSH1 0x0 SWAP1 DUP2 MSTORE PUSH1 0xA PUSH1 0x20 MSTORE PUSH1 0x40 SWAP1 KECCAK256 SLOAD PUSH2 0xB17 SWAP1 DUP3 PUSH2 0xEC8 JUMP JUMPDEST SWAP4 SWAP3 POP POP POP JUMP JUMPDEST PUSH2 0xB26 PUSH2 0xB5C JUMP JUMPDEST PUSH1 0x1 PUSH1 0x1 PUSH1 0xA0 SHL SUB DUP2 AND PUSH2 0xB50 JUMPI PUSH1 0x0 PUSH1 0x40 MLOAD PUSH4 0x1E4FBDF7 PUSH1 0xE0 SHL DUP2 MSTORE PUSH1 0x4 ADD PUSH2 0x7D2 SWAP2 SWAP1 PUSH2 0xDF9 JUMP JUMPDEST PUSH2 0xB59 DUP2 PUSH2 0xB89 JUMP JUMPDEST POP JUMP JUMPDEST PUSH1 0x0 SLOAD PUSH1 0x1 PUSH1 0x1 PUSH1 0xA0 SHL SUB AND CALLER EQ PUSH2 0x638 JUMPI CALLER PUSH1 0x40 MLOAD PUSH4 0x118CDAA7 PUSH1 0xE0 SHL DUP2 MSTORE PUSH1 0x4 ADD PUSH2 0x7D2 SWAP2 SWAP1 PUSH2 0xDF9 JUMP JUMPDEST PUSH1 0x0 DUP1 SLOAD PUSH1 0x1 PUSH1 0x1 PUSH1 0xA0 SHL SUB DUP4 DUP2 AND PUSH1 0x1 PUSH1 0x1 PUSH1 0xA0 SHL SUB NOT DUP4 AND DUP2 OR DUP5 SSTORE PUSH1 0x40 MLOAD SWAP2 SWAP1 SWAP3 AND SWAP3 DUP4 SWAP2 PUSH32 0x8BE0079C531659141344CD1FD0A4F28419497F9722A3DAAFE3B4186F6B6457E0 SWAP2 SWAP1 LOG3 POP POP JUMP JUMPDEST DUP3 DUP1 SLOAD DUP3 DUP3 SSTORE SWAP1 PUSH1 0x0 MSTORE PUSH1 0x20 PUSH1 0x0 KECCAK256 SWAP1 DUP2 ADD SWAP3 DUP3 ISZERO PUSH2 0xC14 JUMPI SWAP2 PUSH1 0x20 MUL DUP3 ADD JUMPDEST DUP3 DUP2 GT ISZERO PUSH2 0xC14 JUMPI DUP3 MLOAD DUP3 SSTORE SWAP2 PUSH1 0x20 ADD SWAP2 SWAP1 PUSH1 0x1 ADD SWAP1 PUSH2 0xBF9 JUMP JUMPDEST POP PUSH2 0xC20 SWAP3 SWAP2 POP PUSH2 0xC24 JUMP JUMPDEST POP SWAP1 JUMP JUMPDEST JUMPDEST DUP1 DUP3 GT ISZERO PUSH2 0xC20 JUMPI PUSH1 0x0 DUP2 SSTORE PUSH1 0x1 ADD PUSH2 0xC25 JUMP JUMPDEST PUSH1 0x0 PUSH1 0x20 DUP3 DUP5 SUB SLT ISZERO PUSH2 0xC4B JUMPI PUSH1 0x0 DUP1 REVERT JUMPDEST DUP2 CALLDATALOAD PUSH1 0x1 PUSH1 0x1 PUSH1 0xA0 SHL SUB DUP2 AND DUP2 EQ PUSH2 0xB17 JUMPI PUSH1 0x0 DUP1 REVERT JUMPDEST PUSH4 0x4E487B71 PUSH1 0xE0 SHL PUSH1 0x0 MSTORE PUSH1 0x41 PUSH1 0x4 MSTORE PUSH1 0x24 PUSH1 0x0 REVERT JUMPDEST PUSH1 0x0 DUP3 PUSH1 0x1F DUP4 ADD SLT PUSH2 0xC89 JUMPI PUSH1 0x0 DUP1 REVERT JUMPDEST DUP2 CALLDATALOAD PUSH8 0xFFFFFFFFFFFFFFFF DUP2 GT ISZERO PUSH2 0xCA3 JUMPI PUSH2 0xCA3 PUSH2 0xC62 JUMP JUMPDEST DUP1 PUSH1 0x5 SHL PUSH1 0x40 MLOAD PUSH1 0x1F NOT PUSH1 0x3F DUP4 ADD AND DUP2 ADD DUP2 DUP2 LT PUSH8 0xFFFFFFFFFFFFFFFF DUP3 GT OR ISZERO PUSH2 0xCD0 JUMPI PUSH2 0xCD0 PUSH2 0xC62 JUMP JUMPDEST PUSH1 0x40 MSTORE SWAP2 DUP3 MSTORE PUSH1 0x20 DUP2 DUP6 ADD DUP2 ADD SWAP3 SWAP1 DUP2 ADD DUP7 DUP5 GT ISZERO PUSH2 0xCEE JUMPI PUSH1 0x0 DUP1 REVERT JUMPDEST PUSH1 0x20 DUP7 ADD SWAP3 POP JUMPDEST DUP4 DUP4 LT ISZERO PUSH2 0xD0D JUMPI DUP3 CALLDATALOAD DUP2 MSTORE PUSH1 0x20 SWAP3 DUP4 ADD SWAP3 ADD PUSH2 0xCF5 JUMP JUMPDEST POP SWAP6 SWAP5 POP POP POP POP POP JUMP JUMPDEST PUSH1 0x0 DUP1 PUSH1 0x0 DUP1 PUSH1 0x0 PUSH1 0xA0 DUP7 DUP9 SUB SLT ISZERO PUSH2 0xD2F JUMPI PUSH1 0x0 DUP1 REVERT JUMPDEST DUP6 CALLDATALOAD SWAP5 POP PUSH1 0x20 DUP7 ADD CALLDATALOAD SWAP4 POP PUSH1 0x40 DUP7 ADD CALLDATALOAD SWAP3 POP PUSH1 0x60 DUP7 ADD CALLDATALOAD PUSH8 0xFFFFFFFFFFFFFFFF DUP2 GT ISZERO PUSH2 0xD5B JUMPI PUSH1 0x0 DUP1 REVERT JUMPDEST PUSH2 0xD67 DUP9 DUP3 DUP10 ADD PUSH2 0xC78 JUMP JUMPDEST SWAP3 POP POP PUSH1 0x80 DUP7 ADD CALLDATALOAD PUSH8 0xFFFFFFFFFFFFFFFF DUP2 GT ISZERO PUSH2 0xD84 JUMPI PUSH1 0x0 DUP1 REVERT JUMPDEST PUSH2 0xD90 DUP9 DUP3 DUP10 ADD PUSH2 0xC78 JUMP JUMPDEST SWAP2 POP POP SWAP3 SWAP6 POP SWAP3 SWAP6 SWAP1 SWAP4 POP JUMP JUMPDEST PUSH1 0x20 DUP1 DUP3 MSTORE DUP3 MLOAD DUP3 DUP3 ADD DUP2 SWAP1 MSTORE PUSH1 0x0 SWAP2 DUP5 ADD SWAP1 PUSH1 0x40 DUP5 ADD SWAP1 DUP4 JUMPDEST DUP2 DUP2 LT ISZERO PUSH2 0xDD5 JUMPI DUP4 MLOAD DUP4 MSTORE PUSH1 0x20 SWAP4 DUP5 ADD SWAP4 SWAP1 SWAP3 ADD SWAP2 PUSH1 0x1 ADD PUSH2 0xDB7 JUMP JUMPDEST POP SWAP1 SWAP6 SWAP5 POP POP POP POP POP JUMP JUMPDEST PUSH1 0x0 PUSH1 0x20 DUP3 DUP5 SUB SLT ISZERO PUSH2 0xDF2 JUMPI PUSH1 0x0 DUP1 REVERT JUMPDEST POP CALLDATALOAD SWAP2 SWAP1 POP JUMP JUMPDEST PUSH1 0x1 PUSH1 0x1 PUSH1 0xA0 SHL SUB SWAP2 SWAP1 SWAP2 AND DUP2 MSTORE PUSH1 0x20 ADD SWAP1 JUMP JUMPDEST PUSH4 0x4E487B71 PUSH1 0xE0 SHL PUSH1 0x0 MSTORE PUSH1 0x11 PUSH1 0x4 MSTORE PUSH1 0x24 PUSH1 0x0 REVERT JUMPDEST DUP1 DUP3 ADD DUP1 DUP3 GT ISZERO PUSH2 0xE36 JUMPI PUSH2 0xE36 PUSH2 0xE0D JUMP JUMPDEST SWAP3 SWAP2 POP POP JUMP JUMPDEST PUSH4 0x4E487B71 PUSH1 0xE0 SHL PUSH1 0x0 MSTORE PUSH1 0x32 PUSH1 0x4 MSTORE PUSH1 0x24 PUSH1 0x0 REVERT JUMPDEST PUSH1 0x0 PUSH1 0x20 DUP3 DUP5 SUB SLT ISZERO PUSH2 0xE64 JUMPI PUSH1 0x0 DUP1 REVERT JUMPDEST DUP2 MLOAD DUP1 ISZERO ISZERO DUP2 EQ PUSH2 0xB17 JUMPI PUSH1 0x0 DUP1 REVERT JUMPDEST PUSH1 0x1 PUSH1 0x1 PUSH1 0xA0 SHL SUB SWAP3 SWAP1 SWAP3 AND DUP3 MSTORE PUSH1 0x20 DUP3 ADD MSTORE PUSH1 0x40 ADD SWAP1 JUMP JUMPDEST PUSH1 0x0 DUP3 PUSH2 0xEAA JUMPI PUSH4 0x4E487B71 PUSH1 0xE0 SHL PUSH1 0x0 MSTORE PUSH1 0x12 PUSH1 0x4 MSTORE PUSH1 0x24 PUSH1 0x0 REVERT JUMPDEST POP MOD SWAP1 JUMP JUMPDEST PUSH1 0x0 PUSH1 0x20 DUP3 DUP5 SUB SLT ISZERO PUSH2 0xEC1 JUMPI PUSH1 0x0 DUP1 REVERT JUMPDEST POP MLOAD SWAP2 SWAP1 POP JUMP JUMPDEST DUP2 DUP2 SUB DUP2 DUP2 GT ISZERO PUSH2 0xE36 JUMPI PUSH2 0xE36 PUSH2 0xE0D JUMP INVALID LOG2 PUSH5 0x6970667358 0x22 SLT KECCAK256 PUSH26 0xAB541225FB1563F8CA915666EC195C2DE3C74288D56C84B4FBB DUP7 JUMP CODESIZE 0xC4 0xE9 PUSH5 0x736F6C6343 STOP ADDMOD SAR STOP CALLER "
        },
        "methodIdentifiers": {
          "badgeAllocations(uint256)": "6dc3ae8f",
          "claimTickets()": "81fe4c61",
          "eligibleBadges(uint256)": "56c77ebe",
          "finished()": "bef4876b",
          "getClaimableTickets(address)": "d9f483f8",
          "getClaimedTickets(address)": "e8a8ee28",
          "getEligibleBadges()": "4705ab24",
          "getPrizeAmount()": "ecca9c2e",
          "getRevealedAfter()": "4639545f",
          "getTotalTickets()": "06e8337f",
          "initialize(bytes32,uint256,uint256,uint256[],uint256[])": "31e54a2e",
          "isFinished()": "7b352962",
          "owner()": "8da5cb5b",
          "prize()": "e3ac5d26",
          "renounceOwnership()": "715018a6",
          "revealAfterTimestamp()": "31f6a017",
          "revealWinner(bytes32)": "a9a86f4d",
          "sealedSeed()": "d8c4a454",
          "storedBlockNumber()": "d2a8c791",
          "superchainBadges()": "a94bd919",
          "superchainPoints()": "b2ab4ab7",
          "ticketCount()": "cfbd900f",
          "tickets(uint256)": "50b44712",
          "ticketsClaimed(address)": "0fe85616",
          "transferOwnership(address)": "f2fde38b",
          "winner()": "dfbf53ae"
        }
      }
    }
  }
}